{"contracts/HealthcareSystem.sol":{"HealthcareSystem":{"abi":[{"inputs":[],"stateMutability":"nonpayable","type":"constructor"},{"anonymous":false,"inputs":[{"indexed":true,"internalType":"address","name":"patientAddress","type":"address"},{"indexed":true,"internalType":"address","name":"doctorAddress","type":"address"}],"name":"AccessGranted","type":"event"},{"anonymous":false,"inputs":[{"indexed":true,"internalType":"address","name":"patientAddress","type":"address"},{"indexed":true,"internalType":"address","name":"doctorAddress","type":"address"}],"name":"AccessRevoked","type":"event"},{"anonymous":false,"inputs":[{"indexed":true,"internalType":"uint256","name":"appointmentId","type":"uint256"}],"name":"AppointmentApproved","type":"event"},{"anonymous":false,"inputs":[{"indexed":true,"internalType":"uint256","name":"appointmentId","type":"uint256"},{"indexed":true,"internalType":"address","name":"patientAddress","type":"address"},{"indexed":true,"internalType":"address","name":"doctorAddress","type":"address"}],"name":"AppointmentBooked","type":"event"},{"anonymous":false,"inputs":[{"indexed":true,"internalType":"uint256","name":"appointmentId","type":"uint256"}],"name":"AppointmentCancelled","type":"event"},{"anonymous":false,"inputs":[{"indexed":true,"internalType":"uint256","name":"appointmentId","type":"uint256"}],"name":"AppointmentCompleted","type":"event"},{"anonymous":false,"inputs":[{"indexed":true,"internalType":"uint256","name":"doctorId","type":"uint256"},{"indexed":true,"internalType":"address","name":"doctorAddress","type":"address"}],"name":"DoctorApproved","type":"event"},{"anonymous":false,"inputs":[{"indexed":true,"internalType":"uint256","name":"doctorId","type":"uint256"},{"indexed":true,"internalType":"address","name":"doctorAddress","type":"address"}],"name":"DoctorRegistered","type":"event"},{"anonymous":false,"inputs":[{"indexed":true,"internalType":"uint256","name":"recordId","type":"uint256"},{"indexed":true,"internalType":"address","name":"patientAddress","type":"address"},{"indexed":true,"internalType":"address","name":"doctorAddress","type":"address"}],"name":"MedicalRecordAdded","type":"event"},{"anonymous":false,"inputs":[{"indexed":true,"internalType":"uint256","name":"medicationId","type":"uint256"},{"indexed":true,"internalType":"address","name":"patientAddress","type":"address"}],"name":"MedicationAdded","type":"event"},{"anonymous":false,"inputs":[{"indexed":true,"internalType":"address","name":"userAddress","type":"address"},{"indexed":false,"internalType":"string","name":"metadataHash","type":"string"}],"name":"MetadataUpdated","type":"event"},{"anonymous":false,"inputs":[{"indexed":true,"internalType":"uint256","name":"notificationId","type":"uint256"},{"indexed":true,"internalType":"address","name":"recipientAddress","type":"address"},{"indexed":false,"internalType":"string","name":"message","type":"string"}],"name":"NotificationSent","type":"event"},{"anonymous":false,"inputs":[{"indexed":true,"internalType":"uint256","name":"patientId","type":"uint256"},{"indexed":true,"internalType":"address","name":"patientAddress","type":"address"}],"name":"PatientRegistered","type":"event"},{"anonymous":false,"inputs":[{"indexed":true,"internalType":"uint256","name":"reviewId","type":"uint256"},{"indexed":true,"internalType":"address","name":"doctorAddress","type":"address"},{"indexed":false,"internalType":"uint8","name":"rating","type":"uint8"}],"name":"ReviewAdded","type":"event"},{"inputs":[{"internalType":"address","name":"","type":"address"},{"internalType":"address","name":"","type":"address"}],"name":"accessControl","outputs":[{"internalType":"bool","name":"","type":"bool"}],"stateMutability":"view","type":"function"},{"inputs":[{"internalType":"address","name":"_doctor","type":"address"},{"internalType":"address","name":"_patient","type":"address"},{"internalType":"string","name":"_diagnosis","type":"string"},{"internalType":"string","name":"_treatment","type":"string"},{"internalType":"string","name":"_prescription","type":"string"},{"internalType":"string","name":"_notes","type":"string"},{"internalType":"uint256","name":"_appointmentId","type":"uint256"},{"internalType":"string","name":"_metadataHash","type":"string"},{"internalType":"uint8","name":"_severity","type":"uint8"}],"name":"addMedicalRecordFor","outputs":[],"stateMutability":"nonpayable","type":"function"},{"inputs":[{"internalType":"address","name":"_doctor","type":"address"},{"internalType":"address","name":"_patient","type":"address"},{"internalType":"string","name":"_name","type":"string"},{"internalType":"string","name":"_dosage","type":"string"},{"internalType":"string","name":"_frequency","type":"string"},{"internalType":"string","name":"_duration","type":"string"}],"name":"addMedicationFor","outputs":[],"stateMutability":"nonpayable","type":"function"},{"inputs":[{"internalType":"address","name":"_patient","type":"address"},{"internalType":"uint256","name":"_appointmentId","type":"uint256"},{"internalType":"uint8","name":"_rating","type":"uint8"},{"internalType":"string","name":"_comment","type":"string"}],"name":"addReviewFor","outputs":[],"stateMutability":"nonpayable","type":"function"},{"inputs":[],"name":"admin","outputs":[{"internalType":"address","name":"","type":"address"}],"stateMutability":"view","type":"function"},{"inputs":[],"name":"appointmentCount","outputs":[{"internalType":"uint256","name":"","type":"uint256"}],"stateMutability":"view","type":"function"},{"inputs":[{"internalType":"uint256","name":"","type":"uint256"}],"name":"appointments","outputs":[{"internalType":"uint256","name":"id","type":"uint256"},{"internalType":"address","name":"patientAddress","type":"address"},{"internalType":"address","name":"doctorAddress","type":"address"},{"internalType":"string","name":"appointmentDate","type":"string"},{"internalType":"string","name":"appointmentTime","type":"string"},{"internalType":"string","name":"reason","type":"string"},{"internalType":"enum HealthcareSystem.AppointmentStatus","name":"status","type":"uint8"},{"internalType":"uint256","name":"dateCreated","type":"uint256"},{"internalType":"uint256","name":"linkedRecordId","type":"uint256"}],"stateMutability":"view","type":"function"},{"inputs":[{"internalType":"uint256","name":"_id","type":"uint256"}],"name":"approveAppointment","outputs":[],"stateMutability":"nonpayable","type":"function"},{"inputs":[{"internalType":"address","name":"_doctor","type":"address"}],"name":"approveDoctor","outputs":[],"stateMutability":"nonpayable","type":"function"},{"inputs":[{"internalType":"address","name":"_patient","type":"address"},{"internalType":"address","name":"_doctor","type":"address"},{"internalType":"string","name":"_date","type":"string"},{"internalType":"string","name":"_time","type":"string"},{"internalType":"string","name":"_reason","type":"string"}],"name":"bookAppointmentFor","outputs":[],"stateMutability":"nonpayable","type":"function"},{"inputs":[{"internalType":"address","name":"_patient","type":"address"},{"internalType":"uint256","name":"_id","type":"uint256"}],"name":"cancelAppointmentFor","outputs":[],"stateMutability":"nonpayable","type":"function"},{"inputs":[{"internalType":"address","name":"_patient","type":"address"},{"internalType":"address","name":"_doctor","type":"address"}],"name":"checkAccess","outputs":[{"internalType":"bool","name":"","type":"bool"}],"stateMutability":"view","type":"function"},{"inputs":[{"internalType":"address","name":"_doctor","type":"address"},{"internalType":"uint256","name":"_id","type":"uint256"}],"name":"completeAppointmentFor","outputs":[],"stateMutability":"nonpayable","type":"function"},{"inputs":[{"internalType":"uint256","name":"","type":"uint256"}],"name":"doctorById","outputs":[{"internalType":"uint256","name":"id","type":"uint256"},{"internalType":"string","name":"name","type":"string"},{"internalType":"string","name":"specialization","type":"string"},{"internalType":"string","name":"licenseNumber","type":"string"},{"internalType":"address","name":"walletAddress","type":"address"},{"internalType":"bool","name":"isApproved","type":"bool"},{"internalType":"bool","name":"isActive","type":"bool"},{"internalType":"string","name":"metadataHash","type":"string"},{"internalType":"uint256","name":"totalPatients","type":"uint256"},{"internalType":"uint256","name":"totalAppointments","type":"uint256"},{"internalType":"uint256","name":"totalRecordsAdded","type":"uint256"},{"internalType":"uint256","name":"totalRating","type":"uint256"},{"internalType":"uint256","name":"reviewCount","type":"uint256"},{"internalType":"uint256","name":"registrationDate","type":"uint256"}],"stateMutability":"view","type":"function"},{"inputs":[],"name":"doctorCount","outputs":[{"internalType":"uint256","name":"","type":"uint256"}],"stateMutability":"view","type":"function"},{"inputs":[{"internalType":"address","name":"","type":"address"}],"name":"doctors","outputs":[{"internalType":"uint256","name":"id","type":"uint256"},{"internalType":"string","name":"name","type":"string"},{"internalType":"string","name":"specialization","type":"string"},{"internalType":"string","name":"licenseNumber","type":"string"},{"internalType":"address","name":"walletAddress","type":"address"},{"internalType":"bool","name":"isApproved","type":"bool"},{"internalType":"bool","name":"isActive","type":"bool"},{"internalType":"string","name":"metadataHash","type":"string"},{"internalType":"uint256","name":"totalPatients","type":"uint256"},{"internalType":"uint256","name":"totalAppointments","type":"uint256"},{"internalType":"uint256","name":"totalRecordsAdded","type":"uint256"},{"internalType":"uint256","name":"totalRating","type":"uint256"},{"internalType":"uint256","name":"reviewCount","type":"uint256"},{"internalType":"uint256","name":"registrationDate","type":"uint256"}],"stateMutability":"view","type":"function"},{"inputs":[],"name":"getAllApprovedDoctors","outputs":[{"components":[{"internalType":"uint256","name":"id","type":"uint256"},{"internalType":"string","name":"name","type":"string"},{"internalType":"string","name":"specialization","type":"string"},{"internalType":"string","name":"licenseNumber","type":"string"},{"internalType":"address","name":"walletAddress","type":"address"},{"internalType":"bool","name":"isApproved","type":"bool"},{"internalType":"bool","name":"isActive","type":"bool"},{"internalType":"string","name":"metadataHash","type":"string"},{"internalType":"uint256","name":"totalPatients","type":"uint256"},{"internalType":"uint256","name":"totalAppointments","type":"uint256"},{"internalType":"uint256","name":"totalRecordsAdded","type":"uint256"},{"internalType":"uint256","name":"totalRating","type":"uint256"},{"internalType":"uint256","name":"reviewCount","type":"uint256"},{"internalType":"uint256","name":"registrationDate","type":"uint256"}],"internalType":"struct HealthcareSystem.Doctor[]","name":"","type":"tuple[]"}],"stateMutability":"view","type":"function"},{"inputs":[{"internalType":"address","name":"_doctor","type":"address"}],"name":"getDoctorAverageRating","outputs":[{"internalType":"uint256","name":"","type":"uint256"}],"stateMutability":"view","type":"function"},{"inputs":[{"internalType":"address","name":"_doctor","type":"address"}],"name":"getDoctorReviews","outputs":[{"internalType":"uint256[]","name":"","type":"uint256[]"}],"stateMutability":"view","type":"function"},{"inputs":[{"internalType":"string","name":"_spec","type":"string"}],"name":"getDoctorsBySpecialization","outputs":[{"components":[{"internalType":"uint256","name":"id","type":"uint256"},{"internalType":"string","name":"name","type":"string"},{"internalType":"string","name":"specialization","type":"string"},{"internalType":"string","name":"licenseNumber","type":"string"},{"internalType":"address","name":"walletAddress","type":"address"},{"internalType":"bool","name":"isApproved","type":"bool"},{"internalType":"bool","name":"isActive","type":"bool"},{"internalType":"string","name":"metadataHash","type":"string"},{"internalType":"uint256","name":"totalPatients","type":"uint256"},{"internalType":"uint256","name":"totalAppointments","type":"uint256"},{"internalType":"uint256","name":"totalRecordsAdded","type":"uint256"},{"internalType":"uint256","name":"totalRating","type":"uint256"},{"internalType":"uint256","name":"reviewCount","type":"uint256"},{"internalType":"uint256","name":"registrationDate","type":"uint256"}],"internalType":"struct HealthcareSystem.Doctor[]","name":"","type":"tuple[]"}],"stateMutability":"view","type":"function"},{"inputs":[{"internalType":"uint256","name":"_id","type":"uint256"},{"internalType":"address","name":"_requester","type":"address"}],"name":"getMedicalRecord","outputs":[{"components":[{"internalType":"uint256","name":"id","type":"uint256"},{"internalType":"address","name":"patientAddress","type":"address"},{"internalType":"address","name":"doctorAddress","type":"address"},{"internalType":"uint256","name":"appointmentId","type":"uint256"},{"internalType":"string","name":"diagnosis","type":"string"},{"internalType":"string","name":"treatment","type":"string"},{"internalType":"string","name":"prescription","type":"string"},{"internalType":"string","name":"notes","type":"string"},{"internalType":"string","name":"metadataHash","type":"string"},{"internalType":"uint8","name":"severity","type":"uint8"},{"internalType":"uint256","name":"timestamp","type":"uint256"}],"internalType":"struct HealthcareSystem.MedicalRecord","name":"","type":"tuple"}],"stateMutability":"view","type":"function"},{"inputs":[],"name":"getMyAccessList","outputs":[{"internalType":"address[]","name":"","type":"address[]"}],"stateMutability":"view","type":"function"},{"inputs":[],"name":"getMyAppointmentIds","outputs":[{"internalType":"uint256[]","name":"","type":"uint256[]"}],"stateMutability":"view","type":"function"},{"inputs":[],"name":"getMyNotificationIds","outputs":[{"internalType":"uint256[]","name":"","type":"uint256[]"}],"stateMutability":"view","type":"function"},{"inputs":[],"name":"getMyPatients","outputs":[{"internalType":"address[]","name":"","type":"address[]"}],"stateMutability":"view","type":"function"},{"inputs":[],"name":"getMyRole","outputs":[{"internalType":"enum HealthcareSystem.Role","name":"","type":"uint8"}],"stateMutability":"view","type":"function"},{"inputs":[{"internalType":"address","name":"_patient","type":"address"}],"name":"getPatientAppointmentIds","outputs":[{"internalType":"uint256[]","name":"","type":"uint256[]"}],"stateMutability":"view","type":"function"},{"inputs":[{"internalType":"address","name":"_patient","type":"address"}],"name":"getPatientMedications","outputs":[{"internalType":"uint256[]","name":"","type":"uint256[]"}],"stateMutability":"view","type":"function"},{"inputs":[{"internalType":"address","name":"_patient","type":"address"}],"name":"getPatientRecordIds","outputs":[{"internalType":"uint256[]","name":"","type":"uint256[]"}],"stateMutability":"view","type":"function"},{"inputs":[],"name":"getPendingDoctors","outputs":[{"components":[{"internalType":"uint256","name":"id","type":"uint256"},{"internalType":"string","name":"name","type":"string"},{"internalType":"string","name":"specialization","type":"string"},{"internalType":"string","name":"licenseNumber","type":"string"},{"internalType":"address","name":"walletAddress","type":"address"},{"internalType":"bool","name":"isApproved","type":"bool"},{"internalType":"bool","name":"isActive","type":"bool"},{"internalType":"string","name":"metadataHash","type":"string"},{"internalType":"uint256","name":"totalPatients","type":"uint256"},{"internalType":"uint256","name":"totalAppointments","type":"uint256"},{"internalType":"uint256","name":"totalRecordsAdded","type":"uint256"},{"internalType":"uint256","name":"totalRating","type":"uint256"},{"internalType":"uint256","name":"reviewCount","type":"uint256"},{"internalType":"uint256","name":"registrationDate","type":"uint256"}],"internalType":"struct HealthcareSystem.Doctor[]","name":"","type":"tuple[]"}],"stateMutability":"view","type":"function"},{"inputs":[{"internalType":"address","name":"_patient","type":"address"},{"internalType":"address","name":"_doctor","type":"address"}],"name":"grantAccessFor","outputs":[],"stateMutability":"nonpayable","type":"function"},{"inputs":[{"internalType":"uint256","name":"","type":"uint256"}],"name":"medicalRecords","outputs":[{"internalType":"uint256","name":"id","type":"uint256"},{"internalType":"address","name":"patientAddress","type":"address"},{"internalType":"address","name":"doctorAddress","type":"address"},{"internalType":"uint256","name":"appointmentId","type":"uint256"},{"internalType":"string","name":"diagnosis","type":"string"},{"internalType":"string","name":"treatment","type":"string"},{"internalType":"string","name":"prescription","type":"string"},{"internalType":"string","name":"notes","type":"string"},{"internalType":"string","name":"metadataHash","type":"string"},{"internalType":"uint8","name":"severity","type":"uint8"},{"internalType":"uint256","name":"timestamp","type":"uint256"}],"stateMutability":"view","type":"function"},{"inputs":[],"name":"medicationCount","outputs":[{"internalType":"uint256","name":"","type":"uint256"}],"stateMutability":"view","type":"function"},{"inputs":[{"internalType":"uint256","name":"","type":"uint256"}],"name":"medications","outputs":[{"internalType":"uint256","name":"id","type":"uint256"},{"internalType":"address","name":"patientAddress","type":"address"},{"internalType":"address","name":"doctorAddress","type":"address"},{"internalType":"string","name":"name","type":"string"},{"internalType":"string","name":"dosage","type":"string"},{"internalType":"string","name":"frequency","type":"string"},{"internalType":"string","name":"duration","type":"string"},{"internalType":"bool","name":"isActive","type":"bool"},{"internalType":"uint256","name":"timestamp","type":"uint256"}],"stateMutability":"view","type":"function"},{"inputs":[],"name":"notificationCount","outputs":[{"internalType":"uint256","name":"","type":"uint256"}],"stateMutability":"view","type":"function"},{"inputs":[{"internalType":"uint256","name":"","type":"uint256"}],"name":"patientById","outputs":[{"internalType":"uint256","name":"id","type":"uint256"},{"internalType":"string","name":"name","type":"string"},{"internalType":"uint256","name":"age","type":"uint256"},{"internalType":"string","name":"bloodType","type":"string"},{"internalType":"string","name":"gender","type":"string"},{"internalType":"address","name":"walletAddress","type":"address"},{"internalType":"bool","name":"isRegistered","type":"bool"},{"internalType":"string","name":"metadataHash","type":"string"},{"internalType":"uint256","name":"totalRecords","type":"uint256"},{"internalType":"uint256","name":"totalAppointments","type":"uint256"},{"internalType":"uint256","name":"registrationDate","type":"uint256"}],"stateMutability":"view","type":"function"},{"inputs":[],"name":"patientCount","outputs":[{"internalType":"uint256","name":"","type":"uint256"}],"stateMutability":"view","type":"function"},{"inputs":[{"internalType":"address","name":"","type":"address"}],"name":"patients","outputs":[{"internalType":"uint256","name":"id","type":"uint256"},{"internalType":"string","name":"name","type":"string"},{"internalType":"uint256","name":"age","type":"uint256"},{"internalType":"string","name":"bloodType","type":"string"},{"internalType":"string","name":"gender","type":"string"},{"internalType":"address","name":"walletAddress","type":"address"},{"internalType":"bool","name":"isRegistered","type":"bool"},{"internalType":"string","name":"metadataHash","type":"string"},{"internalType":"uint256","name":"totalRecords","type":"uint256"},{"internalType":"uint256","name":"totalAppointments","type":"uint256"},{"internalType":"uint256","name":"registrationDate","type":"uint256"}],"stateMutability":"view","type":"function"},{"inputs":[],"name":"recordCount","outputs":[{"internalType":"uint256","name":"","type":"uint256"}],"stateMutability":"view","type":"function"},{"inputs":[{"internalType":"address","name":"_doctor","type":"address"},{"internalType":"string","name":"_name","type":"string"},{"internalType":"string","name":"_specialization","type":"string"},{"internalType":"string","name":"_license","type":"string"},{"internalType":"string","name":"_metadataHash","type":"string"}],"name":"registerDoctorFor","outputs":[],"stateMutability":"nonpayable","type":"function"},{"inputs":[{"internalType":"address","name":"_patient","type":"address"},{"internalType":"string","name":"_name","type":"string"},{"internalType":"uint256","name":"_age","type":"uint256"},{"internalType":"string","name":"_bloodType","type":"string"},{"internalType":"string","name":"_gender","type":"string"},{"internalType":"string","name":"_metadataHash","type":"string"}],"name":"registerPatientFor","outputs":[],"stateMutability":"nonpayable","type":"function"},{"inputs":[],"name":"reviewCount","outputs":[{"internalType":"uint256","name":"","type":"uint256"}],"stateMutability":"view","type":"function"},{"inputs":[{"internalType":"uint256","name":"","type":"uint256"}],"name":"reviews","outputs":[{"internalType":"uint256","name":"id","type":"uint256"},{"internalType":"address","name":"patientAddress","type":"address"},{"internalType":"address","name":"doctorAddress","type":"address"},{"internalType":"uint256","name":"appointmentId","type":"uint256"},{"internalType":"uint8","name":"rating","type":"uint8"},{"internalType":"string","name":"comment","type":"string"},{"internalType":"uint256","name":"timestamp","type":"uint256"}],"stateMutability":"view","type":"function"},{"inputs":[{"internalType":"address","name":"_patient","type":"address"},{"internalType":"address","name":"_doctor","type":"address"}],"name":"revokeAccessFor","outputs":[],"stateMutability":"nonpayable","type":"function"},{"inputs":[{"internalType":"address","name":"_doctor","type":"address"},{"internalType":"bool","name":"_isActive","type":"bool"}],"name":"setDoctorAvailabilityFor","outputs":[],"stateMutability":"nonpayable","type":"function"},{"inputs":[{"internalType":"address","name":"_doctor","type":"address"},{"internalType":"uint256","name":"_id","type":"uint256"}],"name":"stopMedicationFor","outputs":[],"stateMutability":"nonpayable","type":"function"},{"inputs":[{"internalType":"address","name":"_doctor","type":"address"},{"internalType":"string","name":"_metadataHash","type":"string"}],"name":"updateDoctorMetadataFor","outputs":[],"stateMutability":"nonpayable","type":"function"},{"inputs":[{"internalType":"address","name":"_patient","type":"address"},{"internalType":"string","name":"_metadataHash","type":"string"}],"name":"updatePatientMetadataFor","outputs":[],"stateMutability":"nonpayable","type":"function"},{"inputs":[{"internalType":"address","name":"","type":"address"}],"name":"userRoles","outputs":[{"internalType":"enum HealthcareSystem.Role","name":"","type":"uint8"}],"stateMutability":"view","type":"function"}],"evm":{"bytecode":{"linkReferences":{},"object":"6080806040523461004057600080546001600160a01b0319163390811782558152600860205260409020805460ff1916600117905561537a90816100468239f35b600080fdfe608080604052600436101561001357600080fd5b60003560e01c90816303536d43146144d657508063064eac8a1461436b5780630869cfbc146142ce57806312dc9013146141f457806324c86af5146140ef5780633165748c14613b4d5780633d73a69114613ae45780634320418d14613a31578063441131c91461395257806345f5e9df146138da5780635c37871a1461324c578063605734bc146130565780636160a5c214612f1a5780636248204e14612e9f57806362e1f74514612e4957806364be34f614612aed57806369eabcd514612a005780636e3b47fc146129ce57806371342f0c146129b057806374d5e1001461296e5780637564a13c1461285f57806378522bc41461284157806380b97cb61461277f57806380f6a3bc1461265e5780638654c143146125985780638d72d6701461257a578063900407bc1461255c57806395c6db5a14611e655780639878b20d14611bee57806399faaa4814611af1578063a0303c4114611ad3578063a346fa511461138b578063a9583c22146112da578063ba208d03146112af578063ba27c49d14611287578063c241cdd714610fcb578063cfdd91f914610da4578063dc561ab514610d26578063e2b1c32a14610c93578063e48b477714610ba8578063e7df7cae14610b21578063e83ddcea14610a8d578063ebc77782146109df578063eebc3fb2146109c1578063eefa49be14610418578063eff5924f146103fa578063f393fa7f1461034f578063f851a440146103265763fa8547f61461023a57600080fd5b34610321576020366003190112610321576004356000908152600f602052604090208054600182015460028301546001600160a01b0391821693911661030f6102856003840161463a565b6103016102946004860161463a565b6102f36102a36005880161463a565b916102e56102b360068a0161463a565b95600860ff60078c0154169a0154986040519c8d9c8d5260208d015260408c01526101208060608d01528b01906146e0565b9089820360808b01526146e0565b9087820360a08901526146e0565b9085820360c08701526146e0565b91151560e08401526101008301520390f35b600080fd5b34610321576000366003190112610321576000546040516001600160a01b039091168152602090f35b3461032157602036600319011261032157600435600052600b60205260406000208054906103f66103826001830161463a565b61038e6002840161463a565b9261039b6003820161463a565b946004820154906103ae6005840161463a565b6006840154600785015491600886015493600987015495600b600a890154980154986040519c8d9c8d9260ff8560a81c169560ff8660a01c169560018060a01b0316946149e6565b0390f35b34610321576000366003190112610321576020600754604051908152f35b346103215760a036600319011261032157610431614527565b61043961453d565b6044356001600160401b038111610321576104589036906004016148bc565b916064356001600160401b038111610321576104789036906004016148bc565b926084356001600160401b038111610321576104989036906004016148bc565b6000546001600160a01b0392906104b29084163314614a82565b828416600052600a6020526104d460ff60056040600020015460a01c16614c70565b828516600052600960205260046040600020015460ff8160a01c1690816109b3575b501561097957610507600354614afc565b9586600355604051966105198861458d565b808852602088019385871685526040890192868916845260608a0194855260808a015260a0890152600060c08901524260e0890152600061010089015260005260116020526040600020928751845584600185019151169060018060a01b031991828254161790558460028501925116908254161790555180519060018060401b0382116108695781906105bd826105b46003870154614553565b60038701614b21565b602090601f8311600114610907576000926108fc575b50508160011b916000199060031b1c19161760038201555b60808501518051906001600160401b03821161086957819061061d826106146004870154614553565b60048701614b21565b602090601f831160011461088a5760009261087f575b50508160011b916000199060031b1c19161760048201555b60a08501518051906001600160401b03821161086957819061067d826106746005870154614553565b60058701614b21565b602090601f83116001146107f7576000926107ec575b50508160011b916000199060031b1c19161760058201555b6006810160c086015160058110156107d6576107c5966008926101009260ff8019835416911617905560e08101516007850155015191015580821660005260126020526106ff604060002060035490614cdb565b808316600052601360205261071b604060002060035490614cdb565b808216600052600a60205260086040600020016107388154614afc565b90558082166000526014602052604060002081841660005260205260ff60406000205416156107c7575b80831691166003547f293ab1017d4dce6bbfd2f1a97155e877709f29ee393b5226fe7d731879fe8b66600080a46040519061079c826145fc565b601782527613995dc8185c1c1bda5b9d1b595b9d081c995c5d595cdd604a1b6020830152615293565b005b6107d183836151f7565b610762565b634e487b7160e01b600052602160045260246000fd5b015190508780610693565b9250600584016000526020600020906000935b601f198416851061084e576001945083601f19811610610835575b505050811b0160058201556106ab565b015160001960f88460031b161c19169055878080610825565b8181015183556020948501946001909301929091019061080a565b634e487b7160e01b600052604160045260246000fd5b015190508780610633565b9250600484016000526020600020906000935b601f19841685106108e1576001945083601f198116106108c8575b505050811b01600482015561064b565b015160001960f88460031b161c191690558780806108b8565b8181015183556020948501946001909301929091019061089d565b0151905087806105d3565b9250600384016000526020600020906000935b601f198416851061095e576001945083601f19811610610945575b505050811b0160038201556105eb565b015160001960f88460031b161c19169055878080610935565b8181015183556020948501946001909301929091019061091a565b60405162461bcd60e51b8152602060048201526012602482015271446f63746f7220756e617661696c61626c6560701b6044820152606490fd5b60ff915060a81c16876104f6565b34610321576000366003190112610321576020600354604051908152f35b34610321576040366003190112610321576109f8614527565b610a0061453d565b9060018060a01b038091610a1982600054163314614a82565b1690816000526014602052604060002092169182600052602052610a4460ff60406000205416614d46565b806000526014602052604060002082600052602052604060002060ff1981541690557f825c8be24eb0df19500f63e86c29e7d0d951e73056b889b891d85e40938d9b6e600080a3005b346103215760203660031901126103215760043560005260176020526040600020805460018060a01b0391610b17836001830154169360028301541691600381015460ff600483015416906006610ae66005850161463a565b930154946040519788978852602088015260408701526060860152608085015260e060a085015260e08401906146e0565b9060c08301520390f35b3461032157604036600319011261032157610b3a614527565b610b7e6024359160018060a01b0390610b5882600054163314614a82565b83600052600f602052604060002091806002840154169116149081610b99575b50614d10565b6000908152600f60205260409020600701805460ff19169055005b60ff9150600701541683610b78565b34610321576040366003190112610321576107c5610bc4614527565b610c3d610bcf61453d565b809260018060a01b03610be781600054163314614a82565b8082169081600052600a602052610c0b60ff60056040600020015460a01c16614c70565b83169081600052600960205260ff60046040600020015460a01c169081610c6a575b50610c389150614d10565b6151f7565b60405190610c4a826145fc565b600e82526d1058d8d95cdcc819dc985b9d195960921b6020830152615293565b90506000526014602052604060002090600052602052610c3860ff604060002054161587610c2d565b3461032157602036600319011261032157600435600052600c602052604060002080546103f6610cc56001840161463a565b91600284015493610cd86003820161463a565b91610ce56004830161463a565b906005830154610cf76006850161463a565b9160078501549360096008870154960154966040519a8b9a60ff8660a01c169560018060a01b0316948c614720565b346103215760003660031901126103215733600052602060158152604060002090604051908181845491828152019360005281600020916000905b828210610d84576103f685610d7881890382614617565b6040519182918261494d565b83546001600160a01b031686529485019460019384019390910190610d61565b3461032157610db236614991565b60005490916001600160a01b0391610dcd9083163314614a82565b1680600052602091600a8352610df060ff60056040600020015460a01c16614c70565b6000828152600a84526040902081516001600160401b0394916006019085811161086957610e2881610e228454614553565b84614b21565b8083601f8211600114610f6857600091610f5d575b508160011b916000199060031b1c19161790555b82600052600a8152604060002054600052600c81526006604060002001825194851161086957610e8b85610e858354614553565b83614b21565b81601f8611600114610eea5794806000805160206153258339815191529596600091610edf575b508160011b916000199060031b1c19161790555b610eda6040519282849384528301906146e0565b0390a2005b905084015187610eb2565b601f1986169082600052836000209160005b818110610f465750918791600080516020615325833981519152979860019410610f2d575b5050811b019055610ec6565b86015160001960f88460031b161c191690558780610f21565b91928560018192868a015181550194019201610efc565b905084015187610e3d565b60008481528581209250601f198416905b86828210610fb55750509083600194939210610f9c575b5050811b019055610e51565b86015160001960f88460031b161c191690558780610f90565b600184958293958b015181550194019201610f79565b3461032157602080600319360112610321576004356001600160401b03811161032157610ffc9036906004016148bc565b9060006001908154915b82811115611173575061101890614efc565b91600060015b8381111561103457604051806103f68782614799565b80600052600b808452604060002060048101549060ff808360a01c169283611166575b5050816110af575b50906110719291611076575b50614afc565b61101e565b8160005284526110a860406000209361109761109182614afc565b95614fc6565b6110a1828a614fb2565b5287614fb2565b508761106b565b600291500160405160008254926110c584614553565b90818452888401948960018216918260001461114657505060011461110c575b5050906110fa81611071969594930382614617565b5190208851868a01201490919261105f565b88925060005281600020906000915b8183106111305750508201016110fa826110e5565b805483860185015289939092019160010161111b565b60ff1916875292151560051b850190920192506110fa91508390506110e5565b60a81c1691508980611057565b80600052600b8452604060002060048101549060ff808360a01c16928361127a575b5050816111c6575b506111b1575b6111ac90614afc565b611006565b906111be6111ac91614afc565b9190506111a3565b6002915001604051600091818154936111de85614553565b92838352898301958a60018216918260001461125c57505060011461121b575b5061120b92500382614617565b519020855185870120148661119d565b915050600052818780600020926000935b81851061124257505061120b928201018a6111fe565b60019193508054838688010152019201918391899161122c565b60ff1916885261120b95151560051b85010192508c91506111fe9050565b60a81c1691508780611195565b34610321576000366003190112610321576103f66112a361508d565b60405191829182614912565b346103215760203660031901126103215760206112d26112cd614527565b614e61565b604051908152f35b34610321576020366003190112610321576001600160a01b03806112fc614527565b16600052600960205260406000206103f681549261131c6001840161463a565b926113296002820161463a565b946113366003830161463a565b926004830154906113496005850161463a565b600685015490600786015492600887015494600988015496600b600a8a0154990154996040519d8e9d8e9360ff8660a81c169660ff8760a01c169616946149e6565b3461032157610120366003190112610321576113a5614527565b6113ad61453d565b6044356001600160401b038111610321576113cc9036906004016148bc565b916064356001600160401b038111610321576113ec9036906004016148bc565b6084356001600160401b0381116103215761140b9036906004016148bc565b60a4356001600160401b0381116103215761142a9036906004016148bc565b60e4356001600160401b038111610321576114499036906004016148bc565b610104359160ff831683036103215760ff9361147060018060a01b03600054163314614a82565b6001600160a01b038881166000908152601460209081526040808320938b16835292905220546114a1908616614d46565b6114ac600454614afc565b9586600455604051996114be8b6145a9565b878b5260018060a01b038a1660208c015260018060a01b03891660408c015260c43560608c015260808b015260a08a015260c089015260e08801526101008701521661012085015242610140850152600052600d6020526040600020835181556001810160018060a01b036020860151169060018060a01b03199182825416179055600282019060018060a01b036040870151169082541617905560608401516003820155608084015180519060018060401b03821161086957819061158b826106146004870154614553565b602090601f8311600114611a6157600092611a56575b50508160011b916000199060031b1c19161760048201555b60a08401518051906001600160401b0382116108695781906115e2826106746005870154614553565b602090601f83116001146119e4576000926119d9575b50508160011b916000199060031b1c19161760058201555b60c08401518051906001600160401b038211610869578190611642826116396006870154614553565b60068701614b21565b602090601f83116001146119675760009261195c575b50508160011b916000199060031b1c19161760068201555b60e08401518051906001600160401b0382116108695781906116a2826116996007870154614553565b60078701614b21565b602090601f83116001146118ea576000926118df575b50508160011b916000199060031b1c19161760078201555b6101008401518051906001600160401b03821161086957611701826116f86008860154614553565b60088601614b21565b602090601f8311600114611866579582600a93610140936107c59960009261185b575b50508160011b916000199060031b1c19161760088501555b6009840160ff6101208301511660ff19825416179055015191015560018060a01b038216600052600e602052611779604060002060045490614cdb565b6001600160a01b0382166000908152600a60205260409020600701805461179f90614afc565b90556001600160a01b038116600090815260096020526040902060080180546117c790614afc565b905560c43561183f575b6004546001600160a01b03918216918316907f12475e85005299463eb3a03419e34261b32557036f16f1dbea407d5b5c0d81ed600080a460405190611815826145fc565b601882527713995dc81b59591a58d85b081c9958dbdc9908185919195960421b6020830152615293565b60045460c43560005260116020526008604060002001556117d1565b015190508980611724565b906008840160005260206000209160005b601f19851681106118c7575083610140936107c59993600193600a97601f198116106118ae575b505050811b01600885015561173c565b015160001960f88460031b161c1916905589808061189e565b91926020600181928685015181550194019201611877565b0151905086806116b8565b9250600784016000526020600020906000935b601f1984168510611941576001945083601f19811610611928575b505050811b0160078201556116d0565b015160001960f88460031b161c19169055868080611918565b818101518355602094850194600190930192909101906118fd565b015190508680611658565b9250600684016000526020600020906000935b601f19841685106119be576001945083601f198116106119a5575b505050811b016006820155611670565b015160001960f88460031b161c19169055868080611995565b8181015183556020948501946001909301929091019061197a565b0151905086806115f8565b9250600584016000526020600020906000935b601f1984168510611a3b576001945083601f19811610611a22575b505050811b016005820155611610565b015160001960f88460031b161c19169055868080611a12565b818101518355602094850194600190930192909101906119f7565b0151905086806115a1565b9250600484016000526020600020906000935b601f1984168510611ab8576001945083601f19811610611a9f575b505050811b0160048201556115b9565b015160001960f88460031b161c19169055868080611a8f565b81810151835560209485019460019093019290910190611a74565b34610321576000366003190112610321576020600254604051908152f35b3461032157600036600319011261032157611b1760018060a01b03600054163314614a82565b60006001908154915b82811115611bad5750611b3290614efc565b90600160005b82821115611b4e57604051806103f68682614799565b81600052600b60205260406000209160ff600484015460a01c1615611b7f575b611b79919250614afc565b90611b38565b611ba482611b93611091611b799592614afc565b611b9d8289614fb2565b5286614fb2565b50829150611b6e565b80600052600b60205260ff60046040600020015460a01c1615611bd9575b611bd490614afc565b611b20565b90611be6611bd491614afc565b919050611bcb565b3461032157604036600319011261032157611c0761453d565b6000610140604051611c18816145a9565b82815282602082015282604082015282606082015260606080820152606060a0820152606060c0820152606060e08201526060610100820152826101208201520152600435600052600d602052611d43604060002091600a60405193611c7d856145a9565b8054855260018101546001600160a01b039081166020870152600282015416604086015260038101546060860152611cb76004820161463a565b6080860152611cc86005820161463a565b60a0860152611cd96006820161463a565b60c0860152611cea6007820161463a565b60e0860152611cfb6008820161463a565b610100860152600981015460ff16610120860152015461014084015260208301516001600160a01b03828116911690811491908215611e37575b508115611e1e575b50614e25565b6040518091602082528051602083015260018060a01b03602082015116604083015260018060a01b036040820151166060830152606081015160808301526080810151610140611e06611da4610160938460a08801526101808701906146e0565b611def611dda611dc660a088015193601f1994858b83030160c08c01526146e0565b60c0880151848a83030160e08b01526146e0565b60e087015183898303016101008a01526146e0565b9061010086015190878303016101208801526146e0565b9260ff61012082015116828601520151908301520390f35b6000546001600160a01b03918216911614905083611d3d565b60009081526014602090815260408083206001600160a01b038516845290915290205460ff16915084611d35565b346103215760a036600319011261032157611e7e614527565b6024356001600160401b03811161032157611e9d9036906004016148bc565b6044356001600160401b03811161032157611ebc9036906004016148bc565b6064356001600160401b03811161032157611edb9036906004016148bc565b6084356001600160401b03811161032157611efa9036906004016148bc565b91611f1060018060a01b03600054163314614a82565b6001600160a01b03851660009081526008602052604090205460ff1660048110156107d657611f3f9015614abb565b611f4a600154614afc565b938460015560405194611f5c866145c5565b855260208501526040840152606083015260018060a01b0383166080830152600060a0830152600060c083015260e082015260006101008201526000610120820152600061014082015260006101608201526000610180820152426101a082015260018060a01b038216600052600960205260406000209080518255602081015192835160018060401b0381116108695761200781611ffe6001870154614553565b60018701614b21565b6020601f82116001146124ed5781929394956000926124e2575b50508160011b916000199060031b1c19161760018401555b604082015180519093906001600160401b0381116108695761206b816120626002850154614553565b60028501614b21565b6020601f8211600114612473578192939495600092612468575b50508160011b916000199060031b1c19161760028201555b606083015180519093906001600160401b038111610869576120cf816120c66003860154614553565b60038601614b21565b6020601f82116001146123f95781929394956000926123ee575b50508160011b916000199060031b1c19161760038301555b60808101516004830180546001600160a01b0319166001600160a01b039290921691909117815560a082015161213a9190151590614b75565b61214d60c0820151151560048401614d8b565b60e08101518051906001600160401b03821161086957612174826106746005870154614553565b602090601f8311600114612378579180600b94926101a09460009261236d575b50508160011b916000199060031b1c19161760058501555b6101008101516006850155610120810151600785015561014081015160088501556101608101516009850155610180810151600a850155015191015560018060a01b03811660005260096020526040600020600154600052600b6020526040600020908082036122a7575b6001600160a01b0383166000818152600860205260408120805460ff19166002179055600154907f42c036e07d862e74381ffdc8cb61d4e0846b10e0dc32dc47fbbc0815eb4cec6a9080a36000546040516107c5916001600160a01b031661227e826145fc565b60178252762732bb903237b1ba37b9103932b3b4b9ba3930ba34b7b760491b6020830152615293565b600b8181925484556122bf6001820160018601614b92565b6122cf6002820160028601614b92565b6122df6003820160038601614b92565b61231f6004850160ff6004840160018060a01b0381541660018060a01b031984541617835561231482825460a01c1684614b75565b5460a81c1690614d8b565b61232f6005820160058601614b92565b60068101546006850155600781015460078501556008810154600885015560098101546009850155600a810154600a85015501549101558180612217565b015190508780612194565b906005850160005260206000209160005b601f19851681106123d6575092600b94926001926101a09583601f198116106123bd575b505050811b0160058501556121ac565b015160001960f88460031b161c191690558780806123ad565b91926020600181928685015181550194019201612389565b0151905085806120e9565b6003840160005260206000209060005b601f1984168110612450575060019394959683601f19811610612437575b505050811b016003830155612101565b015160001960f88460031b161c19169055858080612427565b9091602060018192858b015181550193019101612409565b015190508580612085565b6002830160005260206000209060005b601f19841681106124ca575060019394959683601f198116106124b1575b505050811b01600282015561209d565b015160001960f88460031b161c191690558580806124a1565b9091602060018192858b015181550193019101612483565b015190508580612021565b6001850160005260206000209060005b601f1984168110612544575060019394959683601f1981161061252b575b505050811b016001840155612039565b015160001960f88460031b161c1916905585808061251b565b9091602060018192858b0151815501930191016124fd565b34610321576000366003190112610321576020600454604051908152f35b34610321576000366003190112610321576020600654604051908152f35b3461032157602080600319360112610321576001600160a01b036125d7816125be614527565b169182331490811561263a575b811561262c5750614e25565b60005260108152604060002090604051908181845491828152019360005281600020916000905b828210612615576103f6856112a381890382614617565b8354865294850194600193840193909101906125fe565b905060005416331484611d3d565b90508260005260148452604060002033600052845260ff60406000205416906125cb565b3461032157604036600319011261032157612677614527565b600054602435916001600160a01b03916126949083163314614a82565b8260005260116020526040600020918060018401541691160361274357600601805460ff811660058110156107d6578015908115612738575b50156127035760ff191660041790557f4b0e2b6047be1a990287b0818b6f06236be270f55a306ec58398d8b9aa7f6e73600080a2005b60405162461bcd60e51b815260206004820152600d60248201526c10d85b9b9bdd0818d85b98d95b609a1b6044820152606490fd5b6001915014846126cd565b60405162461bcd60e51b8152602060048201526014602482015273139bdd081e5bdd5c88185c1c1bda5b9d1b595b9d60621b6044820152606490fd5b3461032157604036600319011261032157612798614527565b602435908115158203610321576000546001600160a01b0391906127bf9083163314614a82565b169081600052600860205260ff604060002054169160048310156107d65760026107c5931480612823575b6127f390614de3565b6000526009602052604060002061280d8260048301614d8b565b54600052600b6020526004604060002001614d8b565b5060008181526009602052604090206004015460a01c60ff166127ea565b34610321576000366003190112610321576020600154604051908152f35b3461032157602036600319011261032157600435600052600d60205260406000208054600160a01b600190039182600182015416926002820154166003820154600483016128ac9061463a565b6128b86005850161463a565b6128c46006860161463a565b906128d16007870161463a565b926128de6008880161463a565b94600988015460ff1697600a0154966040519a8b9a8b5260208b015260408a015260608901526101608060808a01528801612918916146e0565b87810360a0890152612929916146e0565b86810360c088015261293a916146e0565b85810360e087015261294b916146e0565b84810361010086015261295d916146e0565b916101208401526101408301520390f35b34610321576020366003190112610321576001600160a01b0361298f614527565b1660005260086020526103f660ff60406000205416604051918291826149d3565b34610321576000366003190112610321576020600554604051908152f35b34610321576000366003190112610321573360005260086020526103f660ff60406000205416604051918291826149d3565b3461032157604036600319011261032157612a19614527565b600054602435916001600160a01b0391612a369083163314614a82565b826000526011602052604060002090828060028401541691161480612ad1575b906107c593612a66600193614d10565b60068201805460ff191660031790557f96f7f7d72a3fe4b137949271ceab16ab2121be2faeda69bb82794730701668ca600080a201541660405190612aaa826145fc565b6015825274105c1c1bda5b9d1b595b9d0818dbdb5c1b195d1959605a1b6020830152615293565b5060ff6006820154169060058210156107d65790600114612a56565b3461032157608036600319011261032157612b06614527565b602435906044359060ff8216809203610321576001600160401b039260643584811161032157612b3a9036906004016148bc565b60005490926001600160a01b0391612b559083163314614a82565b60018086101580612e3e575b80612e25575b612b7090614d10565b83600052602093601185526040600020978480848b015416941680941480612e0b575b612b9c90614d10565b6002612ba9600754614afc565b998a600755019685885416916040519260e0840184811083821117610869576040528b845288840196875260408401908152606084019085825260808501978c895260a0860194855260c086019d8e42905260005260178b52604060002095518655898887019151169060018060a01b0319918282541617905589600287019251169082541617905551600384015560ff600484019651169560ff199687825416179055600583019151805191821161086957612c7082612c6a8554614553565b85614b21565b8890601f8311600114612d93579180600694926000805160206153058339815191529c9d9e94600092612d88575b5050600019600383901b1c191690871b1790555b519101558387541660005260188552612cd2604060002060075490614cdb565b6000526019845260406000209182541617905580845416600052600980835280604060002001612d03878254614d7e565b905581855416600052808352600a604060002001612d218154614afc565b905581855416600052808352604060002054600052600b835280604060002001612d4c878254614d7e565b9055818554166000528252604060002054600052600b8252600a604060002001612d768154614afc565b905560075493541693604051908152a3005b015190508e80612c9e565b90601f19831691846000528a6000209260005b818110612df657509288926000805160206153058339815191529d9e9f9592836006989610612ddd575b505050811b019055612cb2565b015160001960f88460031b161c191690558e8080612dd0565b82840151855593890193928c01928c01612da6565b5060ff60068a01541660058110156107d657600314612b93565b5060008481526019602052604090205460ff1615612b67565b506005861115612b61565b3461032157604036600319011261032157612e62614527565b612e6a61453d565b9060018060a01b03809116600052601460205260406000209116600052602052602060ff604060002054166040519015158152f35b3461032157602080600319360112610321576001600160a01b03612ec5816125be614527565b600052600e8152604060002090604051908181845491828152019360005281600020916000905b828210612f03576103f6856112a381890382614617565b835486529485019460019384019390910190612eec565b346103215760208060031936011261032157612f34614527565b9060018060a01b03612f4b81600054163314614a82565b821691826000526008825260ff604060002054169260048410156107d657612f7860026107c59514614da8565b6000818152600980855260408083206004808201805461ffff60a01b191661010160a01b17905590548452600b8088528285208201805460ff60a01b1916600160a01b179055858552838852828520548552875281842001805460ff60a81b1916600160a81b179055838352908552812054907f82a9d2d26851a46f4061a14c2b6ce80f28fd47ec8cc14bc16e6d01b60b504aae9080a37f596f757220726567697374726174696f6e20686173206265656e20617070726f6040519261303d846145e1565b60248452830152637665642160e01b6040830152615293565b346103215761306436614991565b60005490916001600160a01b039161307f9083163314614a82565b16806000526020916008835260ff6040600020541660048110156107d65760026130a99114614da8565b6000828152600984526040902081516001600160401b03949160050190858111610869576130db81610e228454614553565b8083601f82116001146131e9576000916131de575b508160011b916000199060031b1c19161790555b8260005260098152604060002054600052600b8152600560406000200182519485116108695761313885610e858354614553565b81601f86116001146131855794806000805160206153258339815191529596600091610edf57508160011b916000199060031b1c1916179055610eda6040519282849384528301906146e0565b601f1986169082600052836000209160005b8181106131c75750918791600080516020615325833981519152979860019410610f2d575050811b019055610ec6565b91928560018192868a015181550194019201613197565b9050840151876130f0565b60008481528581209250601f198416905b86828210613236575050908360019493921061321d575b5050811b019055613104565b86015160001960f88460031b161c191690558780613211565b600184958293958b0151815501940192016131fa565b346103215760c036600319011261032157613265614527565b6024356001600160401b038111610321576132849036906004016148bc565b906064356001600160401b038111610321576132a49036906004016148bc565b6084356001600160401b038111610321576132c39036906004016148bc565b60a4356001600160401b038111610321576132e29036906004016148bc565b916132f860018060a01b03600054163314614a82565b6001600160a01b03841660009081526008602052604090205460ff1660048110156107d6576133279015614abb565b613332600254614afc565b948560025560405195613344876145a9565b8652602086015260443560408601526060850152608084015260018060a01b03821660a0840152600160c084015260e0830152600061010083015260006101208301524261014083015260018060a01b038116600052600a602052604060002082518155602083015192835160018060401b038111610869576133d7816133ce6001860154614553565b60018601614b21565b6020601f821160011461386b578192939495600092613860575b50508160011b916000199060031b1c19161760018301555b60408101516002830155606081015180519093906001600160401b0381116108695761343c816105b46003870154614553565b6020601f82116001146137f15781929394956000926137e6575b50508160011b916000199060031b1c19161760038401555b608082015180519093906001600160401b038111610869576134a0816134976004850154614553565b60048501614b21565b6020601f821160011461377757819293949560009261376c575b50508160011b916000199060031b1c19161760048201555b60a08301516005820180546001600160a01b0319166001600160a01b039290921691909117815560c084015161350b9190151590614b75565b60e083015180519093906001600160401b0381116108695761353d816135346006860154614553565b60068601614b21565b6020601f82116001146136f4579181610140926009946107c5986000926136e9575b50508160011b916000199060031b1c19161760068501555b61010081015160078501556101208101516008850155015191015560018060a01b038116600052600a6020526040600020600254600052600c602052604060002090808203613647575b50506001600160a01b0381166000818152600860205260408120805460ff19166003179055600254907f5eac531a816ac6546a4c3edbf9748745fe74cfd5806cd8fa8a4a01b71248bf849080a36040519061361b826145fc565b601a82527957656c636f6d6520746f204e4853204865616c7468636172652160301b6020830152615293565b600981819254845561365f6001820160018601614b92565b600281015460028501556136796003820160038601614b92565b6136896004820160048601614b92565b6136b96005850160ff6005840160018060a01b0381541660018060a01b03198454161783555460a01c1690614b75565b6136c96006820160068601614b92565b6007810154600785015560088101546008850155015491015582806135c1565b01519050888061355f565b6006840160005260206000209560005b601f19841681106137545750826107c5976009959360019361014096601f1981161061373b575b505050811b016006850155613577565b015160001960f88460031b161c1916905588808061372b565b82820151885560019097019660209283019201613704565b0151905085806134ba565b6004830160005260206000209060005b601f19841681106137ce575060019394959683601f198116106137b5575b505050811b0160048201556134d2565b015160001960f88460031b161c191690558580806137a5565b9091602060018192858b015181550193019101613787565b015190508580613456565b6003850160005260206000209060005b601f1984168110613848575060019394959683601f1981161061382f575b505050811b01600384015561346e565b015160001960f88460031b161c1916905585808061381f565b9091602060018192858b015181550193019101613801565b0151905085806133f1565b6001840160005260206000209060005b601f19841681106138c2575060019394959683601f198116106138a9575b505050811b016001830155613409565b015160001960f88460031b161c19169055858080613899565b9091602060018192858b01518155019301910161387b565b3461032157602080600319360112610321576001600160a01b036138fc614527565b1660005260188152604060002090604051908181845491828152019360005281600020916000905b82821061393b576103f6856112a381890382614617565b835486529485019460019384019390910190613924565b34610321576000366003190112610321573360005260206008815260ff6040600020541660048110156107d65760021480613a14575b806139f6575b61399790614de3565b3360005260168152604060002090604051908181845491828152019360005281600020916000905b8282106139d6576103f685610d7881890382614617565b83546001600160a01b0316865294850194600193840193909101906139bf565b5033600090815260098252604090206004015460a81c60ff1661398e565b50336000526009815260ff60046040600020015460a01c16613988565b346103215760208060031936011261032157613a4b614527565b6000546001600160a01b039190821633148015613ac2575b613a6c90614e25565b1660005260128152604060002090604051908181845491828152019360005281600020916000905b828210613aab576103f6856112a381890382614617565b835486529485019460019384019390910190613a94565b508082166000908152601484526040808220338352855290205460ff16613a63565b3461032157600036600319011261032157336000526020601a8152604060002090604051908181845491828152019360005281600020916000905b828210613b36576103f6856112a381890382614617565b835486529485019460019384019390910190613b1f565b346103215760c036600319011261032157613b66614527565b613b6e61453d565b6044356001600160401b03811161032157613b8d9036906004016148bc565b6064356001600160401b03811161032157613bac9036906004016148bc565b6084356001600160401b03811161032157613bcb9036906004016148bc565b60a4356001600160401b03811161032157613bea9036906004016148bc565b91613c0060018060a01b03600054163314614a82565b6001600160a01b038581166000908152601460209081526040808320938a1683529290522054613c329060ff16614d46565b613c3d600654614afc565b938460065560405196613c4f8861458d565b85885260018060a01b038716602089015260018060a01b031660408801526060870152608086015260a085015260c0840152600160e084015242610100840152600052600f6020526040600020825181556001810160018060a01b036020850151169060018060a01b03199182825416179055600282019060018060a01b0360408601511690825416179055606083015192835160018060401b03811161086957613d01816120c66003860154614553565b6020601f8211600114614080578192939495600092614075575b50508160011b916000199060031b1c19161760038301555b608081015180519093906001600160401b03811161086957613d5c816106146004870154614553565b6020601f8211600114614006578192939495600092613ffb575b50508160011b916000199060031b1c19161760048401555b60a082015180519093906001600160401b03811161086957613dc081613db76005850154614553565b60058501614b21565b6020601f8211600114613f8c578192939495600092613f81575b50508160011b916000199060031b1c19161760058201555b60c083015180519093906001600160401b03811161086957613e1b816135346006860154614553565b6020601f8211600114613f09579181610100926008946107c598600092613efe575b50508160011b916000199060031b1c19161760068501555b6007840160e0820151151560ff80198354169116179055015191015560018060a01b0381166000526010602052613e93604060002060065490614cdb565b6006546001600160a01b038216907f6883e960ef9dd9d3579c0269044a3b64bd7f2bd4c80ebdee27289d8610ac0cc9600080a360405190613ed3826145fc565b601982527813995dc81b59591a58d85d1a5bdb881c1c995cd8dc9a589959603a1b6020830152615293565b015190508880613e3d565b6006840160005260206000209560005b601f1984168110613f695750826107c5976008959360019361010096601f19811610613f50575b505050811b016006850155613e55565b015160001960f88460031b161c19169055888080613f40565b82820151885560019097019660209283019201613f19565b015190508580613dda565b6005830160005260206000209060005b601f1984168110613fe3575060019394959683601f19811610613fca575b505050811b016005820155613df2565b015160001960f88460031b161c19169055858080613fba565b9091602060018192858b015181550193019101613f9c565b015190508580613d76565b6004850160005260206000209060005b601f198416811061405d575060019394959683601f19811610614044575b505050811b016004840155613d8e565b015160001960f88460031b161c19169055858080614034565b9091602060018192858b015181550193019101614016565b015190508580613d1b565b6003840160005260206000209060005b601f19841681106140d7575060019394959683601f198116106140be575b505050811b016003830155613d33565b015160001960f88460031b161c191690558580806140ae565b9091602060018192858b015181550193019101614090565b346103215760003660031901126103215760006001908154915b8281111561419c575061411b90614efc565b90600160005b8282111561413757604051806103f68682614799565b81600052600b602052604060002091600483015460ff808260a01c16918261418f575b5050614172575b61416c919250614afc565b90614121565b61418682611b9361109161416c9592614afc565b50829150614161565b60a81c169050868061415a565b80600052600b60205260046040600020015460ff808260a01c1691826141e7575b50506141d2575b6141cd90614afc565b614109565b906141df6141cd91614afc565b9190506141c4565b60a81c16905084806141bd565b34610321576020366003190112610321576004356000526011602052604060002080549060018060a01b03908160018201541691600282015416916142ae61423e6003840161463a565b6142a061424d6004860161463a565b61429261425c6005880161463a565b9360ff60068901541698600860078a0154990154976040519b8c5260208c015260408b01526101208060608c01528a01906146e0565b9088820360808a01526146e0565b9086820360a08801526146e0565b9160058410156107d657849360c085015260e08401526101008301520390f35b34610321576020366003190112610321576001600160a01b03806142f0614527565b16600052600a6020526040600020906103f682546143106001850161463a565b936002810154916143236003830161463a565b906143306004840161463a565b906005840154906143436006860161463a565b9260078601549460096008880154970154976040519b8c9b60ff8760a01c169616948c614720565b34610321576020806003193601126103215760043590336000526008815260ff6040600020541660048110156107d657600214806144b9575b8061449b575b6143b390614de3565b6000828152601182526040902060028101546001600160a01b0391908216331480614481575b906107c5946143e9600193614d10565b600682018360ff19825416179055336000526009855260076040600020016144118154614afc565b90557f720fab024fd4d440e7dcf3447e0f1b7ed6524bca68ce9ce9eb93250c9cb84bbf600080a20154167f596f7572206170706f696e746d656e7420686173206265656e20617070726f7660405192614469846145e1565b602384528301526265642160e81b6040830152615293565b5060ff6006820154169060058210156107d65790156143d9565b5033600090815260098252604090206004015460a81c60ff166143aa565b50336000526009815260ff60046040600020015460a01c166143a4565b34610321576040366003190112610321576020906144f2614527565b6144fa61453d565b9060018060a01b038091166000526014845260406000209116600052825260ff6040600020541615158152f35b600435906001600160a01b038216820361032157565b602435906001600160a01b038216820361032157565b90600182811c92168015614583575b602083101461456d57565b634e487b7160e01b600052602260045260246000fd5b91607f1691614562565b61012081019081106001600160401b0382111761086957604052565b61016081019081106001600160401b0382111761086957604052565b6101c081019081106001600160401b0382111761086957604052565b606081019081106001600160401b0382111761086957604052565b604081019081106001600160401b0382111761086957604052565b601f909101601f19168101906001600160401b0382119082101761086957604052565b906040519182600082549261464e84614553565b9081845260019485811690816000146146bd575060011461467a575b505061467892500383614617565b565b9093915060005260209081600020936000915b8183106146a55750506146789350820101388061466a565b8554888401850152948501948794509183019161468d565b91505061467894506020925060ff191682840152151560051b820101388061466a565b919082519283825260005b84811061470c575050826000602080949584010152601f8019910116010190565b6020818301810151848301820152016146eb565b9793610140999c9b9a979361429291614751614764956147889a99958d5260208d61016091829101528d01906146e0565b9160408c01528a820360608c01526146e0565b6001600160a01b0390931660a0870152151560c086015284820360e08601526146e0565b956101008301526101208201520152565b602080820190808352835180925260409283810182858560051b8401019601946000925b8584106147ce575050505050505090565b909192939495968580600192603f198582030187528a51908151815261486961482d61481a61480a868601516101c080898801528601906146e0565b8a8601518582038c8701526146e0565b60608086015190858303908601526146e0565b6080878060a01b0381860151169084015260a08085015115159084015260c08085015115159084015260e08085015190848303908501526146e0565b91610100808201519083015261012080820151908301526101408082015190830152610160808201519083015261018080820151908301526101a0809101519101529901940194019295949391906147bd565b81601f82011215610321578035906001600160401b03821161086957604051926148f0601f8401601f191660200185614617565b8284526020838301011161032157816000926020809301838601378301015290565b6020908160408183019282815285518094520193019160005b828110614939575050505090565b83518552938101939281019260010161492b565b6020908160408183019282815285518094520193019160005b828110614974575050505090565b83516001600160a01b031685529381019392810192600101614966565b906040600319830112610321576004356001600160a01b03811681036103215791602435906001600160401b038211610321576149d0916004016148bc565b90565b9190602083019260048210156107d65752565b9a97936101a09c999f9e9d9a97938c614a2691614a18614a5f9a96614a349684526101c08060208601528401906146e0565b9160408184039101526146e0565b8c810360608e0152906146e0565b6001600160a01b0390941660808b0152151560a08a0152151560c089015287820360e08901526146e0565b986101008601526101208501526101408401526101608301526101808201520152565b15614a8957565b60405162461bcd60e51b815260206004820152600a60248201526927b7363c9030b236b4b760b11b6044820152606490fd5b15614ac257565b60405162461bcd60e51b8152602060048201526012602482015271105b1c9958591e481c9959da5cdd195c995960721b6044820152606490fd5b6000198114614b0b5760010190565b634e487b7160e01b600052601160045260246000fd5b90601f8111614b2f57505050565b600091825260208220906020601f850160051c83019410614b6b575b601f0160051c01915b828110614b6057505050565b818155600101614b54565b9092508290614b4b565b805460ff60a01b191691151560a01b60ff60a01b16919091179055565b90808214614c6c57614ba48154614553565b906001600160401b038211610869578190614bc982614bc38654614553565b86614b21565b600090601f8311600114614c0057600092614bf5575b50508160011b916000199060031b1c1916179055565b015490503880614bdf565b81526020808220858352818320935090601f1985169083905b828210614c53575050908460019594939210614c3a575b505050811b019055565b015460001960f88460031b161c19169055388080614c30565b8495819295850154815560018091019601940190614c19565b5050565b15614c7757565b60405162461bcd60e51b815260206004820152600e60248201526d139bdd081c9959da5cdd195c995960921b6044820152606490fd5b8054821015614cc55760005260206000200190600090565b634e487b7160e01b600052603260045260246000fd5b8054600160401b81101561086957614cf891600182018155614cad565b819291549060031b91821b91600019901b1916179055565b15614d1757565b60405162461bcd60e51b8152602060048201526007602482015266125b9d985b1a5960ca1b6044820152606490fd5b15614d4d57565b60405162461bcd60e51b81526020600482015260096024820152684e6f2061636365737360b81b6044820152606490fd5b91908201809211614b0b57565b805460ff60a81b191691151560a81b60ff60a81b16919091179055565b15614daf57565b60405162461bcd60e51b815260206004820152600c60248201526b2737ba1030903237b1ba37b960a11b6044820152606490fd5b15614dea57565b60405162461bcd60e51b81526020600482015260136024820152722737ba1030b8383937bb32b2103237b1ba37b960691b6044820152606490fd5b15614e2c57565b60405162461bcd60e51b815260206004820152600d60248201526c2737903832b936b4b9b9b4b7b760991b6044820152606490fd5b6001600160a01b03166000818152600960205260408120600a81015491929115614ee0576009015490606482029180830460641490151715614ecc5782526009602052600a604083200154918215614eb857500490565b634e487b7160e01b81526012600452602490fd5b634e487b7160e01b83526011600452602483fd5b505090565b6001600160401b0381116108695760051b60200190565b90614f0682614ee5565b604090614f1582519182614617565b8381528093614f26601f1991614ee5565b019160005b838110614f385750505050565b6020908251614f46816145c5565b600081526060839080828401528086840152808084015260006080840152600060a0840152600060c084015260e08301526000610100830152600061012083015260006101408301526000610160830152600061018083015260006101a0830152828601015201614f2b565b8051821015614cc55760209160051b010190565b90604051614fd3816145c5565b6101a0600b829480548452614fea6001820161463a565b6020850152614ffb6002820161463a565b604085015261500c6003820161463a565b606085015260ff600482015460018060a01b0381166080870152818160a01c16151560a087015260a81c16151560c085015261504a6005820161463a565b60e08501526006810154610100850152600781015461012085015260088101546101408501526009810154610160850152600a8101546101808501520154910152565b60003381526020906008825260409060ff828220541660048110156151565760031461516a573381526008835260ff828220541660048110156151565760021461510457815162461bcd60e51b815260048101849052600c60248201526b496e76616c696420726f6c6560a01b6044820152606490fd5b3381526013835281812091518254808252928252838220909390928492838301925b82821061513c575050506149d092500382614617565b855484526001958601958795509381019390910190615126565b634e487b7160e01b82526021600452602482fd5b3381526012835281812091518254808252928252838220909390928492838301925b8282106151a2575050506149d092500382614617565b85548452600195860195879550938101939091019061518c565b8054600160401b811015610869576151d991600182018155614cad565b819291549060031b9160018060a01b03809116831b921b1916179055565b7f9f520b3bfc56d06f7065d10b4683b3f57ac8895d5026cd176dee95ce1454cb8d60018060a01b0392615274848416936152636000938685526014602052604085209781169788865260205260408520600160ff198254161790558685526015602052604085206151bc565b8583526016602052604083206151bc565b83815260096020526006604082200161528d8154614afc565b905580a3565b906152c36152a2600554614afc565b928360055560018060a01b03169283600052601a6020526040600020614cdb565b7f1d268a9e5adc5fdefd5d31825d22e4f472c2458e8ad5ed87587d9edccfc348f46152ff600554926040519182916020835260208301906146e0565b0390a356fecd105d6c08f27f681ab198bd63b5f4b32ce4977facd0909acb589cf2c82668722013570c343af8ab14a9778150e381a0fda34ed6368127a95fd5e7210cbec5bfa2646970667358221220ac0b05cbc7b34d636a3a8994259beb268fb00f072aeaef4cd80fde059760ba4b64736f6c63430008140033","opcodes":"PUSH1 0x80 DUP1 PUSH1 0x40 MSTORE CALLVALUE PUSH2 0x40 JUMPI PUSH1 0x0 DUP1 SLOAD PUSH1 0x1 PUSH1 0x1 PUSH1 0xA0 SHL SUB NOT AND CALLER SWAP1 DUP2 OR DUP3 SSTORE DUP2 MSTORE PUSH1 0x8 PUSH1 0x20 MSTORE PUSH1 0x40 SWAP1 KECCAK256 DUP1 SLOAD PUSH1 0xFF NOT AND PUSH1 0x1 OR SWAP1 SSTORE PUSH2 0x537A SWAP1 DUP2 PUSH2 0x46 DUP3 CODECOPY RETURN JUMPDEST PUSH1 0x0 DUP1 REVERT INVALID PUSH1 0x80 DUP1 PUSH1 0x40 MSTORE PUSH1 0x4 CALLDATASIZE LT ISZERO PUSH2 0x13 JUMPI PUSH1 0x0 DUP1 REVERT JUMPDEST PUSH1 0x0 CALLDATALOAD PUSH1 0xE0 SHR SWAP1 DUP2 PUSH4 0x3536D43 EQ PUSH2 0x44D6 JUMPI POP DUP1 PUSH4 0x64EAC8A EQ PUSH2 0x436B JUMPI DUP1 PUSH4 0x869CFBC EQ PUSH2 0x42CE JUMPI DUP1 PUSH4 0x12DC9013 EQ PUSH2 0x41F4 JUMPI DUP1 PUSH4 0x24C86AF5 EQ PUSH2 0x40EF JUMPI DUP1 PUSH4 0x3165748C EQ PUSH2 0x3B4D JUMPI DUP1 PUSH4 0x3D73A691 EQ PUSH2 0x3AE4 JUMPI DUP1 PUSH4 0x4320418D EQ PUSH2 0x3A31 JUMPI DUP1 PUSH4 0x441131C9 EQ PUSH2 0x3952 JUMPI DUP1 PUSH4 0x45F5E9DF EQ PUSH2 0x38DA JUMPI DUP1 PUSH4 0x5C37871A EQ PUSH2 0x324C JUMPI DUP1 PUSH4 0x605734BC EQ PUSH2 0x3056 JUMPI DUP1 PUSH4 0x6160A5C2 EQ PUSH2 0x2F1A JUMPI DUP1 PUSH4 0x6248204E EQ PUSH2 0x2E9F JUMPI DUP1 PUSH4 0x62E1F745 EQ PUSH2 0x2E49 JUMPI DUP1 PUSH4 0x64BE34F6 EQ PUSH2 0x2AED JUMPI DUP1 PUSH4 0x69EABCD5 EQ PUSH2 0x2A00 JUMPI DUP1 PUSH4 0x6E3B47FC EQ PUSH2 0x29CE JUMPI DUP1 PUSH4 0x71342F0C EQ PUSH2 0x29B0 JUMPI DUP1 PUSH4 0x74D5E100 EQ PUSH2 0x296E JUMPI DUP1 PUSH4 0x7564A13C EQ PUSH2 0x285F JUMPI DUP1 PUSH4 0x78522BC4 EQ PUSH2 0x2841 JUMPI DUP1 PUSH4 0x80B97CB6 EQ PUSH2 0x277F JUMPI DUP1 PUSH4 0x80F6A3BC EQ PUSH2 0x265E JUMPI DUP1 PUSH4 0x8654C143 EQ PUSH2 0x2598 JUMPI DUP1 PUSH4 0x8D72D670 EQ PUSH2 0x257A JUMPI DUP1 PUSH4 0x900407BC EQ PUSH2 0x255C JUMPI DUP1 PUSH4 0x95C6DB5A EQ PUSH2 0x1E65 JUMPI DUP1 PUSH4 0x9878B20D EQ PUSH2 0x1BEE JUMPI DUP1 PUSH4 0x99FAAA48 EQ PUSH2 0x1AF1 JUMPI DUP1 PUSH4 0xA0303C41 EQ PUSH2 0x1AD3 JUMPI DUP1 PUSH4 0xA346FA51 EQ PUSH2 0x138B JUMPI DUP1 PUSH4 0xA9583C22 EQ PUSH2 0x12DA JUMPI DUP1 PUSH4 0xBA208D03 EQ PUSH2 0x12AF JUMPI DUP1 PUSH4 0xBA27C49D EQ PUSH2 0x1287 JUMPI DUP1 PUSH4 0xC241CDD7 EQ PUSH2 0xFCB JUMPI DUP1 PUSH4 0xCFDD91F9 EQ PUSH2 0xDA4 JUMPI DUP1 PUSH4 0xDC561AB5 EQ PUSH2 0xD26 JUMPI DUP1 PUSH4 0xE2B1C32A EQ PUSH2 0xC93 JUMPI DUP1 PUSH4 0xE48B4777 EQ PUSH2 0xBA8 JUMPI DUP1 PUSH4 0xE7DF7CAE EQ PUSH2 0xB21 JUMPI DUP1 PUSH4 0xE83DDCEA EQ PUSH2 0xA8D JUMPI DUP1 PUSH4 0xEBC77782 EQ PUSH2 0x9DF JUMPI DUP1 PUSH4 0xEEBC3FB2 EQ PUSH2 0x9C1 JUMPI DUP1 PUSH4 0xEEFA49BE EQ PUSH2 0x418 JUMPI DUP1 PUSH4 0xEFF5924F EQ PUSH2 0x3FA JUMPI DUP1 PUSH4 0xF393FA7F EQ PUSH2 0x34F JUMPI DUP1 PUSH4 0xF851A440 EQ PUSH2 0x326 JUMPI PUSH4 0xFA8547F6 EQ PUSH2 0x23A JUMPI PUSH1 0x0 DUP1 REVERT JUMPDEST CALLVALUE PUSH2 0x321 JUMPI PUSH1 0x20 CALLDATASIZE PUSH1 0x3 NOT ADD SLT PUSH2 0x321 JUMPI PUSH1 0x4 CALLDATALOAD PUSH1 0x0 SWAP1 DUP2 MSTORE PUSH1 0xF PUSH1 0x20 MSTORE PUSH1 0x40 SWAP1 KECCAK256 DUP1 SLOAD PUSH1 0x1 DUP3 ADD SLOAD PUSH1 0x2 DUP4 ADD SLOAD PUSH1 0x1 PUSH1 0x1 PUSH1 0xA0 SHL SUB SWAP2 DUP3 AND SWAP4 SWAP2 AND PUSH2 0x30F PUSH2 0x285 PUSH1 0x3 DUP5 ADD PUSH2 0x463A JUMP JUMPDEST PUSH2 0x301 PUSH2 0x294 PUSH1 0x4 DUP7 ADD PUSH2 0x463A JUMP JUMPDEST PUSH2 0x2F3 PUSH2 0x2A3 PUSH1 0x5 DUP9 ADD PUSH2 0x463A JUMP JUMPDEST SWAP2 PUSH2 0x2E5 PUSH2 0x2B3 PUSH1 0x6 DUP11 ADD PUSH2 0x463A JUMP JUMPDEST SWAP6 PUSH1 0x8 PUSH1 0xFF PUSH1 0x7 DUP13 ADD SLOAD AND SWAP11 ADD SLOAD SWAP9 PUSH1 0x40 MLOAD SWAP13 DUP14 SWAP13 DUP14 MSTORE PUSH1 0x20 DUP14 ADD MSTORE PUSH1 0x40 DUP13 ADD MSTORE PUSH2 0x120 DUP1 PUSH1 0x60 DUP14 ADD MSTORE DUP12 ADD SWAP1 PUSH2 0x46E0 JUMP JUMPDEST SWAP1 DUP10 DUP3 SUB PUSH1 0x80 DUP12 ADD MSTORE PUSH2 0x46E0 JUMP JUMPDEST SWAP1 DUP8 DUP3 SUB PUSH1 0xA0 DUP10 ADD MSTORE PUSH2 0x46E0 JUMP JUMPDEST SWAP1 DUP6 DUP3 SUB PUSH1 0xC0 DUP8 ADD MSTORE PUSH2 0x46E0 JUMP JUMPDEST SWAP2 ISZERO ISZERO PUSH1 0xE0 DUP5 ADD MSTORE PUSH2 0x100 DUP4 ADD MSTORE SUB SWAP1 RETURN JUMPDEST PUSH1 0x0 DUP1 REVERT JUMPDEST CALLVALUE PUSH2 0x321 JUMPI PUSH1 0x0 CALLDATASIZE PUSH1 0x3 NOT ADD SLT PUSH2 0x321 JUMPI PUSH1 0x0 SLOAD PUSH1 0x40 MLOAD PUSH1 0x1 PUSH1 0x1 PUSH1 0xA0 SHL SUB SWAP1 SWAP2 AND DUP2 MSTORE PUSH1 0x20 SWAP1 RETURN JUMPDEST CALLVALUE PUSH2 0x321 JUMPI PUSH1 0x20 CALLDATASIZE PUSH1 0x3 NOT ADD SLT PUSH2 0x321 JUMPI PUSH1 0x4 CALLDATALOAD PUSH1 0x0 MSTORE PUSH1 0xB PUSH1 0x20 MSTORE PUSH1 0x40 PUSH1 0x0 KECCAK256 DUP1 SLOAD SWAP1 PUSH2 0x3F6 PUSH2 0x382 PUSH1 0x1 DUP4 ADD PUSH2 0x463A JUMP JUMPDEST PUSH2 0x38E PUSH1 0x2 DUP5 ADD PUSH2 0x463A JUMP JUMPDEST SWAP3 PUSH2 0x39B PUSH1 0x3 DUP3 ADD PUSH2 0x463A JUMP JUMPDEST SWAP5 PUSH1 0x4 DUP3 ADD SLOAD SWAP1 PUSH2 0x3AE PUSH1 0x5 DUP5 ADD PUSH2 0x463A JUMP JUMPDEST PUSH1 0x6 DUP5 ADD SLOAD PUSH1 0x7 DUP6 ADD SLOAD SWAP2 PUSH1 0x8 DUP7 ADD SLOAD SWAP4 PUSH1 0x9 DUP8 ADD SLOAD SWAP6 PUSH1 0xB PUSH1 0xA DUP10 ADD SLOAD SWAP9 ADD SLOAD SWAP9 PUSH1 0x40 MLOAD SWAP13 DUP14 SWAP13 DUP14 SWAP3 PUSH1 0xFF DUP6 PUSH1 0xA8 SHR AND SWAP6 PUSH1 0xFF DUP7 PUSH1 0xA0 SHR AND SWAP6 PUSH1 0x1 DUP1 PUSH1 0xA0 SHL SUB AND SWAP5 PUSH2 0x49E6 JUMP JUMPDEST SUB SWAP1 RETURN JUMPDEST CALLVALUE PUSH2 0x321 JUMPI PUSH1 0x0 CALLDATASIZE PUSH1 0x3 NOT ADD SLT PUSH2 0x321 JUMPI PUSH1 0x20 PUSH1 0x7 SLOAD PUSH1 0x40 MLOAD SWAP1 DUP2 MSTORE RETURN JUMPDEST CALLVALUE PUSH2 0x321 JUMPI PUSH1 0xA0 CALLDATASIZE PUSH1 0x3 NOT ADD SLT PUSH2 0x321 JUMPI PUSH2 0x431 PUSH2 0x4527 JUMP JUMPDEST PUSH2 0x439 PUSH2 0x453D JUMP JUMPDEST PUSH1 0x44 CALLDATALOAD PUSH1 0x1 PUSH1 0x1 PUSH1 0x40 SHL SUB DUP2 GT PUSH2 0x321 JUMPI PUSH2 0x458 SWAP1 CALLDATASIZE SWAP1 PUSH1 0x4 ADD PUSH2 0x48BC JUMP JUMPDEST SWAP2 PUSH1 0x64 CALLDATALOAD PUSH1 0x1 PUSH1 0x1 PUSH1 0x40 SHL SUB DUP2 GT PUSH2 0x321 JUMPI PUSH2 0x478 SWAP1 CALLDATASIZE SWAP1 PUSH1 0x4 ADD PUSH2 0x48BC JUMP JUMPDEST SWAP3 PUSH1 0x84 CALLDATALOAD PUSH1 0x1 PUSH1 0x1 PUSH1 0x40 SHL SUB DUP2 GT PUSH2 0x321 JUMPI PUSH2 0x498 SWAP1 CALLDATASIZE SWAP1 PUSH1 0x4 ADD PUSH2 0x48BC JUMP JUMPDEST PUSH1 0x0 SLOAD PUSH1 0x1 PUSH1 0x1 PUSH1 0xA0 SHL SUB SWAP3 SWAP1 PUSH2 0x4B2 SWAP1 DUP5 AND CALLER EQ PUSH2 0x4A82 JUMP JUMPDEST DUP3 DUP5 AND PUSH1 0x0 MSTORE PUSH1 0xA PUSH1 0x20 MSTORE PUSH2 0x4D4 PUSH1 0xFF PUSH1 0x5 PUSH1 0x40 PUSH1 0x0 KECCAK256 ADD SLOAD PUSH1 0xA0 SHR AND PUSH2 0x4C70 JUMP JUMPDEST DUP3 DUP6 AND PUSH1 0x0 MSTORE PUSH1 0x9 PUSH1 0x20 MSTORE PUSH1 0x4 PUSH1 0x40 PUSH1 0x0 KECCAK256 ADD SLOAD PUSH1 0xFF DUP2 PUSH1 0xA0 SHR AND SWAP1 DUP2 PUSH2 0x9B3 JUMPI JUMPDEST POP ISZERO PUSH2 0x979 JUMPI PUSH2 0x507 PUSH1 0x3 SLOAD PUSH2 0x4AFC JUMP JUMPDEST SWAP6 DUP7 PUSH1 0x3 SSTORE PUSH1 0x40 MLOAD SWAP7 PUSH2 0x519 DUP9 PUSH2 0x458D JUMP JUMPDEST DUP1 DUP9 MSTORE PUSH1 0x20 DUP9 ADD SWAP4 DUP6 DUP8 AND DUP6 MSTORE PUSH1 0x40 DUP10 ADD SWAP3 DUP7 DUP10 AND DUP5 MSTORE PUSH1 0x60 DUP11 ADD SWAP5 DUP6 MSTORE PUSH1 0x80 DUP11 ADD MSTORE PUSH1 0xA0 DUP10 ADD MSTORE PUSH1 0x0 PUSH1 0xC0 DUP10 ADD MSTORE TIMESTAMP PUSH1 0xE0 DUP10 ADD MSTORE PUSH1 0x0 PUSH2 0x100 DUP10 ADD MSTORE PUSH1 0x0 MSTORE PUSH1 0x11 PUSH1 0x20 MSTORE PUSH1 0x40 PUSH1 0x0 KECCAK256 SWAP3 DUP8 MLOAD DUP5 SSTORE DUP5 PUSH1 0x1 DUP6 ADD SWAP2 MLOAD AND SWAP1 PUSH1 0x1 DUP1 PUSH1 0xA0 SHL SUB NOT SWAP2 DUP3 DUP3 SLOAD AND OR SWAP1 SSTORE DUP5 PUSH1 0x2 DUP6 ADD SWAP3 MLOAD AND SWAP1 DUP3 SLOAD AND OR SWAP1 SSTORE MLOAD DUP1 MLOAD SWAP1 PUSH1 0x1 DUP1 PUSH1 0x40 SHL SUB DUP3 GT PUSH2 0x869 JUMPI DUP2 SWAP1 PUSH2 0x5BD DUP3 PUSH2 0x5B4 PUSH1 0x3 DUP8 ADD SLOAD PUSH2 0x4553 JUMP JUMPDEST PUSH1 0x3 DUP8 ADD PUSH2 0x4B21 JUMP JUMPDEST PUSH1 0x20 SWAP1 PUSH1 0x1F DUP4 GT PUSH1 0x1 EQ PUSH2 0x907 JUMPI PUSH1 0x0 SWAP3 PUSH2 0x8FC JUMPI JUMPDEST POP POP DUP2 PUSH1 0x1 SHL SWAP2 PUSH1 0x0 NOT SWAP1 PUSH1 0x3 SHL SHR NOT AND OR PUSH1 0x3 DUP3 ADD SSTORE JUMPDEST PUSH1 0x80 DUP6 ADD MLOAD DUP1 MLOAD SWAP1 PUSH1 0x1 PUSH1 0x1 PUSH1 0x40 SHL SUB DUP3 GT PUSH2 0x869 JUMPI DUP2 SWAP1 PUSH2 0x61D DUP3 PUSH2 0x614 PUSH1 0x4 DUP8 ADD SLOAD PUSH2 0x4553 JUMP JUMPDEST PUSH1 0x4 DUP8 ADD PUSH2 0x4B21 JUMP JUMPDEST PUSH1 0x20 SWAP1 PUSH1 0x1F DUP4 GT PUSH1 0x1 EQ PUSH2 0x88A JUMPI PUSH1 0x0 SWAP3 PUSH2 0x87F JUMPI JUMPDEST POP POP DUP2 PUSH1 0x1 SHL SWAP2 PUSH1 0x0 NOT SWAP1 PUSH1 0x3 SHL SHR NOT AND OR PUSH1 0x4 DUP3 ADD SSTORE JUMPDEST PUSH1 0xA0 DUP6 ADD MLOAD DUP1 MLOAD SWAP1 PUSH1 0x1 PUSH1 0x1 PUSH1 0x40 SHL SUB DUP3 GT PUSH2 0x869 JUMPI DUP2 SWAP1 PUSH2 0x67D DUP3 PUSH2 0x674 PUSH1 0x5 DUP8 ADD SLOAD PUSH2 0x4553 JUMP JUMPDEST PUSH1 0x5 DUP8 ADD PUSH2 0x4B21 JUMP JUMPDEST PUSH1 0x20 SWAP1 PUSH1 0x1F DUP4 GT PUSH1 0x1 EQ PUSH2 0x7F7 JUMPI PUSH1 0x0 SWAP3 PUSH2 0x7EC JUMPI JUMPDEST POP POP DUP2 PUSH1 0x1 SHL SWAP2 PUSH1 0x0 NOT SWAP1 PUSH1 0x3 SHL SHR NOT AND OR PUSH1 0x5 DUP3 ADD SSTORE JUMPDEST PUSH1 0x6 DUP2 ADD PUSH1 0xC0 DUP7 ADD MLOAD PUSH1 0x5 DUP2 LT ISZERO PUSH2 0x7D6 JUMPI PUSH2 0x7C5 SWAP7 PUSH1 0x8 SWAP3 PUSH2 0x100 SWAP3 PUSH1 0xFF DUP1 NOT DUP4 SLOAD AND SWAP2 AND OR SWAP1 SSTORE PUSH1 0xE0 DUP2 ADD MLOAD PUSH1 0x7 DUP6 ADD SSTORE ADD MLOAD SWAP2 ADD SSTORE DUP1 DUP3 AND PUSH1 0x0 MSTORE PUSH1 0x12 PUSH1 0x20 MSTORE PUSH2 0x6FF PUSH1 0x40 PUSH1 0x0 KECCAK256 PUSH1 0x3 SLOAD SWAP1 PUSH2 0x4CDB JUMP JUMPDEST DUP1 DUP4 AND PUSH1 0x0 MSTORE PUSH1 0x13 PUSH1 0x20 MSTORE PUSH2 0x71B PUSH1 0x40 PUSH1 0x0 KECCAK256 PUSH1 0x3 SLOAD SWAP1 PUSH2 0x4CDB JUMP JUMPDEST DUP1 DUP3 AND PUSH1 0x0 MSTORE PUSH1 0xA PUSH1 0x20 MSTORE PUSH1 0x8 PUSH1 0x40 PUSH1 0x0 KECCAK256 ADD PUSH2 0x738 DUP2 SLOAD PUSH2 0x4AFC JUMP JUMPDEST SWAP1 SSTORE DUP1 DUP3 AND PUSH1 0x0 MSTORE PUSH1 0x14 PUSH1 0x20 MSTORE PUSH1 0x40 PUSH1 0x0 KECCAK256 DUP2 DUP5 AND PUSH1 0x0 MSTORE PUSH1 0x20 MSTORE PUSH1 0xFF PUSH1 0x40 PUSH1 0x0 KECCAK256 SLOAD AND ISZERO PUSH2 0x7C7 JUMPI JUMPDEST DUP1 DUP4 AND SWAP2 AND PUSH1 0x3 SLOAD PUSH32 0x293AB1017D4DCE6BBFD2F1A97155E877709F29EE393B5226FE7D731879FE8B66 PUSH1 0x0 DUP1 LOG4 PUSH1 0x40 MLOAD SWAP1 PUSH2 0x79C DUP3 PUSH2 0x45FC JUMP JUMPDEST PUSH1 0x17 DUP3 MSTORE PUSH23 0x13995DC8185C1C1BDA5B9D1B595B9D081C995C5D595CDD PUSH1 0x4A SHL PUSH1 0x20 DUP4 ADD MSTORE PUSH2 0x5293 JUMP JUMPDEST STOP JUMPDEST PUSH2 0x7D1 DUP4 DUP4 PUSH2 0x51F7 JUMP JUMPDEST PUSH2 0x762 JUMP JUMPDEST PUSH4 0x4E487B71 PUSH1 0xE0 SHL PUSH1 0x0 MSTORE PUSH1 0x21 PUSH1 0x4 MSTORE PUSH1 0x24 PUSH1 0x0 REVERT JUMPDEST ADD MLOAD SWAP1 POP DUP8 DUP1 PUSH2 0x693 JUMP JUMPDEST SWAP3 POP PUSH1 0x5 DUP5 ADD PUSH1 0x0 MSTORE PUSH1 0x20 PUSH1 0x0 KECCAK256 SWAP1 PUSH1 0x0 SWAP4 JUMPDEST PUSH1 0x1F NOT DUP5 AND DUP6 LT PUSH2 0x84E JUMPI PUSH1 0x1 SWAP5 POP DUP4 PUSH1 0x1F NOT DUP2 AND LT PUSH2 0x835 JUMPI JUMPDEST POP POP POP DUP2 SHL ADD PUSH1 0x5 DUP3 ADD SSTORE PUSH2 0x6AB JUMP JUMPDEST ADD MLOAD PUSH1 0x0 NOT PUSH1 0xF8 DUP5 PUSH1 0x3 SHL AND SHR NOT AND SWAP1 SSTORE DUP8 DUP1 DUP1 PUSH2 0x825 JUMP JUMPDEST DUP2 DUP2 ADD MLOAD DUP4 SSTORE PUSH1 0x20 SWAP5 DUP6 ADD SWAP5 PUSH1 0x1 SWAP1 SWAP4 ADD SWAP3 SWAP1 SWAP2 ADD SWAP1 PUSH2 0x80A JUMP JUMPDEST PUSH4 0x4E487B71 PUSH1 0xE0 SHL PUSH1 0x0 MSTORE PUSH1 0x41 PUSH1 0x4 MSTORE PUSH1 0x24 PUSH1 0x0 REVERT JUMPDEST ADD MLOAD SWAP1 POP DUP8 DUP1 PUSH2 0x633 JUMP JUMPDEST SWAP3 POP PUSH1 0x4 DUP5 ADD PUSH1 0x0 MSTORE PUSH1 0x20 PUSH1 0x0 KECCAK256 SWAP1 PUSH1 0x0 SWAP4 JUMPDEST PUSH1 0x1F NOT DUP5 AND DUP6 LT PUSH2 0x8E1 JUMPI PUSH1 0x1 SWAP5 POP DUP4 PUSH1 0x1F NOT DUP2 AND LT PUSH2 0x8C8 JUMPI JUMPDEST POP POP POP DUP2 SHL ADD PUSH1 0x4 DUP3 ADD SSTORE PUSH2 0x64B JUMP JUMPDEST ADD MLOAD PUSH1 0x0 NOT PUSH1 0xF8 DUP5 PUSH1 0x3 SHL AND SHR NOT AND SWAP1 SSTORE DUP8 DUP1 DUP1 PUSH2 0x8B8 JUMP JUMPDEST DUP2 DUP2 ADD MLOAD DUP4 SSTORE PUSH1 0x20 SWAP5 DUP6 ADD SWAP5 PUSH1 0x1 SWAP1 SWAP4 ADD SWAP3 SWAP1 SWAP2 ADD SWAP1 PUSH2 0x89D JUMP JUMPDEST ADD MLOAD SWAP1 POP DUP8 DUP1 PUSH2 0x5D3 JUMP JUMPDEST SWAP3 POP PUSH1 0x3 DUP5 ADD PUSH1 0x0 MSTORE PUSH1 0x20 PUSH1 0x0 KECCAK256 SWAP1 PUSH1 0x0 SWAP4 JUMPDEST PUSH1 0x1F NOT DUP5 AND DUP6 LT PUSH2 0x95E JUMPI PUSH1 0x1 SWAP5 POP DUP4 PUSH1 0x1F NOT DUP2 AND LT PUSH2 0x945 JUMPI JUMPDEST POP POP POP DUP2 SHL ADD PUSH1 0x3 DUP3 ADD SSTORE PUSH2 0x5EB JUMP JUMPDEST ADD MLOAD PUSH1 0x0 NOT PUSH1 0xF8 DUP5 PUSH1 0x3 SHL AND SHR NOT AND SWAP1 SSTORE DUP8 DUP1 DUP1 PUSH2 0x935 JUMP JUMPDEST DUP2 DUP2 ADD MLOAD DUP4 SSTORE PUSH1 0x20 SWAP5 DUP6 ADD SWAP5 PUSH1 0x1 SWAP1 SWAP4 ADD SWAP3 SWAP1 SWAP2 ADD SWAP1 PUSH2 0x91A JUMP JUMPDEST PUSH1 0x40 MLOAD PUSH3 0x461BCD PUSH1 0xE5 SHL DUP2 MSTORE PUSH1 0x20 PUSH1 0x4 DUP3 ADD MSTORE PUSH1 0x12 PUSH1 0x24 DUP3 ADD MSTORE PUSH18 0x446F63746F7220756E617661696C61626C65 PUSH1 0x70 SHL PUSH1 0x44 DUP3 ADD MSTORE PUSH1 0x64 SWAP1 REVERT JUMPDEST PUSH1 0xFF SWAP2 POP PUSH1 0xA8 SHR AND DUP8 PUSH2 0x4F6 JUMP JUMPDEST CALLVALUE PUSH2 0x321 JUMPI PUSH1 0x0 CALLDATASIZE PUSH1 0x3 NOT ADD SLT PUSH2 0x321 JUMPI PUSH1 0x20 PUSH1 0x3 SLOAD PUSH1 0x40 MLOAD SWAP1 DUP2 MSTORE RETURN JUMPDEST CALLVALUE PUSH2 0x321 JUMPI PUSH1 0x40 CALLDATASIZE PUSH1 0x3 NOT ADD SLT PUSH2 0x321 JUMPI PUSH2 0x9F8 PUSH2 0x4527 JUMP JUMPDEST PUSH2 0xA00 PUSH2 0x453D JUMP JUMPDEST SWAP1 PUSH1 0x1 DUP1 PUSH1 0xA0 SHL SUB DUP1 SWAP2 PUSH2 0xA19 DUP3 PUSH1 0x0 SLOAD AND CALLER EQ PUSH2 0x4A82 JUMP JUMPDEST AND SWAP1 DUP2 PUSH1 0x0 MSTORE PUSH1 0x14 PUSH1 0x20 MSTORE PUSH1 0x40 PUSH1 0x0 KECCAK256 SWAP3 AND SWAP2 DUP3 PUSH1 0x0 MSTORE PUSH1 0x20 MSTORE PUSH2 0xA44 PUSH1 0xFF PUSH1 0x40 PUSH1 0x0 KECCAK256 SLOAD AND PUSH2 0x4D46 JUMP JUMPDEST DUP1 PUSH1 0x0 MSTORE PUSH1 0x14 PUSH1 0x20 MSTORE PUSH1 0x40 PUSH1 0x0 KECCAK256 DUP3 PUSH1 0x0 MSTORE PUSH1 0x20 MSTORE PUSH1 0x40 PUSH1 0x0 KECCAK256 PUSH1 0xFF NOT DUP2 SLOAD AND SWAP1 SSTORE PUSH32 0x825C8BE24EB0DF19500F63E86C29E7D0D951E73056B889B891D85E40938D9B6E PUSH1 0x0 DUP1 LOG3 STOP JUMPDEST CALLVALUE PUSH2 0x321 JUMPI PUSH1 0x20 CALLDATASIZE PUSH1 0x3 NOT ADD SLT PUSH2 0x321 JUMPI PUSH1 0x4 CALLDATALOAD PUSH1 0x0 MSTORE PUSH1 0x17 PUSH1 0x20 MSTORE PUSH1 0x40 PUSH1 0x0 KECCAK256 DUP1 SLOAD PUSH1 0x1 DUP1 PUSH1 0xA0 SHL SUB SWAP2 PUSH2 0xB17 DUP4 PUSH1 0x1 DUP4 ADD SLOAD AND SWAP4 PUSH1 0x2 DUP4 ADD SLOAD AND SWAP2 PUSH1 0x3 DUP2 ADD SLOAD PUSH1 0xFF PUSH1 0x4 DUP4 ADD SLOAD AND SWAP1 PUSH1 0x6 PUSH2 0xAE6 PUSH1 0x5 DUP6 ADD PUSH2 0x463A JUMP JUMPDEST SWAP4 ADD SLOAD SWAP5 PUSH1 0x40 MLOAD SWAP8 DUP9 SWAP8 DUP9 MSTORE PUSH1 0x20 DUP9 ADD MSTORE PUSH1 0x40 DUP8 ADD MSTORE PUSH1 0x60 DUP7 ADD MSTORE PUSH1 0x80 DUP6 ADD MSTORE PUSH1 0xE0 PUSH1 0xA0 DUP6 ADD MSTORE PUSH1 0xE0 DUP5 ADD SWAP1 PUSH2 0x46E0 JUMP JUMPDEST SWAP1 PUSH1 0xC0 DUP4 ADD MSTORE SUB SWAP1 RETURN JUMPDEST CALLVALUE PUSH2 0x321 JUMPI PUSH1 0x40 CALLDATASIZE PUSH1 0x3 NOT ADD SLT PUSH2 0x321 JUMPI PUSH2 0xB3A PUSH2 0x4527 JUMP JUMPDEST PUSH2 0xB7E PUSH1 0x24 CALLDATALOAD SWAP2 PUSH1 0x1 DUP1 PUSH1 0xA0 SHL SUB SWAP1 PUSH2 0xB58 DUP3 PUSH1 0x0 SLOAD AND CALLER EQ PUSH2 0x4A82 JUMP JUMPDEST DUP4 PUSH1 0x0 MSTORE PUSH1 0xF PUSH1 0x20 MSTORE PUSH1 0x40 PUSH1 0x0 KECCAK256 SWAP2 DUP1 PUSH1 0x2 DUP5 ADD SLOAD AND SWAP2 AND EQ SWAP1 DUP2 PUSH2 0xB99 JUMPI JUMPDEST POP PUSH2 0x4D10 JUMP JUMPDEST PUSH1 0x0 SWAP1 DUP2 MSTORE PUSH1 0xF PUSH1 0x20 MSTORE PUSH1 0x40 SWAP1 KECCAK256 PUSH1 0x7 ADD DUP1 SLOAD PUSH1 0xFF NOT AND SWAP1 SSTORE STOP JUMPDEST PUSH1 0xFF SWAP2 POP PUSH1 0x7 ADD SLOAD AND DUP4 PUSH2 0xB78 JUMP JUMPDEST CALLVALUE PUSH2 0x321 JUMPI PUSH1 0x40 CALLDATASIZE PUSH1 0x3 NOT ADD SLT PUSH2 0x321 JUMPI PUSH2 0x7C5 PUSH2 0xBC4 PUSH2 0x4527 JUMP JUMPDEST PUSH2 0xC3D PUSH2 0xBCF PUSH2 0x453D JUMP JUMPDEST DUP1 SWAP3 PUSH1 0x1 DUP1 PUSH1 0xA0 SHL SUB PUSH2 0xBE7 DUP2 PUSH1 0x0 SLOAD AND CALLER EQ PUSH2 0x4A82 JUMP JUMPDEST DUP1 DUP3 AND SWAP1 DUP2 PUSH1 0x0 MSTORE PUSH1 0xA PUSH1 0x20 MSTORE PUSH2 0xC0B PUSH1 0xFF PUSH1 0x5 PUSH1 0x40 PUSH1 0x0 KECCAK256 ADD SLOAD PUSH1 0xA0 SHR AND PUSH2 0x4C70 JUMP JUMPDEST DUP4 AND SWAP1 DUP2 PUSH1 0x0 MSTORE PUSH1 0x9 PUSH1 0x20 MSTORE PUSH1 0xFF PUSH1 0x4 PUSH1 0x40 PUSH1 0x0 KECCAK256 ADD SLOAD PUSH1 0xA0 SHR AND SWAP1 DUP2 PUSH2 0xC6A JUMPI JUMPDEST POP PUSH2 0xC38 SWAP2 POP PUSH2 0x4D10 JUMP JUMPDEST PUSH2 0x51F7 JUMP JUMPDEST PUSH1 0x40 MLOAD SWAP1 PUSH2 0xC4A DUP3 PUSH2 0x45FC JUMP JUMPDEST PUSH1 0xE DUP3 MSTORE PUSH14 0x1058D8D95CDCC819DC985B9D1959 PUSH1 0x92 SHL PUSH1 0x20 DUP4 ADD MSTORE PUSH2 0x5293 JUMP JUMPDEST SWAP1 POP PUSH1 0x0 MSTORE PUSH1 0x14 PUSH1 0x20 MSTORE PUSH1 0x40 PUSH1 0x0 KECCAK256 SWAP1 PUSH1 0x0 MSTORE PUSH1 0x20 MSTORE PUSH2 0xC38 PUSH1 0xFF PUSH1 0x40 PUSH1 0x0 KECCAK256 SLOAD AND ISZERO DUP8 PUSH2 0xC2D JUMP JUMPDEST CALLVALUE PUSH2 0x321 JUMPI PUSH1 0x20 CALLDATASIZE PUSH1 0x3 NOT ADD SLT PUSH2 0x321 JUMPI PUSH1 0x4 CALLDATALOAD PUSH1 0x0 MSTORE PUSH1 0xC PUSH1 0x20 MSTORE PUSH1 0x40 PUSH1 0x0 KECCAK256 DUP1 SLOAD PUSH2 0x3F6 PUSH2 0xCC5 PUSH1 0x1 DUP5 ADD PUSH2 0x463A JUMP JUMPDEST SWAP2 PUSH1 0x2 DUP5 ADD SLOAD SWAP4 PUSH2 0xCD8 PUSH1 0x3 DUP3 ADD PUSH2 0x463A JUMP JUMPDEST SWAP2 PUSH2 0xCE5 PUSH1 0x4 DUP4 ADD PUSH2 0x463A JUMP JUMPDEST SWAP1 PUSH1 0x5 DUP4 ADD SLOAD PUSH2 0xCF7 PUSH1 0x6 DUP6 ADD PUSH2 0x463A JUMP JUMPDEST SWAP2 PUSH1 0x7 DUP6 ADD SLOAD SWAP4 PUSH1 0x9 PUSH1 0x8 DUP8 ADD SLOAD SWAP7 ADD SLOAD SWAP7 PUSH1 0x40 MLOAD SWAP11 DUP12 SWAP11 PUSH1 0xFF DUP7 PUSH1 0xA0 SHR AND SWAP6 PUSH1 0x1 DUP1 PUSH1 0xA0 SHL SUB AND SWAP5 DUP13 PUSH2 0x4720 JUMP JUMPDEST CALLVALUE PUSH2 0x321 JUMPI PUSH1 0x0 CALLDATASIZE PUSH1 0x3 NOT ADD SLT PUSH2 0x321 JUMPI CALLER PUSH1 0x0 MSTORE PUSH1 0x20 PUSH1 0x15 DUP2 MSTORE PUSH1 0x40 PUSH1 0x0 KECCAK256 SWAP1 PUSH1 0x40 MLOAD SWAP1 DUP2 DUP2 DUP5 SLOAD SWAP2 DUP3 DUP2 MSTORE ADD SWAP4 PUSH1 0x0 MSTORE DUP2 PUSH1 0x0 KECCAK256 SWAP2 PUSH1 0x0 SWAP1 JUMPDEST DUP3 DUP3 LT PUSH2 0xD84 JUMPI PUSH2 0x3F6 DUP6 PUSH2 0xD78 DUP2 DUP10 SUB DUP3 PUSH2 0x4617 JUMP JUMPDEST PUSH1 0x40 MLOAD SWAP2 DUP3 SWAP2 DUP3 PUSH2 0x494D JUMP JUMPDEST DUP4 SLOAD PUSH1 0x1 PUSH1 0x1 PUSH1 0xA0 SHL SUB AND DUP7 MSTORE SWAP5 DUP6 ADD SWAP5 PUSH1 0x1 SWAP4 DUP5 ADD SWAP4 SWAP1 SWAP2 ADD SWAP1 PUSH2 0xD61 JUMP JUMPDEST CALLVALUE PUSH2 0x321 JUMPI PUSH2 0xDB2 CALLDATASIZE PUSH2 0x4991 JUMP JUMPDEST PUSH1 0x0 SLOAD SWAP1 SWAP2 PUSH1 0x1 PUSH1 0x1 PUSH1 0xA0 SHL SUB SWAP2 PUSH2 0xDCD SWAP1 DUP4 AND CALLER EQ PUSH2 0x4A82 JUMP JUMPDEST AND DUP1 PUSH1 0x0 MSTORE PUSH1 0x20 SWAP2 PUSH1 0xA DUP4 MSTORE PUSH2 0xDF0 PUSH1 0xFF PUSH1 0x5 PUSH1 0x40 PUSH1 0x0 KECCAK256 ADD SLOAD PUSH1 0xA0 SHR AND PUSH2 0x4C70 JUMP JUMPDEST PUSH1 0x0 DUP3 DUP2 MSTORE PUSH1 0xA DUP5 MSTORE PUSH1 0x40 SWAP1 KECCAK256 DUP2 MLOAD PUSH1 0x1 PUSH1 0x1 PUSH1 0x40 SHL SUB SWAP5 SWAP2 PUSH1 0x6 ADD SWAP1 DUP6 DUP2 GT PUSH2 0x869 JUMPI PUSH2 0xE28 DUP2 PUSH2 0xE22 DUP5 SLOAD PUSH2 0x4553 JUMP JUMPDEST DUP5 PUSH2 0x4B21 JUMP JUMPDEST DUP1 DUP4 PUSH1 0x1F DUP3 GT PUSH1 0x1 EQ PUSH2 0xF68 JUMPI PUSH1 0x0 SWAP2 PUSH2 0xF5D JUMPI JUMPDEST POP DUP2 PUSH1 0x1 SHL SWAP2 PUSH1 0x0 NOT SWAP1 PUSH1 0x3 SHL SHR NOT AND OR SWAP1 SSTORE JUMPDEST DUP3 PUSH1 0x0 MSTORE PUSH1 0xA DUP2 MSTORE PUSH1 0x40 PUSH1 0x0 KECCAK256 SLOAD PUSH1 0x0 MSTORE PUSH1 0xC DUP2 MSTORE PUSH1 0x6 PUSH1 0x40 PUSH1 0x0 KECCAK256 ADD DUP3 MLOAD SWAP5 DUP6 GT PUSH2 0x869 JUMPI PUSH2 0xE8B DUP6 PUSH2 0xE85 DUP4 SLOAD PUSH2 0x4553 JUMP JUMPDEST DUP4 PUSH2 0x4B21 JUMP JUMPDEST DUP2 PUSH1 0x1F DUP7 GT PUSH1 0x1 EQ PUSH2 0xEEA JUMPI SWAP5 DUP1 PUSH1 0x0 DUP1 MLOAD PUSH1 0x20 PUSH2 0x5325 DUP4 CODECOPY DUP2 MLOAD SWAP2 MSTORE SWAP6 SWAP7 PUSH1 0x0 SWAP2 PUSH2 0xEDF JUMPI JUMPDEST POP DUP2 PUSH1 0x1 SHL SWAP2 PUSH1 0x0 NOT SWAP1 PUSH1 0x3 SHL SHR NOT AND OR SWAP1 SSTORE JUMPDEST PUSH2 0xEDA PUSH1 0x40 MLOAD SWAP3 DUP3 DUP5 SWAP4 DUP5 MSTORE DUP4 ADD SWAP1 PUSH2 0x46E0 JUMP JUMPDEST SUB SWAP1 LOG2 STOP JUMPDEST SWAP1 POP DUP5 ADD MLOAD DUP8 PUSH2 0xEB2 JUMP JUMPDEST PUSH1 0x1F NOT DUP7 AND SWAP1 DUP3 PUSH1 0x0 MSTORE DUP4 PUSH1 0x0 KECCAK256 SWAP2 PUSH1 0x0 JUMPDEST DUP2 DUP2 LT PUSH2 0xF46 JUMPI POP SWAP2 DUP8 SWAP2 PUSH1 0x0 DUP1 MLOAD PUSH1 0x20 PUSH2 0x5325 DUP4 CODECOPY DUP2 MLOAD SWAP2 MSTORE SWAP8 SWAP9 PUSH1 0x1 SWAP5 LT PUSH2 0xF2D JUMPI JUMPDEST POP POP DUP2 SHL ADD SWAP1 SSTORE PUSH2 0xEC6 JUMP JUMPDEST DUP7 ADD MLOAD PUSH1 0x0 NOT PUSH1 0xF8 DUP5 PUSH1 0x3 SHL AND SHR NOT AND SWAP1 SSTORE DUP8 DUP1 PUSH2 0xF21 JUMP JUMPDEST SWAP2 SWAP3 DUP6 PUSH1 0x1 DUP2 SWAP3 DUP7 DUP11 ADD MLOAD DUP2 SSTORE ADD SWAP5 ADD SWAP3 ADD PUSH2 0xEFC JUMP JUMPDEST SWAP1 POP DUP5 ADD MLOAD DUP8 PUSH2 0xE3D JUMP JUMPDEST PUSH1 0x0 DUP5 DUP2 MSTORE DUP6 DUP2 KECCAK256 SWAP3 POP PUSH1 0x1F NOT DUP5 AND SWAP1 JUMPDEST DUP7 DUP3 DUP3 LT PUSH2 0xFB5 JUMPI POP POP SWAP1 DUP4 PUSH1 0x1 SWAP5 SWAP4 SWAP3 LT PUSH2 0xF9C JUMPI JUMPDEST POP POP DUP2 SHL ADD SWAP1 SSTORE PUSH2 0xE51 JUMP JUMPDEST DUP7 ADD MLOAD PUSH1 0x0 NOT PUSH1 0xF8 DUP5 PUSH1 0x3 SHL AND SHR NOT AND SWAP1 SSTORE DUP8 DUP1 PUSH2 0xF90 JUMP JUMPDEST PUSH1 0x1 DUP5 SWAP6 DUP3 SWAP4 SWAP6 DUP12 ADD MLOAD DUP2 SSTORE ADD SWAP5 ADD SWAP3 ADD PUSH2 0xF79 JUMP JUMPDEST CALLVALUE PUSH2 0x321 JUMPI PUSH1 0x20 DUP1 PUSH1 0x3 NOT CALLDATASIZE ADD SLT PUSH2 0x321 JUMPI PUSH1 0x4 CALLDATALOAD PUSH1 0x1 PUSH1 0x1 PUSH1 0x40 SHL SUB DUP2 GT PUSH2 0x321 JUMPI PUSH2 0xFFC SWAP1 CALLDATASIZE SWAP1 PUSH1 0x4 ADD PUSH2 0x48BC JUMP JUMPDEST SWAP1 PUSH1 0x0 PUSH1 0x1 SWAP1 DUP2 SLOAD SWAP2 JUMPDEST DUP3 DUP2 GT ISZERO PUSH2 0x1173 JUMPI POP PUSH2 0x1018 SWAP1 PUSH2 0x4EFC JUMP JUMPDEST SWAP2 PUSH1 0x0 PUSH1 0x1 JUMPDEST DUP4 DUP2 GT ISZERO PUSH2 0x1034 JUMPI PUSH1 0x40 MLOAD DUP1 PUSH2 0x3F6 DUP8 DUP3 PUSH2 0x4799 JUMP JUMPDEST DUP1 PUSH1 0x0 MSTORE PUSH1 0xB DUP1 DUP5 MSTORE PUSH1 0x40 PUSH1 0x0 KECCAK256 PUSH1 0x4 DUP2 ADD SLOAD SWAP1 PUSH1 0xFF DUP1 DUP4 PUSH1 0xA0 SHR AND SWAP3 DUP4 PUSH2 0x1166 JUMPI JUMPDEST POP POP DUP2 PUSH2 0x10AF JUMPI JUMPDEST POP SWAP1 PUSH2 0x1071 SWAP3 SWAP2 PUSH2 0x1076 JUMPI JUMPDEST POP PUSH2 0x4AFC JUMP JUMPDEST PUSH2 0x101E JUMP JUMPDEST DUP2 PUSH1 0x0 MSTORE DUP5 MSTORE PUSH2 0x10A8 PUSH1 0x40 PUSH1 0x0 KECCAK256 SWAP4 PUSH2 0x1097 PUSH2 0x1091 DUP3 PUSH2 0x4AFC JUMP JUMPDEST SWAP6 PUSH2 0x4FC6 JUMP JUMPDEST PUSH2 0x10A1 DUP3 DUP11 PUSH2 0x4FB2 JUMP JUMPDEST MSTORE DUP8 PUSH2 0x4FB2 JUMP JUMPDEST POP DUP8 PUSH2 0x106B JUMP JUMPDEST PUSH1 0x2 SWAP2 POP ADD PUSH1 0x40 MLOAD PUSH1 0x0 DUP3 SLOAD SWAP3 PUSH2 0x10C5 DUP5 PUSH2 0x4553 JUMP JUMPDEST SWAP1 DUP2 DUP5 MSTORE DUP9 DUP5 ADD SWAP5 DUP10 PUSH1 0x1 DUP3 AND SWAP2 DUP3 PUSH1 0x0 EQ PUSH2 0x1146 JUMPI POP POP PUSH1 0x1 EQ PUSH2 0x110C JUMPI JUMPDEST POP POP SWAP1 PUSH2 0x10FA DUP2 PUSH2 0x1071 SWAP7 SWAP6 SWAP5 SWAP4 SUB DUP3 PUSH2 0x4617 JUMP JUMPDEST MLOAD SWAP1 KECCAK256 DUP9 MLOAD DUP7 DUP11 ADD KECCAK256 EQ SWAP1 SWAP2 SWAP3 PUSH2 0x105F JUMP JUMPDEST DUP9 SWAP3 POP PUSH1 0x0 MSTORE DUP2 PUSH1 0x0 KECCAK256 SWAP1 PUSH1 0x0 SWAP2 JUMPDEST DUP2 DUP4 LT PUSH2 0x1130 JUMPI POP POP DUP3 ADD ADD PUSH2 0x10FA DUP3 PUSH2 0x10E5 JUMP JUMPDEST DUP1 SLOAD DUP4 DUP7 ADD DUP6 ADD MSTORE DUP10 SWAP4 SWAP1 SWAP3 ADD SWAP2 PUSH1 0x1 ADD PUSH2 0x111B JUMP JUMPDEST PUSH1 0xFF NOT AND DUP8 MSTORE SWAP3 ISZERO ISZERO PUSH1 0x5 SHL DUP6 ADD SWAP1 SWAP3 ADD SWAP3 POP PUSH2 0x10FA SWAP2 POP DUP4 SWAP1 POP PUSH2 0x10E5 JUMP JUMPDEST PUSH1 0xA8 SHR AND SWAP2 POP DUP10 DUP1 PUSH2 0x1057 JUMP JUMPDEST DUP1 PUSH1 0x0 MSTORE PUSH1 0xB DUP5 MSTORE PUSH1 0x40 PUSH1 0x0 KECCAK256 PUSH1 0x4 DUP2 ADD SLOAD SWAP1 PUSH1 0xFF DUP1 DUP4 PUSH1 0xA0 SHR AND SWAP3 DUP4 PUSH2 0x127A JUMPI JUMPDEST POP POP DUP2 PUSH2 0x11C6 JUMPI JUMPDEST POP PUSH2 0x11B1 JUMPI JUMPDEST PUSH2 0x11AC SWAP1 PUSH2 0x4AFC JUMP JUMPDEST PUSH2 0x1006 JUMP JUMPDEST SWAP1 PUSH2 0x11BE PUSH2 0x11AC SWAP2 PUSH2 0x4AFC JUMP JUMPDEST SWAP2 SWAP1 POP PUSH2 0x11A3 JUMP JUMPDEST PUSH1 0x2 SWAP2 POP ADD PUSH1 0x40 MLOAD PUSH1 0x0 SWAP2 DUP2 DUP2 SLOAD SWAP4 PUSH2 0x11DE DUP6 PUSH2 0x4553 JUMP JUMPDEST SWAP3 DUP4 DUP4 MSTORE DUP10 DUP4 ADD SWAP6 DUP11 PUSH1 0x1 DUP3 AND SWAP2 DUP3 PUSH1 0x0 EQ PUSH2 0x125C JUMPI POP POP PUSH1 0x1 EQ PUSH2 0x121B JUMPI JUMPDEST POP PUSH2 0x120B SWAP3 POP SUB DUP3 PUSH2 0x4617 JUMP JUMPDEST MLOAD SWAP1 KECCAK256 DUP6 MLOAD DUP6 DUP8 ADD KECCAK256 EQ DUP7 PUSH2 0x119D JUMP JUMPDEST SWAP2 POP POP PUSH1 0x0 MSTORE DUP2 DUP8 DUP1 PUSH1 0x0 KECCAK256 SWAP3 PUSH1 0x0 SWAP4 JUMPDEST DUP2 DUP6 LT PUSH2 0x1242 JUMPI POP POP PUSH2 0x120B SWAP3 DUP3 ADD ADD DUP11 PUSH2 0x11FE JUMP JUMPDEST PUSH1 0x1 SWAP2 SWAP4 POP DUP1 SLOAD DUP4 DUP7 DUP9 ADD ADD MSTORE ADD SWAP3 ADD SWAP2 DUP4 SWAP2 DUP10 SWAP2 PUSH2 0x122C JUMP JUMPDEST PUSH1 0xFF NOT AND DUP9 MSTORE PUSH2 0x120B SWAP6 ISZERO ISZERO PUSH1 0x5 SHL DUP6 ADD ADD SWAP3 POP DUP13 SWAP2 POP PUSH2 0x11FE SWAP1 POP JUMP JUMPDEST PUSH1 0xA8 SHR AND SWAP2 POP DUP8 DUP1 PUSH2 0x1195 JUMP JUMPDEST CALLVALUE PUSH2 0x321 JUMPI PUSH1 0x0 CALLDATASIZE PUSH1 0x3 NOT ADD SLT PUSH2 0x321 JUMPI PUSH2 0x3F6 PUSH2 0x12A3 PUSH2 0x508D JUMP JUMPDEST PUSH1 0x40 MLOAD SWAP2 DUP3 SWAP2 DUP3 PUSH2 0x4912 JUMP JUMPDEST CALLVALUE PUSH2 0x321 JUMPI PUSH1 0x20 CALLDATASIZE PUSH1 0x3 NOT ADD SLT PUSH2 0x321 JUMPI PUSH1 0x20 PUSH2 0x12D2 PUSH2 0x12CD PUSH2 0x4527 JUMP JUMPDEST PUSH2 0x4E61 JUMP JUMPDEST PUSH1 0x40 MLOAD SWAP1 DUP2 MSTORE RETURN JUMPDEST CALLVALUE PUSH2 0x321 JUMPI PUSH1 0x20 CALLDATASIZE PUSH1 0x3 NOT ADD SLT PUSH2 0x321 JUMPI PUSH1 0x1 PUSH1 0x1 PUSH1 0xA0 SHL SUB DUP1 PUSH2 0x12FC PUSH2 0x4527 JUMP JUMPDEST AND PUSH1 0x0 MSTORE PUSH1 0x9 PUSH1 0x20 MSTORE PUSH1 0x40 PUSH1 0x0 KECCAK256 PUSH2 0x3F6 DUP2 SLOAD SWAP3 PUSH2 0x131C PUSH1 0x1 DUP5 ADD PUSH2 0x463A JUMP JUMPDEST SWAP3 PUSH2 0x1329 PUSH1 0x2 DUP3 ADD PUSH2 0x463A JUMP JUMPDEST SWAP5 PUSH2 0x1336 PUSH1 0x3 DUP4 ADD PUSH2 0x463A JUMP JUMPDEST SWAP3 PUSH1 0x4 DUP4 ADD SLOAD SWAP1 PUSH2 0x1349 PUSH1 0x5 DUP6 ADD PUSH2 0x463A JUMP JUMPDEST PUSH1 0x6 DUP6 ADD SLOAD SWAP1 PUSH1 0x7 DUP7 ADD SLOAD SWAP3 PUSH1 0x8 DUP8 ADD SLOAD SWAP5 PUSH1 0x9 DUP9 ADD SLOAD SWAP7 PUSH1 0xB PUSH1 0xA DUP11 ADD SLOAD SWAP10 ADD SLOAD SWAP10 PUSH1 0x40 MLOAD SWAP14 DUP15 SWAP14 DUP15 SWAP4 PUSH1 0xFF DUP7 PUSH1 0xA8 SHR AND SWAP7 PUSH1 0xFF DUP8 PUSH1 0xA0 SHR AND SWAP7 AND SWAP5 PUSH2 0x49E6 JUMP JUMPDEST CALLVALUE PUSH2 0x321 JUMPI PUSH2 0x120 CALLDATASIZE PUSH1 0x3 NOT ADD SLT PUSH2 0x321 JUMPI PUSH2 0x13A5 PUSH2 0x4527 JUMP JUMPDEST PUSH2 0x13AD PUSH2 0x453D JUMP JUMPDEST PUSH1 0x44 CALLDATALOAD PUSH1 0x1 PUSH1 0x1 PUSH1 0x40 SHL SUB DUP2 GT PUSH2 0x321 JUMPI PUSH2 0x13CC SWAP1 CALLDATASIZE SWAP1 PUSH1 0x4 ADD PUSH2 0x48BC JUMP JUMPDEST SWAP2 PUSH1 0x64 CALLDATALOAD PUSH1 0x1 PUSH1 0x1 PUSH1 0x40 SHL SUB DUP2 GT PUSH2 0x321 JUMPI PUSH2 0x13EC SWAP1 CALLDATASIZE SWAP1 PUSH1 0x4 ADD PUSH2 0x48BC JUMP JUMPDEST PUSH1 0x84 CALLDATALOAD PUSH1 0x1 PUSH1 0x1 PUSH1 0x40 SHL SUB DUP2 GT PUSH2 0x321 JUMPI PUSH2 0x140B SWAP1 CALLDATASIZE SWAP1 PUSH1 0x4 ADD PUSH2 0x48BC JUMP JUMPDEST PUSH1 0xA4 CALLDATALOAD PUSH1 0x1 PUSH1 0x1 PUSH1 0x40 SHL SUB DUP2 GT PUSH2 0x321 JUMPI PUSH2 0x142A SWAP1 CALLDATASIZE SWAP1 PUSH1 0x4 ADD PUSH2 0x48BC JUMP JUMPDEST PUSH1 0xE4 CALLDATALOAD PUSH1 0x1 PUSH1 0x1 PUSH1 0x40 SHL SUB DUP2 GT PUSH2 0x321 JUMPI PUSH2 0x1449 SWAP1 CALLDATASIZE SWAP1 PUSH1 0x4 ADD PUSH2 0x48BC JUMP JUMPDEST PUSH2 0x104 CALLDATALOAD SWAP2 PUSH1 0xFF DUP4 AND DUP4 SUB PUSH2 0x321 JUMPI PUSH1 0xFF SWAP4 PUSH2 0x1470 PUSH1 0x1 DUP1 PUSH1 0xA0 SHL SUB PUSH1 0x0 SLOAD AND CALLER EQ PUSH2 0x4A82 JUMP JUMPDEST PUSH1 0x1 PUSH1 0x1 PUSH1 0xA0 SHL SUB DUP9 DUP2 AND PUSH1 0x0 SWAP1 DUP2 MSTORE PUSH1 0x14 PUSH1 0x20 SWAP1 DUP2 MSTORE PUSH1 0x40 DUP1 DUP4 KECCAK256 SWAP4 DUP12 AND DUP4 MSTORE SWAP3 SWAP1 MSTORE KECCAK256 SLOAD PUSH2 0x14A1 SWAP1 DUP7 AND PUSH2 0x4D46 JUMP JUMPDEST PUSH2 0x14AC PUSH1 0x4 SLOAD PUSH2 0x4AFC JUMP JUMPDEST SWAP6 DUP7 PUSH1 0x4 SSTORE PUSH1 0x40 MLOAD SWAP10 PUSH2 0x14BE DUP12 PUSH2 0x45A9 JUMP JUMPDEST DUP8 DUP12 MSTORE PUSH1 0x1 DUP1 PUSH1 0xA0 SHL SUB DUP11 AND PUSH1 0x20 DUP13 ADD MSTORE PUSH1 0x1 DUP1 PUSH1 0xA0 SHL SUB DUP10 AND PUSH1 0x40 DUP13 ADD MSTORE PUSH1 0xC4 CALLDATALOAD PUSH1 0x60 DUP13 ADD MSTORE PUSH1 0x80 DUP12 ADD MSTORE PUSH1 0xA0 DUP11 ADD MSTORE PUSH1 0xC0 DUP10 ADD MSTORE PUSH1 0xE0 DUP9 ADD MSTORE PUSH2 0x100 DUP8 ADD MSTORE AND PUSH2 0x120 DUP6 ADD MSTORE TIMESTAMP PUSH2 0x140 DUP6 ADD MSTORE PUSH1 0x0 MSTORE PUSH1 0xD PUSH1 0x20 MSTORE PUSH1 0x40 PUSH1 0x0 KECCAK256 DUP4 MLOAD DUP2 SSTORE PUSH1 0x1 DUP2 ADD PUSH1 0x1 DUP1 PUSH1 0xA0 SHL SUB PUSH1 0x20 DUP7 ADD MLOAD AND SWAP1 PUSH1 0x1 DUP1 PUSH1 0xA0 SHL SUB NOT SWAP2 DUP3 DUP3 SLOAD AND OR SWAP1 SSTORE PUSH1 0x2 DUP3 ADD SWAP1 PUSH1 0x1 DUP1 PUSH1 0xA0 SHL SUB PUSH1 0x40 DUP8 ADD MLOAD AND SWAP1 DUP3 SLOAD AND OR SWAP1 SSTORE PUSH1 0x60 DUP5 ADD MLOAD PUSH1 0x3 DUP3 ADD SSTORE PUSH1 0x80 DUP5 ADD MLOAD DUP1 MLOAD SWAP1 PUSH1 0x1 DUP1 PUSH1 0x40 SHL SUB DUP3 GT PUSH2 0x869 JUMPI DUP2 SWAP1 PUSH2 0x158B DUP3 PUSH2 0x614 PUSH1 0x4 DUP8 ADD SLOAD PUSH2 0x4553 JUMP JUMPDEST PUSH1 0x20 SWAP1 PUSH1 0x1F DUP4 GT PUSH1 0x1 EQ PUSH2 0x1A61 JUMPI PUSH1 0x0 SWAP3 PUSH2 0x1A56 JUMPI JUMPDEST POP POP DUP2 PUSH1 0x1 SHL SWAP2 PUSH1 0x0 NOT SWAP1 PUSH1 0x3 SHL SHR NOT AND OR PUSH1 0x4 DUP3 ADD SSTORE JUMPDEST PUSH1 0xA0 DUP5 ADD MLOAD DUP1 MLOAD SWAP1 PUSH1 0x1 PUSH1 0x1 PUSH1 0x40 SHL SUB DUP3 GT PUSH2 0x869 JUMPI DUP2 SWAP1 PUSH2 0x15E2 DUP3 PUSH2 0x674 PUSH1 0x5 DUP8 ADD SLOAD PUSH2 0x4553 JUMP JUMPDEST PUSH1 0x20 SWAP1 PUSH1 0x1F DUP4 GT PUSH1 0x1 EQ PUSH2 0x19E4 JUMPI PUSH1 0x0 SWAP3 PUSH2 0x19D9 JUMPI JUMPDEST POP POP DUP2 PUSH1 0x1 SHL SWAP2 PUSH1 0x0 NOT SWAP1 PUSH1 0x3 SHL SHR NOT AND OR PUSH1 0x5 DUP3 ADD SSTORE JUMPDEST PUSH1 0xC0 DUP5 ADD MLOAD DUP1 MLOAD SWAP1 PUSH1 0x1 PUSH1 0x1 PUSH1 0x40 SHL SUB DUP3 GT PUSH2 0x869 JUMPI DUP2 SWAP1 PUSH2 0x1642 DUP3 PUSH2 0x1639 PUSH1 0x6 DUP8 ADD SLOAD PUSH2 0x4553 JUMP JUMPDEST PUSH1 0x6 DUP8 ADD PUSH2 0x4B21 JUMP JUMPDEST PUSH1 0x20 SWAP1 PUSH1 0x1F DUP4 GT PUSH1 0x1 EQ PUSH2 0x1967 JUMPI PUSH1 0x0 SWAP3 PUSH2 0x195C JUMPI JUMPDEST POP POP DUP2 PUSH1 0x1 SHL SWAP2 PUSH1 0x0 NOT SWAP1 PUSH1 0x3 SHL SHR NOT AND OR PUSH1 0x6 DUP3 ADD SSTORE JUMPDEST PUSH1 0xE0 DUP5 ADD MLOAD DUP1 MLOAD SWAP1 PUSH1 0x1 PUSH1 0x1 PUSH1 0x40 SHL SUB DUP3 GT PUSH2 0x869 JUMPI DUP2 SWAP1 PUSH2 0x16A2 DUP3 PUSH2 0x1699 PUSH1 0x7 DUP8 ADD SLOAD PUSH2 0x4553 JUMP JUMPDEST PUSH1 0x7 DUP8 ADD PUSH2 0x4B21 JUMP JUMPDEST PUSH1 0x20 SWAP1 PUSH1 0x1F DUP4 GT PUSH1 0x1 EQ PUSH2 0x18EA JUMPI PUSH1 0x0 SWAP3 PUSH2 0x18DF JUMPI JUMPDEST POP POP DUP2 PUSH1 0x1 SHL SWAP2 PUSH1 0x0 NOT SWAP1 PUSH1 0x3 SHL SHR NOT AND OR PUSH1 0x7 DUP3 ADD SSTORE JUMPDEST PUSH2 0x100 DUP5 ADD MLOAD DUP1 MLOAD SWAP1 PUSH1 0x1 PUSH1 0x1 PUSH1 0x40 SHL SUB DUP3 GT PUSH2 0x869 JUMPI PUSH2 0x1701 DUP3 PUSH2 0x16F8 PUSH1 0x8 DUP7 ADD SLOAD PUSH2 0x4553 JUMP JUMPDEST PUSH1 0x8 DUP7 ADD PUSH2 0x4B21 JUMP JUMPDEST PUSH1 0x20 SWAP1 PUSH1 0x1F DUP4 GT PUSH1 0x1 EQ PUSH2 0x1866 JUMPI SWAP6 DUP3 PUSH1 0xA SWAP4 PUSH2 0x140 SWAP4 PUSH2 0x7C5 SWAP10 PUSH1 0x0 SWAP3 PUSH2 0x185B JUMPI JUMPDEST POP POP DUP2 PUSH1 0x1 SHL SWAP2 PUSH1 0x0 NOT SWAP1 PUSH1 0x3 SHL SHR NOT AND OR PUSH1 0x8 DUP6 ADD SSTORE JUMPDEST PUSH1 0x9 DUP5 ADD PUSH1 0xFF PUSH2 0x120 DUP4 ADD MLOAD AND PUSH1 0xFF NOT DUP3 SLOAD AND OR SWAP1 SSTORE ADD MLOAD SWAP2 ADD SSTORE PUSH1 0x1 DUP1 PUSH1 0xA0 SHL SUB DUP3 AND PUSH1 0x0 MSTORE PUSH1 0xE PUSH1 0x20 MSTORE PUSH2 0x1779 PUSH1 0x40 PUSH1 0x0 KECCAK256 PUSH1 0x4 SLOAD SWAP1 PUSH2 0x4CDB JUMP JUMPDEST PUSH1 0x1 PUSH1 0x1 PUSH1 0xA0 SHL SUB DUP3 AND PUSH1 0x0 SWAP1 DUP2 MSTORE PUSH1 0xA PUSH1 0x20 MSTORE PUSH1 0x40 SWAP1 KECCAK256 PUSH1 0x7 ADD DUP1 SLOAD PUSH2 0x179F SWAP1 PUSH2 0x4AFC JUMP JUMPDEST SWAP1 SSTORE PUSH1 0x1 PUSH1 0x1 PUSH1 0xA0 SHL SUB DUP2 AND PUSH1 0x0 SWAP1 DUP2 MSTORE PUSH1 0x9 PUSH1 0x20 MSTORE PUSH1 0x40 SWAP1 KECCAK256 PUSH1 0x8 ADD DUP1 SLOAD PUSH2 0x17C7 SWAP1 PUSH2 0x4AFC JUMP JUMPDEST SWAP1 SSTORE PUSH1 0xC4 CALLDATALOAD PUSH2 0x183F JUMPI JUMPDEST PUSH1 0x4 SLOAD PUSH1 0x1 PUSH1 0x1 PUSH1 0xA0 SHL SUB SWAP2 DUP3 AND SWAP2 DUP4 AND SWAP1 PUSH32 0x12475E85005299463EB3A03419E34261B32557036F16F1DBEA407D5B5C0D81ED PUSH1 0x0 DUP1 LOG4 PUSH1 0x40 MLOAD SWAP1 PUSH2 0x1815 DUP3 PUSH2 0x45FC JUMP JUMPDEST PUSH1 0x18 DUP3 MSTORE PUSH24 0x13995DC81B59591A58D85B081C9958DBDC99081859191959 PUSH1 0x42 SHL PUSH1 0x20 DUP4 ADD MSTORE PUSH2 0x5293 JUMP JUMPDEST PUSH1 0x4 SLOAD PUSH1 0xC4 CALLDATALOAD PUSH1 0x0 MSTORE PUSH1 0x11 PUSH1 0x20 MSTORE PUSH1 0x8 PUSH1 0x40 PUSH1 0x0 KECCAK256 ADD SSTORE PUSH2 0x17D1 JUMP JUMPDEST ADD MLOAD SWAP1 POP DUP10 DUP1 PUSH2 0x1724 JUMP JUMPDEST SWAP1 PUSH1 0x8 DUP5 ADD PUSH1 0x0 MSTORE PUSH1 0x20 PUSH1 0x0 KECCAK256 SWAP2 PUSH1 0x0 JUMPDEST PUSH1 0x1F NOT DUP6 AND DUP2 LT PUSH2 0x18C7 JUMPI POP DUP4 PUSH2 0x140 SWAP4 PUSH2 0x7C5 SWAP10 SWAP4 PUSH1 0x1 SWAP4 PUSH1 0xA SWAP8 PUSH1 0x1F NOT DUP2 AND LT PUSH2 0x18AE JUMPI JUMPDEST POP POP POP DUP2 SHL ADD PUSH1 0x8 DUP6 ADD SSTORE PUSH2 0x173C JUMP JUMPDEST ADD MLOAD PUSH1 0x0 NOT PUSH1 0xF8 DUP5 PUSH1 0x3 SHL AND SHR NOT AND SWAP1 SSTORE DUP10 DUP1 DUP1 PUSH2 0x189E JUMP JUMPDEST SWAP2 SWAP3 PUSH1 0x20 PUSH1 0x1 DUP2 SWAP3 DUP7 DUP6 ADD MLOAD DUP2 SSTORE ADD SWAP5 ADD SWAP3 ADD PUSH2 0x1877 JUMP JUMPDEST ADD MLOAD SWAP1 POP DUP7 DUP1 PUSH2 0x16B8 JUMP JUMPDEST SWAP3 POP PUSH1 0x7 DUP5 ADD PUSH1 0x0 MSTORE PUSH1 0x20 PUSH1 0x0 KECCAK256 SWAP1 PUSH1 0x0 SWAP4 JUMPDEST PUSH1 0x1F NOT DUP5 AND DUP6 LT PUSH2 0x1941 JUMPI PUSH1 0x1 SWAP5 POP DUP4 PUSH1 0x1F NOT DUP2 AND LT PUSH2 0x1928 JUMPI JUMPDEST POP POP POP DUP2 SHL ADD PUSH1 0x7 DUP3 ADD SSTORE PUSH2 0x16D0 JUMP JUMPDEST ADD MLOAD PUSH1 0x0 NOT PUSH1 0xF8 DUP5 PUSH1 0x3 SHL AND SHR NOT AND SWAP1 SSTORE DUP7 DUP1 DUP1 PUSH2 0x1918 JUMP JUMPDEST DUP2 DUP2 ADD MLOAD DUP4 SSTORE PUSH1 0x20 SWAP5 DUP6 ADD SWAP5 PUSH1 0x1 SWAP1 SWAP4 ADD SWAP3 SWAP1 SWAP2 ADD SWAP1 PUSH2 0x18FD JUMP JUMPDEST ADD MLOAD SWAP1 POP DUP7 DUP1 PUSH2 0x1658 JUMP JUMPDEST SWAP3 POP PUSH1 0x6 DUP5 ADD PUSH1 0x0 MSTORE PUSH1 0x20 PUSH1 0x0 KECCAK256 SWAP1 PUSH1 0x0 SWAP4 JUMPDEST PUSH1 0x1F NOT DUP5 AND DUP6 LT PUSH2 0x19BE JUMPI PUSH1 0x1 SWAP5 POP DUP4 PUSH1 0x1F NOT DUP2 AND LT PUSH2 0x19A5 JUMPI JUMPDEST POP POP POP DUP2 SHL ADD PUSH1 0x6 DUP3 ADD SSTORE PUSH2 0x1670 JUMP JUMPDEST ADD MLOAD PUSH1 0x0 NOT PUSH1 0xF8 DUP5 PUSH1 0x3 SHL AND SHR NOT AND SWAP1 SSTORE DUP7 DUP1 DUP1 PUSH2 0x1995 JUMP JUMPDEST DUP2 DUP2 ADD MLOAD DUP4 SSTORE PUSH1 0x20 SWAP5 DUP6 ADD SWAP5 PUSH1 0x1 SWAP1 SWAP4 ADD SWAP3 SWAP1 SWAP2 ADD SWAP1 PUSH2 0x197A JUMP JUMPDEST ADD MLOAD SWAP1 POP DUP7 DUP1 PUSH2 0x15F8 JUMP JUMPDEST SWAP3 POP PUSH1 0x5 DUP5 ADD PUSH1 0x0 MSTORE PUSH1 0x20 PUSH1 0x0 KECCAK256 SWAP1 PUSH1 0x0 SWAP4 JUMPDEST PUSH1 0x1F NOT DUP5 AND DUP6 LT PUSH2 0x1A3B JUMPI PUSH1 0x1 SWAP5 POP DUP4 PUSH1 0x1F NOT DUP2 AND LT PUSH2 0x1A22 JUMPI JUMPDEST POP POP POP DUP2 SHL ADD PUSH1 0x5 DUP3 ADD SSTORE PUSH2 0x1610 JUMP JUMPDEST ADD MLOAD PUSH1 0x0 NOT PUSH1 0xF8 DUP5 PUSH1 0x3 SHL AND SHR NOT AND SWAP1 SSTORE DUP7 DUP1 DUP1 PUSH2 0x1A12 JUMP JUMPDEST DUP2 DUP2 ADD MLOAD DUP4 SSTORE PUSH1 0x20 SWAP5 DUP6 ADD SWAP5 PUSH1 0x1 SWAP1 SWAP4 ADD SWAP3 SWAP1 SWAP2 ADD SWAP1 PUSH2 0x19F7 JUMP JUMPDEST ADD MLOAD SWAP1 POP DUP7 DUP1 PUSH2 0x15A1 JUMP JUMPDEST SWAP3 POP PUSH1 0x4 DUP5 ADD PUSH1 0x0 MSTORE PUSH1 0x20 PUSH1 0x0 KECCAK256 SWAP1 PUSH1 0x0 SWAP4 JUMPDEST PUSH1 0x1F NOT DUP5 AND DUP6 LT PUSH2 0x1AB8 JUMPI PUSH1 0x1 SWAP5 POP DUP4 PUSH1 0x1F NOT DUP2 AND LT PUSH2 0x1A9F JUMPI JUMPDEST POP POP POP DUP2 SHL ADD PUSH1 0x4 DUP3 ADD SSTORE PUSH2 0x15B9 JUMP JUMPDEST ADD MLOAD PUSH1 0x0 NOT PUSH1 0xF8 DUP5 PUSH1 0x3 SHL AND SHR NOT AND SWAP1 SSTORE DUP7 DUP1 DUP1 PUSH2 0x1A8F JUMP JUMPDEST DUP2 DUP2 ADD MLOAD DUP4 SSTORE PUSH1 0x20 SWAP5 DUP6 ADD SWAP5 PUSH1 0x1 SWAP1 SWAP4 ADD SWAP3 SWAP1 SWAP2 ADD SWAP1 PUSH2 0x1A74 JUMP JUMPDEST CALLVALUE PUSH2 0x321 JUMPI PUSH1 0x0 CALLDATASIZE PUSH1 0x3 NOT ADD SLT PUSH2 0x321 JUMPI PUSH1 0x20 PUSH1 0x2 SLOAD PUSH1 0x40 MLOAD SWAP1 DUP2 MSTORE RETURN JUMPDEST CALLVALUE PUSH2 0x321 JUMPI PUSH1 0x0 CALLDATASIZE PUSH1 0x3 NOT ADD SLT PUSH2 0x321 JUMPI PUSH2 0x1B17 PUSH1 0x1 DUP1 PUSH1 0xA0 SHL SUB PUSH1 0x0 SLOAD AND CALLER EQ PUSH2 0x4A82 JUMP JUMPDEST PUSH1 0x0 PUSH1 0x1 SWAP1 DUP2 SLOAD SWAP2 JUMPDEST DUP3 DUP2 GT ISZERO PUSH2 0x1BAD JUMPI POP PUSH2 0x1B32 SWAP1 PUSH2 0x4EFC JUMP JUMPDEST SWAP1 PUSH1 0x1 PUSH1 0x0 JUMPDEST DUP3 DUP3 GT ISZERO PUSH2 0x1B4E JUMPI PUSH1 0x40 MLOAD DUP1 PUSH2 0x3F6 DUP7 DUP3 PUSH2 0x4799 JUMP JUMPDEST DUP2 PUSH1 0x0 MSTORE PUSH1 0xB PUSH1 0x20 MSTORE PUSH1 0x40 PUSH1 0x0 KECCAK256 SWAP2 PUSH1 0xFF PUSH1 0x4 DUP5 ADD SLOAD PUSH1 0xA0 SHR AND ISZERO PUSH2 0x1B7F JUMPI JUMPDEST PUSH2 0x1B79 SWAP2 SWAP3 POP PUSH2 0x4AFC JUMP JUMPDEST SWAP1 PUSH2 0x1B38 JUMP JUMPDEST PUSH2 0x1BA4 DUP3 PUSH2 0x1B93 PUSH2 0x1091 PUSH2 0x1B79 SWAP6 SWAP3 PUSH2 0x4AFC JUMP JUMPDEST PUSH2 0x1B9D DUP3 DUP10 PUSH2 0x4FB2 JUMP JUMPDEST MSTORE DUP7 PUSH2 0x4FB2 JUMP JUMPDEST POP DUP3 SWAP2 POP PUSH2 0x1B6E JUMP JUMPDEST DUP1 PUSH1 0x0 MSTORE PUSH1 0xB PUSH1 0x20 MSTORE PUSH1 0xFF PUSH1 0x4 PUSH1 0x40 PUSH1 0x0 KECCAK256 ADD SLOAD PUSH1 0xA0 SHR AND ISZERO PUSH2 0x1BD9 JUMPI JUMPDEST PUSH2 0x1BD4 SWAP1 PUSH2 0x4AFC JUMP JUMPDEST PUSH2 0x1B20 JUMP JUMPDEST SWAP1 PUSH2 0x1BE6 PUSH2 0x1BD4 SWAP2 PUSH2 0x4AFC JUMP JUMPDEST SWAP2 SWAP1 POP PUSH2 0x1BCB JUMP JUMPDEST CALLVALUE PUSH2 0x321 JUMPI PUSH1 0x40 CALLDATASIZE PUSH1 0x3 NOT ADD SLT PUSH2 0x321 JUMPI PUSH2 0x1C07 PUSH2 0x453D JUMP JUMPDEST PUSH1 0x0 PUSH2 0x140 PUSH1 0x40 MLOAD PUSH2 0x1C18 DUP2 PUSH2 0x45A9 JUMP JUMPDEST DUP3 DUP2 MSTORE DUP3 PUSH1 0x20 DUP3 ADD MSTORE DUP3 PUSH1 0x40 DUP3 ADD MSTORE DUP3 PUSH1 0x60 DUP3 ADD MSTORE PUSH1 0x60 PUSH1 0x80 DUP3 ADD MSTORE PUSH1 0x60 PUSH1 0xA0 DUP3 ADD MSTORE PUSH1 0x60 PUSH1 0xC0 DUP3 ADD MSTORE PUSH1 0x60 PUSH1 0xE0 DUP3 ADD MSTORE PUSH1 0x60 PUSH2 0x100 DUP3 ADD MSTORE DUP3 PUSH2 0x120 DUP3 ADD MSTORE ADD MSTORE PUSH1 0x4 CALLDATALOAD PUSH1 0x0 MSTORE PUSH1 0xD PUSH1 0x20 MSTORE PUSH2 0x1D43 PUSH1 0x40 PUSH1 0x0 KECCAK256 SWAP2 PUSH1 0xA PUSH1 0x40 MLOAD SWAP4 PUSH2 0x1C7D DUP6 PUSH2 0x45A9 JUMP JUMPDEST DUP1 SLOAD DUP6 MSTORE PUSH1 0x1 DUP2 ADD SLOAD PUSH1 0x1 PUSH1 0x1 PUSH1 0xA0 SHL SUB SWAP1 DUP2 AND PUSH1 0x20 DUP8 ADD MSTORE PUSH1 0x2 DUP3 ADD SLOAD AND PUSH1 0x40 DUP7 ADD MSTORE PUSH1 0x3 DUP2 ADD SLOAD PUSH1 0x60 DUP7 ADD MSTORE PUSH2 0x1CB7 PUSH1 0x4 DUP3 ADD PUSH2 0x463A JUMP JUMPDEST PUSH1 0x80 DUP7 ADD MSTORE PUSH2 0x1CC8 PUSH1 0x5 DUP3 ADD PUSH2 0x463A JUMP JUMPDEST PUSH1 0xA0 DUP7 ADD MSTORE PUSH2 0x1CD9 PUSH1 0x6 DUP3 ADD PUSH2 0x463A JUMP JUMPDEST PUSH1 0xC0 DUP7 ADD MSTORE PUSH2 0x1CEA PUSH1 0x7 DUP3 ADD PUSH2 0x463A JUMP JUMPDEST PUSH1 0xE0 DUP7 ADD MSTORE PUSH2 0x1CFB PUSH1 0x8 DUP3 ADD PUSH2 0x463A JUMP JUMPDEST PUSH2 0x100 DUP7 ADD MSTORE PUSH1 0x9 DUP2 ADD SLOAD PUSH1 0xFF AND PUSH2 0x120 DUP7 ADD MSTORE ADD SLOAD PUSH2 0x140 DUP5 ADD MSTORE PUSH1 0x20 DUP4 ADD MLOAD PUSH1 0x1 PUSH1 0x1 PUSH1 0xA0 SHL SUB DUP3 DUP2 AND SWAP2 AND SWAP1 DUP2 EQ SWAP2 SWAP1 DUP3 ISZERO PUSH2 0x1E37 JUMPI JUMPDEST POP DUP2 ISZERO PUSH2 0x1E1E JUMPI JUMPDEST POP PUSH2 0x4E25 JUMP JUMPDEST PUSH1 0x40 MLOAD DUP1 SWAP2 PUSH1 0x20 DUP3 MSTORE DUP1 MLOAD PUSH1 0x20 DUP4 ADD MSTORE PUSH1 0x1 DUP1 PUSH1 0xA0 SHL SUB PUSH1 0x20 DUP3 ADD MLOAD AND PUSH1 0x40 DUP4 ADD MSTORE PUSH1 0x1 DUP1 PUSH1 0xA0 SHL SUB PUSH1 0x40 DUP3 ADD MLOAD AND PUSH1 0x60 DUP4 ADD MSTORE PUSH1 0x60 DUP2 ADD MLOAD PUSH1 0x80 DUP4 ADD MSTORE PUSH1 0x80 DUP2 ADD MLOAD PUSH2 0x140 PUSH2 0x1E06 PUSH2 0x1DA4 PUSH2 0x160 SWAP4 DUP5 PUSH1 0xA0 DUP9 ADD MSTORE PUSH2 0x180 DUP8 ADD SWAP1 PUSH2 0x46E0 JUMP JUMPDEST PUSH2 0x1DEF PUSH2 0x1DDA PUSH2 0x1DC6 PUSH1 0xA0 DUP9 ADD MLOAD SWAP4 PUSH1 0x1F NOT SWAP5 DUP6 DUP12 DUP4 SUB ADD PUSH1 0xC0 DUP13 ADD MSTORE PUSH2 0x46E0 JUMP JUMPDEST PUSH1 0xC0 DUP9 ADD MLOAD DUP5 DUP11 DUP4 SUB ADD PUSH1 0xE0 DUP12 ADD MSTORE PUSH2 0x46E0 JUMP JUMPDEST PUSH1 0xE0 DUP8 ADD MLOAD DUP4 DUP10 DUP4 SUB ADD PUSH2 0x100 DUP11 ADD MSTORE PUSH2 0x46E0 JUMP JUMPDEST SWAP1 PUSH2 0x100 DUP7 ADD MLOAD SWAP1 DUP8 DUP4 SUB ADD PUSH2 0x120 DUP9 ADD MSTORE PUSH2 0x46E0 JUMP JUMPDEST SWAP3 PUSH1 0xFF PUSH2 0x120 DUP3 ADD MLOAD AND DUP3 DUP7 ADD MSTORE ADD MLOAD SWAP1 DUP4 ADD MSTORE SUB SWAP1 RETURN JUMPDEST PUSH1 0x0 SLOAD PUSH1 0x1 PUSH1 0x1 PUSH1 0xA0 SHL SUB SWAP2 DUP3 AND SWAP2 AND EQ SWAP1 POP DUP4 PUSH2 0x1D3D JUMP JUMPDEST PUSH1 0x0 SWAP1 DUP2 MSTORE PUSH1 0x14 PUSH1 0x20 SWAP1 DUP2 MSTORE PUSH1 0x40 DUP1 DUP4 KECCAK256 PUSH1 0x1 PUSH1 0x1 PUSH1 0xA0 SHL SUB DUP6 AND DUP5 MSTORE SWAP1 SWAP2 MSTORE SWAP1 KECCAK256 SLOAD PUSH1 0xFF AND SWAP2 POP DUP5 PUSH2 0x1D35 JUMP JUMPDEST CALLVALUE PUSH2 0x321 JUMPI PUSH1 0xA0 CALLDATASIZE PUSH1 0x3 NOT ADD SLT PUSH2 0x321 JUMPI PUSH2 0x1E7E PUSH2 0x4527 JUMP JUMPDEST PUSH1 0x24 CALLDATALOAD PUSH1 0x1 PUSH1 0x1 PUSH1 0x40 SHL SUB DUP2 GT PUSH2 0x321 JUMPI PUSH2 0x1E9D SWAP1 CALLDATASIZE SWAP1 PUSH1 0x4 ADD PUSH2 0x48BC JUMP JUMPDEST PUSH1 0x44 CALLDATALOAD PUSH1 0x1 PUSH1 0x1 PUSH1 0x40 SHL SUB DUP2 GT PUSH2 0x321 JUMPI PUSH2 0x1EBC SWAP1 CALLDATASIZE SWAP1 PUSH1 0x4 ADD PUSH2 0x48BC JUMP JUMPDEST PUSH1 0x64 CALLDATALOAD PUSH1 0x1 PUSH1 0x1 PUSH1 0x40 SHL SUB DUP2 GT PUSH2 0x321 JUMPI PUSH2 0x1EDB SWAP1 CALLDATASIZE SWAP1 PUSH1 0x4 ADD PUSH2 0x48BC JUMP JUMPDEST PUSH1 0x84 CALLDATALOAD PUSH1 0x1 PUSH1 0x1 PUSH1 0x40 SHL SUB DUP2 GT PUSH2 0x321 JUMPI PUSH2 0x1EFA SWAP1 CALLDATASIZE SWAP1 PUSH1 0x4 ADD PUSH2 0x48BC JUMP JUMPDEST SWAP2 PUSH2 0x1F10 PUSH1 0x1 DUP1 PUSH1 0xA0 SHL SUB PUSH1 0x0 SLOAD AND CALLER EQ PUSH2 0x4A82 JUMP JUMPDEST PUSH1 0x1 PUSH1 0x1 PUSH1 0xA0 SHL SUB DUP6 AND PUSH1 0x0 SWAP1 DUP2 MSTORE PUSH1 0x8 PUSH1 0x20 MSTORE PUSH1 0x40 SWAP1 KECCAK256 SLOAD PUSH1 0xFF AND PUSH1 0x4 DUP2 LT ISZERO PUSH2 0x7D6 JUMPI PUSH2 0x1F3F SWAP1 ISZERO PUSH2 0x4ABB JUMP JUMPDEST PUSH2 0x1F4A PUSH1 0x1 SLOAD PUSH2 0x4AFC JUMP JUMPDEST SWAP4 DUP5 PUSH1 0x1 SSTORE PUSH1 0x40 MLOAD SWAP5 PUSH2 0x1F5C DUP7 PUSH2 0x45C5 JUMP JUMPDEST DUP6 MSTORE PUSH1 0x20 DUP6 ADD MSTORE PUSH1 0x40 DUP5 ADD MSTORE PUSH1 0x60 DUP4 ADD MSTORE PUSH1 0x1 DUP1 PUSH1 0xA0 SHL SUB DUP4 AND PUSH1 0x80 DUP4 ADD MSTORE PUSH1 0x0 PUSH1 0xA0 DUP4 ADD MSTORE PUSH1 0x0 PUSH1 0xC0 DUP4 ADD MSTORE PUSH1 0xE0 DUP3 ADD MSTORE PUSH1 0x0 PUSH2 0x100 DUP3 ADD MSTORE PUSH1 0x0 PUSH2 0x120 DUP3 ADD MSTORE PUSH1 0x0 PUSH2 0x140 DUP3 ADD MSTORE PUSH1 0x0 PUSH2 0x160 DUP3 ADD MSTORE PUSH1 0x0 PUSH2 0x180 DUP3 ADD MSTORE TIMESTAMP PUSH2 0x1A0 DUP3 ADD MSTORE PUSH1 0x1 DUP1 PUSH1 0xA0 SHL SUB DUP3 AND PUSH1 0x0 MSTORE PUSH1 0x9 PUSH1 0x20 MSTORE PUSH1 0x40 PUSH1 0x0 KECCAK256 SWAP1 DUP1 MLOAD DUP3 SSTORE PUSH1 0x20 DUP2 ADD MLOAD SWAP3 DUP4 MLOAD PUSH1 0x1 DUP1 PUSH1 0x40 SHL SUB DUP2 GT PUSH2 0x869 JUMPI PUSH2 0x2007 DUP2 PUSH2 0x1FFE PUSH1 0x1 DUP8 ADD SLOAD PUSH2 0x4553 JUMP JUMPDEST PUSH1 0x1 DUP8 ADD PUSH2 0x4B21 JUMP JUMPDEST PUSH1 0x20 PUSH1 0x1F DUP3 GT PUSH1 0x1 EQ PUSH2 0x24ED JUMPI DUP2 SWAP3 SWAP4 SWAP5 SWAP6 PUSH1 0x0 SWAP3 PUSH2 0x24E2 JUMPI JUMPDEST POP POP DUP2 PUSH1 0x1 SHL SWAP2 PUSH1 0x0 NOT SWAP1 PUSH1 0x3 SHL SHR NOT AND OR PUSH1 0x1 DUP5 ADD SSTORE JUMPDEST PUSH1 0x40 DUP3 ADD MLOAD DUP1 MLOAD SWAP1 SWAP4 SWAP1 PUSH1 0x1 PUSH1 0x1 PUSH1 0x40 SHL SUB DUP2 GT PUSH2 0x869 JUMPI PUSH2 0x206B DUP2 PUSH2 0x2062 PUSH1 0x2 DUP6 ADD SLOAD PUSH2 0x4553 JUMP JUMPDEST PUSH1 0x2 DUP6 ADD PUSH2 0x4B21 JUMP JUMPDEST PUSH1 0x20 PUSH1 0x1F DUP3 GT PUSH1 0x1 EQ PUSH2 0x2473 JUMPI DUP2 SWAP3 SWAP4 SWAP5 SWAP6 PUSH1 0x0 SWAP3 PUSH2 0x2468 JUMPI JUMPDEST POP POP DUP2 PUSH1 0x1 SHL SWAP2 PUSH1 0x0 NOT SWAP1 PUSH1 0x3 SHL SHR NOT AND OR PUSH1 0x2 DUP3 ADD SSTORE JUMPDEST PUSH1 0x60 DUP4 ADD MLOAD DUP1 MLOAD SWAP1 SWAP4 SWAP1 PUSH1 0x1 PUSH1 0x1 PUSH1 0x40 SHL SUB DUP2 GT PUSH2 0x869 JUMPI PUSH2 0x20CF DUP2 PUSH2 0x20C6 PUSH1 0x3 DUP7 ADD SLOAD PUSH2 0x4553 JUMP JUMPDEST PUSH1 0x3 DUP7 ADD PUSH2 0x4B21 JUMP JUMPDEST PUSH1 0x20 PUSH1 0x1F DUP3 GT PUSH1 0x1 EQ PUSH2 0x23F9 JUMPI DUP2 SWAP3 SWAP4 SWAP5 SWAP6 PUSH1 0x0 SWAP3 PUSH2 0x23EE JUMPI JUMPDEST POP POP DUP2 PUSH1 0x1 SHL SWAP2 PUSH1 0x0 NOT SWAP1 PUSH1 0x3 SHL SHR NOT AND OR PUSH1 0x3 DUP4 ADD SSTORE JUMPDEST PUSH1 0x80 DUP2 ADD MLOAD PUSH1 0x4 DUP4 ADD DUP1 SLOAD PUSH1 0x1 PUSH1 0x1 PUSH1 0xA0 SHL SUB NOT AND PUSH1 0x1 PUSH1 0x1 PUSH1 0xA0 SHL SUB SWAP3 SWAP1 SWAP3 AND SWAP2 SWAP1 SWAP2 OR DUP2 SSTORE PUSH1 0xA0 DUP3 ADD MLOAD PUSH2 0x213A SWAP2 SWAP1 ISZERO ISZERO SWAP1 PUSH2 0x4B75 JUMP JUMPDEST PUSH2 0x214D PUSH1 0xC0 DUP3 ADD MLOAD ISZERO ISZERO PUSH1 0x4 DUP5 ADD PUSH2 0x4D8B JUMP JUMPDEST PUSH1 0xE0 DUP2 ADD MLOAD DUP1 MLOAD SWAP1 PUSH1 0x1 PUSH1 0x1 PUSH1 0x40 SHL SUB DUP3 GT PUSH2 0x869 JUMPI PUSH2 0x2174 DUP3 PUSH2 0x674 PUSH1 0x5 DUP8 ADD SLOAD PUSH2 0x4553 JUMP JUMPDEST PUSH1 0x20 SWAP1 PUSH1 0x1F DUP4 GT PUSH1 0x1 EQ PUSH2 0x2378 JUMPI SWAP2 DUP1 PUSH1 0xB SWAP5 SWAP3 PUSH2 0x1A0 SWAP5 PUSH1 0x0 SWAP3 PUSH2 0x236D JUMPI JUMPDEST POP POP DUP2 PUSH1 0x1 SHL SWAP2 PUSH1 0x0 NOT SWAP1 PUSH1 0x3 SHL SHR NOT AND OR PUSH1 0x5 DUP6 ADD SSTORE JUMPDEST PUSH2 0x100 DUP2 ADD MLOAD PUSH1 0x6 DUP6 ADD SSTORE PUSH2 0x120 DUP2 ADD MLOAD PUSH1 0x7 DUP6 ADD SSTORE PUSH2 0x140 DUP2 ADD MLOAD PUSH1 0x8 DUP6 ADD SSTORE PUSH2 0x160 DUP2 ADD MLOAD PUSH1 0x9 DUP6 ADD SSTORE PUSH2 0x180 DUP2 ADD MLOAD PUSH1 0xA DUP6 ADD SSTORE ADD MLOAD SWAP2 ADD SSTORE PUSH1 0x1 DUP1 PUSH1 0xA0 SHL SUB DUP2 AND PUSH1 0x0 MSTORE PUSH1 0x9 PUSH1 0x20 MSTORE PUSH1 0x40 PUSH1 0x0 KECCAK256 PUSH1 0x1 SLOAD PUSH1 0x0 MSTORE PUSH1 0xB PUSH1 0x20 MSTORE PUSH1 0x40 PUSH1 0x0 KECCAK256 SWAP1 DUP1 DUP3 SUB PUSH2 0x22A7 JUMPI JUMPDEST PUSH1 0x1 PUSH1 0x1 PUSH1 0xA0 SHL SUB DUP4 AND PUSH1 0x0 DUP2 DUP2 MSTORE PUSH1 0x8 PUSH1 0x20 MSTORE PUSH1 0x40 DUP2 KECCAK256 DUP1 SLOAD PUSH1 0xFF NOT AND PUSH1 0x2 OR SWAP1 SSTORE PUSH1 0x1 SLOAD SWAP1 PUSH32 0x42C036E07D862E74381FFDC8CB61D4E0846B10E0DC32DC47FBBC0815EB4CEC6A SWAP1 DUP1 LOG3 PUSH1 0x0 SLOAD PUSH1 0x40 MLOAD PUSH2 0x7C5 SWAP2 PUSH1 0x1 PUSH1 0x1 PUSH1 0xA0 SHL SUB AND PUSH2 0x227E DUP3 PUSH2 0x45FC JUMP JUMPDEST PUSH1 0x17 DUP3 MSTORE PUSH23 0x2732BB903237B1BA37B9103932B3B4B9BA3930BA34B7B7 PUSH1 0x49 SHL PUSH1 0x20 DUP4 ADD MSTORE PUSH2 0x5293 JUMP JUMPDEST PUSH1 0xB DUP2 DUP2 SWAP3 SLOAD DUP5 SSTORE PUSH2 0x22BF PUSH1 0x1 DUP3 ADD PUSH1 0x1 DUP7 ADD PUSH2 0x4B92 JUMP JUMPDEST PUSH2 0x22CF PUSH1 0x2 DUP3 ADD PUSH1 0x2 DUP7 ADD PUSH2 0x4B92 JUMP JUMPDEST PUSH2 0x22DF PUSH1 0x3 DUP3 ADD PUSH1 0x3 DUP7 ADD PUSH2 0x4B92 JUMP JUMPDEST PUSH2 0x231F PUSH1 0x4 DUP6 ADD PUSH1 0xFF PUSH1 0x4 DUP5 ADD PUSH1 0x1 DUP1 PUSH1 0xA0 SHL SUB DUP2 SLOAD AND PUSH1 0x1 DUP1 PUSH1 0xA0 SHL SUB NOT DUP5 SLOAD AND OR DUP4 SSTORE PUSH2 0x2314 DUP3 DUP3 SLOAD PUSH1 0xA0 SHR AND DUP5 PUSH2 0x4B75 JUMP JUMPDEST SLOAD PUSH1 0xA8 SHR AND SWAP1 PUSH2 0x4D8B JUMP JUMPDEST PUSH2 0x232F PUSH1 0x5 DUP3 ADD PUSH1 0x5 DUP7 ADD PUSH2 0x4B92 JUMP JUMPDEST PUSH1 0x6 DUP2 ADD SLOAD PUSH1 0x6 DUP6 ADD SSTORE PUSH1 0x7 DUP2 ADD SLOAD PUSH1 0x7 DUP6 ADD SSTORE PUSH1 0x8 DUP2 ADD SLOAD PUSH1 0x8 DUP6 ADD SSTORE PUSH1 0x9 DUP2 ADD SLOAD PUSH1 0x9 DUP6 ADD SSTORE PUSH1 0xA DUP2 ADD SLOAD PUSH1 0xA DUP6 ADD SSTORE ADD SLOAD SWAP2 ADD SSTORE DUP2 DUP1 PUSH2 0x2217 JUMP JUMPDEST ADD MLOAD SWAP1 POP DUP8 DUP1 PUSH2 0x2194 JUMP JUMPDEST SWAP1 PUSH1 0x5 DUP6 ADD PUSH1 0x0 MSTORE PUSH1 0x20 PUSH1 0x0 KECCAK256 SWAP2 PUSH1 0x0 JUMPDEST PUSH1 0x1F NOT DUP6 AND DUP2 LT PUSH2 0x23D6 JUMPI POP SWAP3 PUSH1 0xB SWAP5 SWAP3 PUSH1 0x1 SWAP3 PUSH2 0x1A0 SWAP6 DUP4 PUSH1 0x1F NOT DUP2 AND LT PUSH2 0x23BD JUMPI JUMPDEST POP POP POP DUP2 SHL ADD PUSH1 0x5 DUP6 ADD SSTORE PUSH2 0x21AC JUMP JUMPDEST ADD MLOAD PUSH1 0x0 NOT PUSH1 0xF8 DUP5 PUSH1 0x3 SHL AND SHR NOT AND SWAP1 SSTORE DUP8 DUP1 DUP1 PUSH2 0x23AD JUMP JUMPDEST SWAP2 SWAP3 PUSH1 0x20 PUSH1 0x1 DUP2 SWAP3 DUP7 DUP6 ADD MLOAD DUP2 SSTORE ADD SWAP5 ADD SWAP3 ADD PUSH2 0x2389 JUMP JUMPDEST ADD MLOAD SWAP1 POP DUP6 DUP1 PUSH2 0x20E9 JUMP JUMPDEST PUSH1 0x3 DUP5 ADD PUSH1 0x0 MSTORE PUSH1 0x20 PUSH1 0x0 KECCAK256 SWAP1 PUSH1 0x0 JUMPDEST PUSH1 0x1F NOT DUP5 AND DUP2 LT PUSH2 0x2450 JUMPI POP PUSH1 0x1 SWAP4 SWAP5 SWAP6 SWAP7 DUP4 PUSH1 0x1F NOT DUP2 AND LT PUSH2 0x2437 JUMPI JUMPDEST POP POP POP DUP2 SHL ADD PUSH1 0x3 DUP4 ADD SSTORE PUSH2 0x2101 JUMP JUMPDEST ADD MLOAD PUSH1 0x0 NOT PUSH1 0xF8 DUP5 PUSH1 0x3 SHL AND SHR NOT AND SWAP1 SSTORE DUP6 DUP1 DUP1 PUSH2 0x2427 JUMP JUMPDEST SWAP1 SWAP2 PUSH1 0x20 PUSH1 0x1 DUP2 SWAP3 DUP6 DUP12 ADD MLOAD DUP2 SSTORE ADD SWAP4 ADD SWAP2 ADD PUSH2 0x2409 JUMP JUMPDEST ADD MLOAD SWAP1 POP DUP6 DUP1 PUSH2 0x2085 JUMP JUMPDEST PUSH1 0x2 DUP4 ADD PUSH1 0x0 MSTORE PUSH1 0x20 PUSH1 0x0 KECCAK256 SWAP1 PUSH1 0x0 JUMPDEST PUSH1 0x1F NOT DUP5 AND DUP2 LT PUSH2 0x24CA JUMPI POP PUSH1 0x1 SWAP4 SWAP5 SWAP6 SWAP7 DUP4 PUSH1 0x1F NOT DUP2 AND LT PUSH2 0x24B1 JUMPI JUMPDEST POP POP POP DUP2 SHL ADD PUSH1 0x2 DUP3 ADD SSTORE PUSH2 0x209D JUMP JUMPDEST ADD MLOAD PUSH1 0x0 NOT PUSH1 0xF8 DUP5 PUSH1 0x3 SHL AND SHR NOT AND SWAP1 SSTORE DUP6 DUP1 DUP1 PUSH2 0x24A1 JUMP JUMPDEST SWAP1 SWAP2 PUSH1 0x20 PUSH1 0x1 DUP2 SWAP3 DUP6 DUP12 ADD MLOAD DUP2 SSTORE ADD SWAP4 ADD SWAP2 ADD PUSH2 0x2483 JUMP JUMPDEST ADD MLOAD SWAP1 POP DUP6 DUP1 PUSH2 0x2021 JUMP JUMPDEST PUSH1 0x1 DUP6 ADD PUSH1 0x0 MSTORE PUSH1 0x20 PUSH1 0x0 KECCAK256 SWAP1 PUSH1 0x0 JUMPDEST PUSH1 0x1F NOT DUP5 AND DUP2 LT PUSH2 0x2544 JUMPI POP PUSH1 0x1 SWAP4 SWAP5 SWAP6 SWAP7 DUP4 PUSH1 0x1F NOT DUP2 AND LT PUSH2 0x252B JUMPI JUMPDEST POP POP POP DUP2 SHL ADD PUSH1 0x1 DUP5 ADD SSTORE PUSH2 0x2039 JUMP JUMPDEST ADD MLOAD PUSH1 0x0 NOT PUSH1 0xF8 DUP5 PUSH1 0x3 SHL AND SHR NOT AND SWAP1 SSTORE DUP6 DUP1 DUP1 PUSH2 0x251B JUMP JUMPDEST SWAP1 SWAP2 PUSH1 0x20 PUSH1 0x1 DUP2 SWAP3 DUP6 DUP12 ADD MLOAD DUP2 SSTORE ADD SWAP4 ADD SWAP2 ADD PUSH2 0x24FD JUMP JUMPDEST CALLVALUE PUSH2 0x321 JUMPI PUSH1 0x0 CALLDATASIZE PUSH1 0x3 NOT ADD SLT PUSH2 0x321 JUMPI PUSH1 0x20 PUSH1 0x4 SLOAD PUSH1 0x40 MLOAD SWAP1 DUP2 MSTORE RETURN JUMPDEST CALLVALUE PUSH2 0x321 JUMPI PUSH1 0x0 CALLDATASIZE PUSH1 0x3 NOT ADD SLT PUSH2 0x321 JUMPI PUSH1 0x20 PUSH1 0x6 SLOAD PUSH1 0x40 MLOAD SWAP1 DUP2 MSTORE RETURN JUMPDEST CALLVALUE PUSH2 0x321 JUMPI PUSH1 0x20 DUP1 PUSH1 0x3 NOT CALLDATASIZE ADD SLT PUSH2 0x321 JUMPI PUSH1 0x1 PUSH1 0x1 PUSH1 0xA0 SHL SUB PUSH2 0x25D7 DUP2 PUSH2 0x25BE PUSH2 0x4527 JUMP JUMPDEST AND SWAP2 DUP3 CALLER EQ SWAP1 DUP2 ISZERO PUSH2 0x263A JUMPI JUMPDEST DUP2 ISZERO PUSH2 0x262C JUMPI POP PUSH2 0x4E25 JUMP JUMPDEST PUSH1 0x0 MSTORE PUSH1 0x10 DUP2 MSTORE PUSH1 0x40 PUSH1 0x0 KECCAK256 SWAP1 PUSH1 0x40 MLOAD SWAP1 DUP2 DUP2 DUP5 SLOAD SWAP2 DUP3 DUP2 MSTORE ADD SWAP4 PUSH1 0x0 MSTORE DUP2 PUSH1 0x0 KECCAK256 SWAP2 PUSH1 0x0 SWAP1 JUMPDEST DUP3 DUP3 LT PUSH2 0x2615 JUMPI PUSH2 0x3F6 DUP6 PUSH2 0x12A3 DUP2 DUP10 SUB DUP3 PUSH2 0x4617 JUMP JUMPDEST DUP4 SLOAD DUP7 MSTORE SWAP5 DUP6 ADD SWAP5 PUSH1 0x1 SWAP4 DUP5 ADD SWAP4 SWAP1 SWAP2 ADD SWAP1 PUSH2 0x25FE JUMP JUMPDEST SWAP1 POP PUSH1 0x0 SLOAD AND CALLER EQ DUP5 PUSH2 0x1D3D JUMP JUMPDEST SWAP1 POP DUP3 PUSH1 0x0 MSTORE PUSH1 0x14 DUP5 MSTORE PUSH1 0x40 PUSH1 0x0 KECCAK256 CALLER PUSH1 0x0 MSTORE DUP5 MSTORE PUSH1 0xFF PUSH1 0x40 PUSH1 0x0 KECCAK256 SLOAD AND SWAP1 PUSH2 0x25CB JUMP JUMPDEST CALLVALUE PUSH2 0x321 JUMPI PUSH1 0x40 CALLDATASIZE PUSH1 0x3 NOT ADD SLT PUSH2 0x321 JUMPI PUSH2 0x2677 PUSH2 0x4527 JUMP JUMPDEST PUSH1 0x0 SLOAD PUSH1 0x24 CALLDATALOAD SWAP2 PUSH1 0x1 PUSH1 0x1 PUSH1 0xA0 SHL SUB SWAP2 PUSH2 0x2694 SWAP1 DUP4 AND CALLER EQ PUSH2 0x4A82 JUMP JUMPDEST DUP3 PUSH1 0x0 MSTORE PUSH1 0x11 PUSH1 0x20 MSTORE PUSH1 0x40 PUSH1 0x0 KECCAK256 SWAP2 DUP1 PUSH1 0x1 DUP5 ADD SLOAD AND SWAP2 AND SUB PUSH2 0x2743 JUMPI PUSH1 0x6 ADD DUP1 SLOAD PUSH1 0xFF DUP2 AND PUSH1 0x5 DUP2 LT ISZERO PUSH2 0x7D6 JUMPI DUP1 ISZERO SWAP1 DUP2 ISZERO PUSH2 0x2738 JUMPI JUMPDEST POP ISZERO PUSH2 0x2703 JUMPI PUSH1 0xFF NOT AND PUSH1 0x4 OR SWAP1 SSTORE PUSH32 0x4B0E2B6047BE1A990287B0818B6F06236BE270F55A306EC58398D8B9AA7F6E73 PUSH1 0x0 DUP1 LOG2 STOP JUMPDEST PUSH1 0x40 MLOAD PUSH3 0x461BCD PUSH1 0xE5 SHL DUP2 MSTORE PUSH1 0x20 PUSH1 0x4 DUP3 ADD MSTORE PUSH1 0xD PUSH1 0x24 DUP3 ADD MSTORE PUSH13 0x10D85B9B9BDD0818D85B98D95B PUSH1 0x9A SHL PUSH1 0x44 DUP3 ADD MSTORE PUSH1 0x64 SWAP1 REVERT JUMPDEST PUSH1 0x1 SWAP2 POP EQ DUP5 PUSH2 0x26CD JUMP JUMPDEST PUSH1 0x40 MLOAD PUSH3 0x461BCD PUSH1 0xE5 SHL DUP2 MSTORE PUSH1 0x20 PUSH1 0x4 DUP3 ADD MSTORE PUSH1 0x14 PUSH1 0x24 DUP3 ADD MSTORE PUSH20 0x139BDD081E5BDD5C88185C1C1BDA5B9D1B595B9D PUSH1 0x62 SHL PUSH1 0x44 DUP3 ADD MSTORE PUSH1 0x64 SWAP1 REVERT JUMPDEST CALLVALUE PUSH2 0x321 JUMPI PUSH1 0x40 CALLDATASIZE PUSH1 0x3 NOT ADD SLT PUSH2 0x321 JUMPI PUSH2 0x2798 PUSH2 0x4527 JUMP JUMPDEST PUSH1 0x24 CALLDATALOAD SWAP1 DUP2 ISZERO ISZERO DUP3 SUB PUSH2 0x321 JUMPI PUSH1 0x0 SLOAD PUSH1 0x1 PUSH1 0x1 PUSH1 0xA0 SHL SUB SWAP2 SWAP1 PUSH2 0x27BF SWAP1 DUP4 AND CALLER EQ PUSH2 0x4A82 JUMP JUMPDEST AND SWAP1 DUP2 PUSH1 0x0 MSTORE PUSH1 0x8 PUSH1 0x20 MSTORE PUSH1 0xFF PUSH1 0x40 PUSH1 0x0 KECCAK256 SLOAD AND SWAP2 PUSH1 0x4 DUP4 LT ISZERO PUSH2 0x7D6 JUMPI PUSH1 0x2 PUSH2 0x7C5 SWAP4 EQ DUP1 PUSH2 0x2823 JUMPI JUMPDEST PUSH2 0x27F3 SWAP1 PUSH2 0x4DE3 JUMP JUMPDEST PUSH1 0x0 MSTORE PUSH1 0x9 PUSH1 0x20 MSTORE PUSH1 0x40 PUSH1 0x0 KECCAK256 PUSH2 0x280D DUP3 PUSH1 0x4 DUP4 ADD PUSH2 0x4D8B JUMP JUMPDEST SLOAD PUSH1 0x0 MSTORE PUSH1 0xB PUSH1 0x20 MSTORE PUSH1 0x4 PUSH1 0x40 PUSH1 0x0 KECCAK256 ADD PUSH2 0x4D8B JUMP JUMPDEST POP PUSH1 0x0 DUP2 DUP2 MSTORE PUSH1 0x9 PUSH1 0x20 MSTORE PUSH1 0x40 SWAP1 KECCAK256 PUSH1 0x4 ADD SLOAD PUSH1 0xA0 SHR PUSH1 0xFF AND PUSH2 0x27EA JUMP JUMPDEST CALLVALUE PUSH2 0x321 JUMPI PUSH1 0x0 CALLDATASIZE PUSH1 0x3 NOT ADD SLT PUSH2 0x321 JUMPI PUSH1 0x20 PUSH1 0x1 SLOAD PUSH1 0x40 MLOAD SWAP1 DUP2 MSTORE RETURN JUMPDEST CALLVALUE PUSH2 0x321 JUMPI PUSH1 0x20 CALLDATASIZE PUSH1 0x3 NOT ADD SLT PUSH2 0x321 JUMPI PUSH1 0x4 CALLDATALOAD PUSH1 0x0 MSTORE PUSH1 0xD PUSH1 0x20 MSTORE PUSH1 0x40 PUSH1 0x0 KECCAK256 DUP1 SLOAD PUSH1 0x1 PUSH1 0xA0 SHL PUSH1 0x1 SWAP1 SUB SWAP2 DUP3 PUSH1 0x1 DUP3 ADD SLOAD AND SWAP3 PUSH1 0x2 DUP3 ADD SLOAD AND PUSH1 0x3 DUP3 ADD SLOAD PUSH1 0x4 DUP4 ADD PUSH2 0x28AC SWAP1 PUSH2 0x463A JUMP JUMPDEST PUSH2 0x28B8 PUSH1 0x5 DUP6 ADD PUSH2 0x463A JUMP JUMPDEST PUSH2 0x28C4 PUSH1 0x6 DUP7 ADD PUSH2 0x463A JUMP JUMPDEST SWAP1 PUSH2 0x28D1 PUSH1 0x7 DUP8 ADD PUSH2 0x463A JUMP JUMPDEST SWAP3 PUSH2 0x28DE PUSH1 0x8 DUP9 ADD PUSH2 0x463A JUMP JUMPDEST SWAP5 PUSH1 0x9 DUP9 ADD SLOAD PUSH1 0xFF AND SWAP8 PUSH1 0xA ADD SLOAD SWAP7 PUSH1 0x40 MLOAD SWAP11 DUP12 SWAP11 DUP12 MSTORE PUSH1 0x20 DUP12 ADD MSTORE PUSH1 0x40 DUP11 ADD MSTORE PUSH1 0x60 DUP10 ADD MSTORE PUSH2 0x160 DUP1 PUSH1 0x80 DUP11 ADD MSTORE DUP9 ADD PUSH2 0x2918 SWAP2 PUSH2 0x46E0 JUMP JUMPDEST DUP8 DUP2 SUB PUSH1 0xA0 DUP10 ADD MSTORE PUSH2 0x2929 SWAP2 PUSH2 0x46E0 JUMP JUMPDEST DUP7 DUP2 SUB PUSH1 0xC0 DUP9 ADD MSTORE PUSH2 0x293A SWAP2 PUSH2 0x46E0 JUMP JUMPDEST DUP6 DUP2 SUB PUSH1 0xE0 DUP8 ADD MSTORE PUSH2 0x294B SWAP2 PUSH2 0x46E0 JUMP JUMPDEST DUP5 DUP2 SUB PUSH2 0x100 DUP7 ADD MSTORE PUSH2 0x295D SWAP2 PUSH2 0x46E0 JUMP JUMPDEST SWAP2 PUSH2 0x120 DUP5 ADD MSTORE PUSH2 0x140 DUP4 ADD MSTORE SUB SWAP1 RETURN JUMPDEST CALLVALUE PUSH2 0x321 JUMPI PUSH1 0x20 CALLDATASIZE PUSH1 0x3 NOT ADD SLT PUSH2 0x321 JUMPI PUSH1 0x1 PUSH1 0x1 PUSH1 0xA0 SHL SUB PUSH2 0x298F PUSH2 0x4527 JUMP JUMPDEST AND PUSH1 0x0 MSTORE PUSH1 0x8 PUSH1 0x20 MSTORE PUSH2 0x3F6 PUSH1 0xFF PUSH1 0x40 PUSH1 0x0 KECCAK256 SLOAD AND PUSH1 0x40 MLOAD SWAP2 DUP3 SWAP2 DUP3 PUSH2 0x49D3 JUMP JUMPDEST CALLVALUE PUSH2 0x321 JUMPI PUSH1 0x0 CALLDATASIZE PUSH1 0x3 NOT ADD SLT PUSH2 0x321 JUMPI PUSH1 0x20 PUSH1 0x5 SLOAD PUSH1 0x40 MLOAD SWAP1 DUP2 MSTORE RETURN JUMPDEST CALLVALUE PUSH2 0x321 JUMPI PUSH1 0x0 CALLDATASIZE PUSH1 0x3 NOT ADD SLT PUSH2 0x321 JUMPI CALLER PUSH1 0x0 MSTORE PUSH1 0x8 PUSH1 0x20 MSTORE PUSH2 0x3F6 PUSH1 0xFF PUSH1 0x40 PUSH1 0x0 KECCAK256 SLOAD AND PUSH1 0x40 MLOAD SWAP2 DUP3 SWAP2 DUP3 PUSH2 0x49D3 JUMP JUMPDEST CALLVALUE PUSH2 0x321 JUMPI PUSH1 0x40 CALLDATASIZE PUSH1 0x3 NOT ADD SLT PUSH2 0x321 JUMPI PUSH2 0x2A19 PUSH2 0x4527 JUMP JUMPDEST PUSH1 0x0 SLOAD PUSH1 0x24 CALLDATALOAD SWAP2 PUSH1 0x1 PUSH1 0x1 PUSH1 0xA0 SHL SUB SWAP2 PUSH2 0x2A36 SWAP1 DUP4 AND CALLER EQ PUSH2 0x4A82 JUMP JUMPDEST DUP3 PUSH1 0x0 MSTORE PUSH1 0x11 PUSH1 0x20 MSTORE PUSH1 0x40 PUSH1 0x0 KECCAK256 SWAP1 DUP3 DUP1 PUSH1 0x2 DUP5 ADD SLOAD AND SWAP2 AND EQ DUP1 PUSH2 0x2AD1 JUMPI JUMPDEST SWAP1 PUSH2 0x7C5 SWAP4 PUSH2 0x2A66 PUSH1 0x1 SWAP4 PUSH2 0x4D10 JUMP JUMPDEST PUSH1 0x6 DUP3 ADD DUP1 SLOAD PUSH1 0xFF NOT AND PUSH1 0x3 OR SWAP1 SSTORE PUSH32 0x96F7F7D72A3FE4B137949271CEAB16AB2121BE2FAEDA69BB82794730701668CA PUSH1 0x0 DUP1 LOG2 ADD SLOAD AND PUSH1 0x40 MLOAD SWAP1 PUSH2 0x2AAA DUP3 PUSH2 0x45FC JUMP JUMPDEST PUSH1 0x15 DUP3 MSTORE PUSH21 0x105C1C1BDA5B9D1B595B9D0818DBDB5C1B195D1959 PUSH1 0x5A SHL PUSH1 0x20 DUP4 ADD MSTORE PUSH2 0x5293 JUMP JUMPDEST POP PUSH1 0xFF PUSH1 0x6 DUP3 ADD SLOAD AND SWAP1 PUSH1 0x5 DUP3 LT ISZERO PUSH2 0x7D6 JUMPI SWAP1 PUSH1 0x1 EQ PUSH2 0x2A56 JUMP JUMPDEST CALLVALUE PUSH2 0x321 JUMPI PUSH1 0x80 CALLDATASIZE PUSH1 0x3 NOT ADD SLT PUSH2 0x321 JUMPI PUSH2 0x2B06 PUSH2 0x4527 JUMP JUMPDEST PUSH1 0x24 CALLDATALOAD SWAP1 PUSH1 0x44 CALLDATALOAD SWAP1 PUSH1 0xFF DUP3 AND DUP1 SWAP3 SUB PUSH2 0x321 JUMPI PUSH1 0x1 PUSH1 0x1 PUSH1 0x40 SHL SUB SWAP3 PUSH1 0x64 CALLDATALOAD DUP5 DUP2 GT PUSH2 0x321 JUMPI PUSH2 0x2B3A SWAP1 CALLDATASIZE SWAP1 PUSH1 0x4 ADD PUSH2 0x48BC JUMP JUMPDEST PUSH1 0x0 SLOAD SWAP1 SWAP3 PUSH1 0x1 PUSH1 0x1 PUSH1 0xA0 SHL SUB SWAP2 PUSH2 0x2B55 SWAP1 DUP4 AND CALLER EQ PUSH2 0x4A82 JUMP JUMPDEST PUSH1 0x1 DUP1 DUP7 LT ISZERO DUP1 PUSH2 0x2E3E JUMPI JUMPDEST DUP1 PUSH2 0x2E25 JUMPI JUMPDEST PUSH2 0x2B70 SWAP1 PUSH2 0x4D10 JUMP JUMPDEST DUP4 PUSH1 0x0 MSTORE PUSH1 0x20 SWAP4 PUSH1 0x11 DUP6 MSTORE PUSH1 0x40 PUSH1 0x0 KECCAK256 SWAP8 DUP5 DUP1 DUP5 DUP12 ADD SLOAD AND SWAP5 AND DUP1 SWAP5 EQ DUP1 PUSH2 0x2E0B JUMPI JUMPDEST PUSH2 0x2B9C SWAP1 PUSH2 0x4D10 JUMP JUMPDEST PUSH1 0x2 PUSH2 0x2BA9 PUSH1 0x7 SLOAD PUSH2 0x4AFC JUMP JUMPDEST SWAP10 DUP11 PUSH1 0x7 SSTORE ADD SWAP7 DUP6 DUP9 SLOAD AND SWAP2 PUSH1 0x40 MLOAD SWAP3 PUSH1 0xE0 DUP5 ADD DUP5 DUP2 LT DUP4 DUP3 GT OR PUSH2 0x869 JUMPI PUSH1 0x40 MSTORE DUP12 DUP5 MSTORE DUP9 DUP5 ADD SWAP7 DUP8 MSTORE PUSH1 0x40 DUP5 ADD SWAP1 DUP2 MSTORE PUSH1 0x60 DUP5 ADD SWAP1 DUP6 DUP3 MSTORE PUSH1 0x80 DUP6 ADD SWAP8 DUP13 DUP10 MSTORE PUSH1 0xA0 DUP7 ADD SWAP5 DUP6 MSTORE PUSH1 0xC0 DUP7 ADD SWAP14 DUP15 TIMESTAMP SWAP1 MSTORE PUSH1 0x0 MSTORE PUSH1 0x17 DUP12 MSTORE PUSH1 0x40 PUSH1 0x0 KECCAK256 SWAP6 MLOAD DUP7 SSTORE DUP10 DUP9 DUP8 ADD SWAP2 MLOAD AND SWAP1 PUSH1 0x1 DUP1 PUSH1 0xA0 SHL SUB NOT SWAP2 DUP3 DUP3 SLOAD AND OR SWAP1 SSTORE DUP10 PUSH1 0x2 DUP8 ADD SWAP3 MLOAD AND SWAP1 DUP3 SLOAD AND OR SWAP1 SSTORE MLOAD PUSH1 0x3 DUP5 ADD SSTORE PUSH1 0xFF PUSH1 0x4 DUP5 ADD SWAP7 MLOAD AND SWAP6 PUSH1 0xFF NOT SWAP7 DUP8 DUP3 SLOAD AND OR SWAP1 SSTORE PUSH1 0x5 DUP4 ADD SWAP2 MLOAD DUP1 MLOAD SWAP2 DUP3 GT PUSH2 0x869 JUMPI PUSH2 0x2C70 DUP3 PUSH2 0x2C6A DUP6 SLOAD PUSH2 0x4553 JUMP JUMPDEST DUP6 PUSH2 0x4B21 JUMP JUMPDEST DUP9 SWAP1 PUSH1 0x1F DUP4 GT PUSH1 0x1 EQ PUSH2 0x2D93 JUMPI SWAP2 DUP1 PUSH1 0x6 SWAP5 SWAP3 PUSH1 0x0 DUP1 MLOAD PUSH1 0x20 PUSH2 0x5305 DUP4 CODECOPY DUP2 MLOAD SWAP2 MSTORE SWAP13 SWAP14 SWAP15 SWAP5 PUSH1 0x0 SWAP3 PUSH2 0x2D88 JUMPI JUMPDEST POP POP PUSH1 0x0 NOT PUSH1 0x3 DUP4 SWAP1 SHL SHR NOT AND SWAP1 DUP8 SHL OR SWAP1 SSTORE JUMPDEST MLOAD SWAP2 ADD SSTORE DUP4 DUP8 SLOAD AND PUSH1 0x0 MSTORE PUSH1 0x18 DUP6 MSTORE PUSH2 0x2CD2 PUSH1 0x40 PUSH1 0x0 KECCAK256 PUSH1 0x7 SLOAD SWAP1 PUSH2 0x4CDB JUMP JUMPDEST PUSH1 0x0 MSTORE PUSH1 0x19 DUP5 MSTORE PUSH1 0x40 PUSH1 0x0 KECCAK256 SWAP2 DUP3 SLOAD AND OR SWAP1 SSTORE DUP1 DUP5 SLOAD AND PUSH1 0x0 MSTORE PUSH1 0x9 DUP1 DUP4 MSTORE DUP1 PUSH1 0x40 PUSH1 0x0 KECCAK256 ADD PUSH2 0x2D03 DUP8 DUP3 SLOAD PUSH2 0x4D7E JUMP JUMPDEST SWAP1 SSTORE DUP2 DUP6 SLOAD AND PUSH1 0x0 MSTORE DUP1 DUP4 MSTORE PUSH1 0xA PUSH1 0x40 PUSH1 0x0 KECCAK256 ADD PUSH2 0x2D21 DUP2 SLOAD PUSH2 0x4AFC JUMP JUMPDEST SWAP1 SSTORE DUP2 DUP6 SLOAD AND PUSH1 0x0 MSTORE DUP1 DUP4 MSTORE PUSH1 0x40 PUSH1 0x0 KECCAK256 SLOAD PUSH1 0x0 MSTORE PUSH1 0xB DUP4 MSTORE DUP1 PUSH1 0x40 PUSH1 0x0 KECCAK256 ADD PUSH2 0x2D4C DUP8 DUP3 SLOAD PUSH2 0x4D7E JUMP JUMPDEST SWAP1 SSTORE DUP2 DUP6 SLOAD AND PUSH1 0x0 MSTORE DUP3 MSTORE PUSH1 0x40 PUSH1 0x0 KECCAK256 SLOAD PUSH1 0x0 MSTORE PUSH1 0xB DUP3 MSTORE PUSH1 0xA PUSH1 0x40 PUSH1 0x0 KECCAK256 ADD PUSH2 0x2D76 DUP2 SLOAD PUSH2 0x4AFC JUMP JUMPDEST SWAP1 SSTORE PUSH1 0x7 SLOAD SWAP4 SLOAD AND SWAP4 PUSH1 0x40 MLOAD SWAP1 DUP2 MSTORE LOG3 STOP JUMPDEST ADD MLOAD SWAP1 POP DUP15 DUP1 PUSH2 0x2C9E JUMP JUMPDEST SWAP1 PUSH1 0x1F NOT DUP4 AND SWAP2 DUP5 PUSH1 0x0 MSTORE DUP11 PUSH1 0x0 KECCAK256 SWAP3 PUSH1 0x0 JUMPDEST DUP2 DUP2 LT PUSH2 0x2DF6 JUMPI POP SWAP3 DUP9 SWAP3 PUSH1 0x0 DUP1 MLOAD PUSH1 0x20 PUSH2 0x5305 DUP4 CODECOPY DUP2 MLOAD SWAP2 MSTORE SWAP14 SWAP15 SWAP16 SWAP6 SWAP3 DUP4 PUSH1 0x6 SWAP9 SWAP7 LT PUSH2 0x2DDD JUMPI JUMPDEST POP POP POP DUP2 SHL ADD SWAP1 SSTORE PUSH2 0x2CB2 JUMP JUMPDEST ADD MLOAD PUSH1 0x0 NOT PUSH1 0xF8 DUP5 PUSH1 0x3 SHL AND SHR NOT AND SWAP1 SSTORE DUP15 DUP1 DUP1 PUSH2 0x2DD0 JUMP JUMPDEST DUP3 DUP5 ADD MLOAD DUP6 SSTORE SWAP4 DUP10 ADD SWAP4 SWAP3 DUP13 ADD SWAP3 DUP13 ADD PUSH2 0x2DA6 JUMP JUMPDEST POP PUSH1 0xFF PUSH1 0x6 DUP11 ADD SLOAD AND PUSH1 0x5 DUP2 LT ISZERO PUSH2 0x7D6 JUMPI PUSH1 0x3 EQ PUSH2 0x2B93 JUMP JUMPDEST POP PUSH1 0x0 DUP5 DUP2 MSTORE PUSH1 0x19 PUSH1 0x20 MSTORE PUSH1 0x40 SWAP1 KECCAK256 SLOAD PUSH1 0xFF AND ISZERO PUSH2 0x2B67 JUMP JUMPDEST POP PUSH1 0x5 DUP7 GT ISZERO PUSH2 0x2B61 JUMP JUMPDEST CALLVALUE PUSH2 0x321 JUMPI PUSH1 0x40 CALLDATASIZE PUSH1 0x3 NOT ADD SLT PUSH2 0x321 JUMPI PUSH2 0x2E62 PUSH2 0x4527 JUMP JUMPDEST PUSH2 0x2E6A PUSH2 0x453D JUMP JUMPDEST SWAP1 PUSH1 0x1 DUP1 PUSH1 0xA0 SHL SUB DUP1 SWAP2 AND PUSH1 0x0 MSTORE PUSH1 0x14 PUSH1 0x20 MSTORE PUSH1 0x40 PUSH1 0x0 KECCAK256 SWAP2 AND PUSH1 0x0 MSTORE PUSH1 0x20 MSTORE PUSH1 0x20 PUSH1 0xFF PUSH1 0x40 PUSH1 0x0 KECCAK256 SLOAD AND PUSH1 0x40 MLOAD SWAP1 ISZERO ISZERO DUP2 MSTORE RETURN JUMPDEST CALLVALUE PUSH2 0x321 JUMPI PUSH1 0x20 DUP1 PUSH1 0x3 NOT CALLDATASIZE ADD SLT PUSH2 0x321 JUMPI PUSH1 0x1 PUSH1 0x1 PUSH1 0xA0 SHL SUB PUSH2 0x2EC5 DUP2 PUSH2 0x25BE PUSH2 0x4527 JUMP JUMPDEST PUSH1 0x0 MSTORE PUSH1 0xE DUP2 MSTORE PUSH1 0x40 PUSH1 0x0 KECCAK256 SWAP1 PUSH1 0x40 MLOAD SWAP1 DUP2 DUP2 DUP5 SLOAD SWAP2 DUP3 DUP2 MSTORE ADD SWAP4 PUSH1 0x0 MSTORE DUP2 PUSH1 0x0 KECCAK256 SWAP2 PUSH1 0x0 SWAP1 JUMPDEST DUP3 DUP3 LT PUSH2 0x2F03 JUMPI PUSH2 0x3F6 DUP6 PUSH2 0x12A3 DUP2 DUP10 SUB DUP3 PUSH2 0x4617 JUMP JUMPDEST DUP4 SLOAD DUP7 MSTORE SWAP5 DUP6 ADD SWAP5 PUSH1 0x1 SWAP4 DUP5 ADD SWAP4 SWAP1 SWAP2 ADD SWAP1 PUSH2 0x2EEC JUMP JUMPDEST CALLVALUE PUSH2 0x321 JUMPI PUSH1 0x20 DUP1 PUSH1 0x3 NOT CALLDATASIZE ADD SLT PUSH2 0x321 JUMPI PUSH2 0x2F34 PUSH2 0x4527 JUMP JUMPDEST SWAP1 PUSH1 0x1 DUP1 PUSH1 0xA0 SHL SUB PUSH2 0x2F4B DUP2 PUSH1 0x0 SLOAD AND CALLER EQ PUSH2 0x4A82 JUMP JUMPDEST DUP3 AND SWAP2 DUP3 PUSH1 0x0 MSTORE PUSH1 0x8 DUP3 MSTORE PUSH1 0xFF PUSH1 0x40 PUSH1 0x0 KECCAK256 SLOAD AND SWAP3 PUSH1 0x4 DUP5 LT ISZERO PUSH2 0x7D6 JUMPI PUSH2 0x2F78 PUSH1 0x2 PUSH2 0x7C5 SWAP6 EQ PUSH2 0x4DA8 JUMP JUMPDEST PUSH1 0x0 DUP2 DUP2 MSTORE PUSH1 0x9 DUP1 DUP6 MSTORE PUSH1 0x40 DUP1 DUP4 KECCAK256 PUSH1 0x4 DUP1 DUP3 ADD DUP1 SLOAD PUSH2 0xFFFF PUSH1 0xA0 SHL NOT AND PUSH2 0x101 PUSH1 0xA0 SHL OR SWAP1 SSTORE SWAP1 SLOAD DUP5 MSTORE PUSH1 0xB DUP1 DUP9 MSTORE DUP3 DUP6 KECCAK256 DUP3 ADD DUP1 SLOAD PUSH1 0xFF PUSH1 0xA0 SHL NOT AND PUSH1 0x1 PUSH1 0xA0 SHL OR SWAP1 SSTORE DUP6 DUP6 MSTORE DUP4 DUP9 MSTORE DUP3 DUP6 KECCAK256 SLOAD DUP6 MSTORE DUP8 MSTORE DUP2 DUP5 KECCAK256 ADD DUP1 SLOAD PUSH1 0xFF PUSH1 0xA8 SHL NOT AND PUSH1 0x1 PUSH1 0xA8 SHL OR SWAP1 SSTORE DUP4 DUP4 MSTORE SWAP1 DUP6 MSTORE DUP2 KECCAK256 SLOAD SWAP1 PUSH32 0x82A9D2D26851A46F4061A14C2B6CE80F28FD47EC8CC14BC16E6D01B60B504AAE SWAP1 DUP1 LOG3 PUSH32 0x596F757220726567697374726174696F6E20686173206265656E20617070726F PUSH1 0x40 MLOAD SWAP3 PUSH2 0x303D DUP5 PUSH2 0x45E1 JUMP JUMPDEST PUSH1 0x24 DUP5 MSTORE DUP4 ADD MSTORE PUSH4 0x76656421 PUSH1 0xE0 SHL PUSH1 0x40 DUP4 ADD MSTORE PUSH2 0x5293 JUMP JUMPDEST CALLVALUE PUSH2 0x321 JUMPI PUSH2 0x3064 CALLDATASIZE PUSH2 0x4991 JUMP JUMPDEST PUSH1 0x0 SLOAD SWAP1 SWAP2 PUSH1 0x1 PUSH1 0x1 PUSH1 0xA0 SHL SUB SWAP2 PUSH2 0x307F SWAP1 DUP4 AND CALLER EQ PUSH2 0x4A82 JUMP JUMPDEST AND DUP1 PUSH1 0x0 MSTORE PUSH1 0x20 SWAP2 PUSH1 0x8 DUP4 MSTORE PUSH1 0xFF PUSH1 0x40 PUSH1 0x0 KECCAK256 SLOAD AND PUSH1 0x4 DUP2 LT ISZERO PUSH2 0x7D6 JUMPI PUSH1 0x2 PUSH2 0x30A9 SWAP2 EQ PUSH2 0x4DA8 JUMP JUMPDEST PUSH1 0x0 DUP3 DUP2 MSTORE PUSH1 0x9 DUP5 MSTORE PUSH1 0x40 SWAP1 KECCAK256 DUP2 MLOAD PUSH1 0x1 PUSH1 0x1 PUSH1 0x40 SHL SUB SWAP5 SWAP2 PUSH1 0x5 ADD SWAP1 DUP6 DUP2 GT PUSH2 0x869 JUMPI PUSH2 0x30DB DUP2 PUSH2 0xE22 DUP5 SLOAD PUSH2 0x4553 JUMP JUMPDEST DUP1 DUP4 PUSH1 0x1F DUP3 GT PUSH1 0x1 EQ PUSH2 0x31E9 JUMPI PUSH1 0x0 SWAP2 PUSH2 0x31DE JUMPI JUMPDEST POP DUP2 PUSH1 0x1 SHL SWAP2 PUSH1 0x0 NOT SWAP1 PUSH1 0x3 SHL SHR NOT AND OR SWAP1 SSTORE JUMPDEST DUP3 PUSH1 0x0 MSTORE PUSH1 0x9 DUP2 MSTORE PUSH1 0x40 PUSH1 0x0 KECCAK256 SLOAD PUSH1 0x0 MSTORE PUSH1 0xB DUP2 MSTORE PUSH1 0x5 PUSH1 0x40 PUSH1 0x0 KECCAK256 ADD DUP3 MLOAD SWAP5 DUP6 GT PUSH2 0x869 JUMPI PUSH2 0x3138 DUP6 PUSH2 0xE85 DUP4 SLOAD PUSH2 0x4553 JUMP JUMPDEST DUP2 PUSH1 0x1F DUP7 GT PUSH1 0x1 EQ PUSH2 0x3185 JUMPI SWAP5 DUP1 PUSH1 0x0 DUP1 MLOAD PUSH1 0x20 PUSH2 0x5325 DUP4 CODECOPY DUP2 MLOAD SWAP2 MSTORE SWAP6 SWAP7 PUSH1 0x0 SWAP2 PUSH2 0xEDF JUMPI POP DUP2 PUSH1 0x1 SHL SWAP2 PUSH1 0x0 NOT SWAP1 PUSH1 0x3 SHL SHR NOT AND OR SWAP1 SSTORE PUSH2 0xEDA PUSH1 0x40 MLOAD SWAP3 DUP3 DUP5 SWAP4 DUP5 MSTORE DUP4 ADD SWAP1 PUSH2 0x46E0 JUMP JUMPDEST PUSH1 0x1F NOT DUP7 AND SWAP1 DUP3 PUSH1 0x0 MSTORE DUP4 PUSH1 0x0 KECCAK256 SWAP2 PUSH1 0x0 JUMPDEST DUP2 DUP2 LT PUSH2 0x31C7 JUMPI POP SWAP2 DUP8 SWAP2 PUSH1 0x0 DUP1 MLOAD PUSH1 0x20 PUSH2 0x5325 DUP4 CODECOPY DUP2 MLOAD SWAP2 MSTORE SWAP8 SWAP9 PUSH1 0x1 SWAP5 LT PUSH2 0xF2D JUMPI POP POP DUP2 SHL ADD SWAP1 SSTORE PUSH2 0xEC6 JUMP JUMPDEST SWAP2 SWAP3 DUP6 PUSH1 0x1 DUP2 SWAP3 DUP7 DUP11 ADD MLOAD DUP2 SSTORE ADD SWAP5 ADD SWAP3 ADD PUSH2 0x3197 JUMP JUMPDEST SWAP1 POP DUP5 ADD MLOAD DUP8 PUSH2 0x30F0 JUMP JUMPDEST PUSH1 0x0 DUP5 DUP2 MSTORE DUP6 DUP2 KECCAK256 SWAP3 POP PUSH1 0x1F NOT DUP5 AND SWAP1 JUMPDEST DUP7 DUP3 DUP3 LT PUSH2 0x3236 JUMPI POP POP SWAP1 DUP4 PUSH1 0x1 SWAP5 SWAP4 SWAP3 LT PUSH2 0x321D JUMPI JUMPDEST POP POP DUP2 SHL ADD SWAP1 SSTORE PUSH2 0x3104 JUMP JUMPDEST DUP7 ADD MLOAD PUSH1 0x0 NOT PUSH1 0xF8 DUP5 PUSH1 0x3 SHL AND SHR NOT AND SWAP1 SSTORE DUP8 DUP1 PUSH2 0x3211 JUMP JUMPDEST PUSH1 0x1 DUP5 SWAP6 DUP3 SWAP4 SWAP6 DUP12 ADD MLOAD DUP2 SSTORE ADD SWAP5 ADD SWAP3 ADD PUSH2 0x31FA JUMP JUMPDEST CALLVALUE PUSH2 0x321 JUMPI PUSH1 0xC0 CALLDATASIZE PUSH1 0x3 NOT ADD SLT PUSH2 0x321 JUMPI PUSH2 0x3265 PUSH2 0x4527 JUMP JUMPDEST PUSH1 0x24 CALLDATALOAD PUSH1 0x1 PUSH1 0x1 PUSH1 0x40 SHL SUB DUP2 GT PUSH2 0x321 JUMPI PUSH2 0x3284 SWAP1 CALLDATASIZE SWAP1 PUSH1 0x4 ADD PUSH2 0x48BC JUMP JUMPDEST SWAP1 PUSH1 0x64 CALLDATALOAD PUSH1 0x1 PUSH1 0x1 PUSH1 0x40 SHL SUB DUP2 GT PUSH2 0x321 JUMPI PUSH2 0x32A4 SWAP1 CALLDATASIZE SWAP1 PUSH1 0x4 ADD PUSH2 0x48BC JUMP JUMPDEST PUSH1 0x84 CALLDATALOAD PUSH1 0x1 PUSH1 0x1 PUSH1 0x40 SHL SUB DUP2 GT PUSH2 0x321 JUMPI PUSH2 0x32C3 SWAP1 CALLDATASIZE SWAP1 PUSH1 0x4 ADD PUSH2 0x48BC JUMP JUMPDEST PUSH1 0xA4 CALLDATALOAD PUSH1 0x1 PUSH1 0x1 PUSH1 0x40 SHL SUB DUP2 GT PUSH2 0x321 JUMPI PUSH2 0x32E2 SWAP1 CALLDATASIZE SWAP1 PUSH1 0x4 ADD PUSH2 0x48BC JUMP JUMPDEST SWAP2 PUSH2 0x32F8 PUSH1 0x1 DUP1 PUSH1 0xA0 SHL SUB PUSH1 0x0 SLOAD AND CALLER EQ PUSH2 0x4A82 JUMP JUMPDEST PUSH1 0x1 PUSH1 0x1 PUSH1 0xA0 SHL SUB DUP5 AND PUSH1 0x0 SWAP1 DUP2 MSTORE PUSH1 0x8 PUSH1 0x20 MSTORE PUSH1 0x40 SWAP1 KECCAK256 SLOAD PUSH1 0xFF AND PUSH1 0x4 DUP2 LT ISZERO PUSH2 0x7D6 JUMPI PUSH2 0x3327 SWAP1 ISZERO PUSH2 0x4ABB JUMP JUMPDEST PUSH2 0x3332 PUSH1 0x2 SLOAD PUSH2 0x4AFC JUMP JUMPDEST SWAP5 DUP6 PUSH1 0x2 SSTORE PUSH1 0x40 MLOAD SWAP6 PUSH2 0x3344 DUP8 PUSH2 0x45A9 JUMP JUMPDEST DUP7 MSTORE PUSH1 0x20 DUP7 ADD MSTORE PUSH1 0x44 CALLDATALOAD PUSH1 0x40 DUP7 ADD MSTORE PUSH1 0x60 DUP6 ADD MSTORE PUSH1 0x80 DUP5 ADD MSTORE PUSH1 0x1 DUP1 PUSH1 0xA0 SHL SUB DUP3 AND PUSH1 0xA0 DUP5 ADD MSTORE PUSH1 0x1 PUSH1 0xC0 DUP5 ADD MSTORE PUSH1 0xE0 DUP4 ADD MSTORE PUSH1 0x0 PUSH2 0x100 DUP4 ADD MSTORE PUSH1 0x0 PUSH2 0x120 DUP4 ADD MSTORE TIMESTAMP PUSH2 0x140 DUP4 ADD MSTORE PUSH1 0x1 DUP1 PUSH1 0xA0 SHL SUB DUP2 AND PUSH1 0x0 MSTORE PUSH1 0xA PUSH1 0x20 MSTORE PUSH1 0x40 PUSH1 0x0 KECCAK256 DUP3 MLOAD DUP2 SSTORE PUSH1 0x20 DUP4 ADD MLOAD SWAP3 DUP4 MLOAD PUSH1 0x1 DUP1 PUSH1 0x40 SHL SUB DUP2 GT PUSH2 0x869 JUMPI PUSH2 0x33D7 DUP2 PUSH2 0x33CE PUSH1 0x1 DUP7 ADD SLOAD PUSH2 0x4553 JUMP JUMPDEST PUSH1 0x1 DUP7 ADD PUSH2 0x4B21 JUMP JUMPDEST PUSH1 0x20 PUSH1 0x1F DUP3 GT PUSH1 0x1 EQ PUSH2 0x386B JUMPI DUP2 SWAP3 SWAP4 SWAP5 SWAP6 PUSH1 0x0 SWAP3 PUSH2 0x3860 JUMPI JUMPDEST POP POP DUP2 PUSH1 0x1 SHL SWAP2 PUSH1 0x0 NOT SWAP1 PUSH1 0x3 SHL SHR NOT AND OR PUSH1 0x1 DUP4 ADD SSTORE JUMPDEST PUSH1 0x40 DUP2 ADD MLOAD PUSH1 0x2 DUP4 ADD SSTORE PUSH1 0x60 DUP2 ADD MLOAD DUP1 MLOAD SWAP1 SWAP4 SWAP1 PUSH1 0x1 PUSH1 0x1 PUSH1 0x40 SHL SUB DUP2 GT PUSH2 0x869 JUMPI PUSH2 0x343C DUP2 PUSH2 0x5B4 PUSH1 0x3 DUP8 ADD SLOAD PUSH2 0x4553 JUMP JUMPDEST PUSH1 0x20 PUSH1 0x1F DUP3 GT PUSH1 0x1 EQ PUSH2 0x37F1 JUMPI DUP2 SWAP3 SWAP4 SWAP5 SWAP6 PUSH1 0x0 SWAP3 PUSH2 0x37E6 JUMPI JUMPDEST POP POP DUP2 PUSH1 0x1 SHL SWAP2 PUSH1 0x0 NOT SWAP1 PUSH1 0x3 SHL SHR NOT AND OR PUSH1 0x3 DUP5 ADD SSTORE JUMPDEST PUSH1 0x80 DUP3 ADD MLOAD DUP1 MLOAD SWAP1 SWAP4 SWAP1 PUSH1 0x1 PUSH1 0x1 PUSH1 0x40 SHL SUB DUP2 GT PUSH2 0x869 JUMPI PUSH2 0x34A0 DUP2 PUSH2 0x3497 PUSH1 0x4 DUP6 ADD SLOAD PUSH2 0x4553 JUMP JUMPDEST PUSH1 0x4 DUP6 ADD PUSH2 0x4B21 JUMP JUMPDEST PUSH1 0x20 PUSH1 0x1F DUP3 GT PUSH1 0x1 EQ PUSH2 0x3777 JUMPI DUP2 SWAP3 SWAP4 SWAP5 SWAP6 PUSH1 0x0 SWAP3 PUSH2 0x376C JUMPI JUMPDEST POP POP DUP2 PUSH1 0x1 SHL SWAP2 PUSH1 0x0 NOT SWAP1 PUSH1 0x3 SHL SHR NOT AND OR PUSH1 0x4 DUP3 ADD SSTORE JUMPDEST PUSH1 0xA0 DUP4 ADD MLOAD PUSH1 0x5 DUP3 ADD DUP1 SLOAD PUSH1 0x1 PUSH1 0x1 PUSH1 0xA0 SHL SUB NOT AND PUSH1 0x1 PUSH1 0x1 PUSH1 0xA0 SHL SUB SWAP3 SWAP1 SWAP3 AND SWAP2 SWAP1 SWAP2 OR DUP2 SSTORE PUSH1 0xC0 DUP5 ADD MLOAD PUSH2 0x350B SWAP2 SWAP1 ISZERO ISZERO SWAP1 PUSH2 0x4B75 JUMP JUMPDEST PUSH1 0xE0 DUP4 ADD MLOAD DUP1 MLOAD SWAP1 SWAP4 SWAP1 PUSH1 0x1 PUSH1 0x1 PUSH1 0x40 SHL SUB DUP2 GT PUSH2 0x869 JUMPI PUSH2 0x353D DUP2 PUSH2 0x3534 PUSH1 0x6 DUP7 ADD SLOAD PUSH2 0x4553 JUMP JUMPDEST PUSH1 0x6 DUP7 ADD PUSH2 0x4B21 JUMP JUMPDEST PUSH1 0x20 PUSH1 0x1F DUP3 GT PUSH1 0x1 EQ PUSH2 0x36F4 JUMPI SWAP2 DUP2 PUSH2 0x140 SWAP3 PUSH1 0x9 SWAP5 PUSH2 0x7C5 SWAP9 PUSH1 0x0 SWAP3 PUSH2 0x36E9 JUMPI JUMPDEST POP POP DUP2 PUSH1 0x1 SHL SWAP2 PUSH1 0x0 NOT SWAP1 PUSH1 0x3 SHL SHR NOT AND OR PUSH1 0x6 DUP6 ADD SSTORE JUMPDEST PUSH2 0x100 DUP2 ADD MLOAD PUSH1 0x7 DUP6 ADD SSTORE PUSH2 0x120 DUP2 ADD MLOAD PUSH1 0x8 DUP6 ADD SSTORE ADD MLOAD SWAP2 ADD SSTORE PUSH1 0x1 DUP1 PUSH1 0xA0 SHL SUB DUP2 AND PUSH1 0x0 MSTORE PUSH1 0xA PUSH1 0x20 MSTORE PUSH1 0x40 PUSH1 0x0 KECCAK256 PUSH1 0x2 SLOAD PUSH1 0x0 MSTORE PUSH1 0xC PUSH1 0x20 MSTORE PUSH1 0x40 PUSH1 0x0 KECCAK256 SWAP1 DUP1 DUP3 SUB PUSH2 0x3647 JUMPI JUMPDEST POP POP PUSH1 0x1 PUSH1 0x1 PUSH1 0xA0 SHL SUB DUP2 AND PUSH1 0x0 DUP2 DUP2 MSTORE PUSH1 0x8 PUSH1 0x20 MSTORE PUSH1 0x40 DUP2 KECCAK256 DUP1 SLOAD PUSH1 0xFF NOT AND PUSH1 0x3 OR SWAP1 SSTORE PUSH1 0x2 SLOAD SWAP1 PUSH32 0x5EAC531A816AC6546A4C3EDBF9748745FE74CFD5806CD8FA8A4A01B71248BF84 SWAP1 DUP1 LOG3 PUSH1 0x40 MLOAD SWAP1 PUSH2 0x361B DUP3 PUSH2 0x45FC JUMP JUMPDEST PUSH1 0x1A DUP3 MSTORE PUSH26 0x57656C636F6D6520746F204E4853204865616C74686361726521 PUSH1 0x30 SHL PUSH1 0x20 DUP4 ADD MSTORE PUSH2 0x5293 JUMP JUMPDEST PUSH1 0x9 DUP2 DUP2 SWAP3 SLOAD DUP5 SSTORE PUSH2 0x365F PUSH1 0x1 DUP3 ADD PUSH1 0x1 DUP7 ADD PUSH2 0x4B92 JUMP JUMPDEST PUSH1 0x2 DUP2 ADD SLOAD PUSH1 0x2 DUP6 ADD SSTORE PUSH2 0x3679 PUSH1 0x3 DUP3 ADD PUSH1 0x3 DUP7 ADD PUSH2 0x4B92 JUMP JUMPDEST PUSH2 0x3689 PUSH1 0x4 DUP3 ADD PUSH1 0x4 DUP7 ADD PUSH2 0x4B92 JUMP JUMPDEST PUSH2 0x36B9 PUSH1 0x5 DUP6 ADD PUSH1 0xFF PUSH1 0x5 DUP5 ADD PUSH1 0x1 DUP1 PUSH1 0xA0 SHL SUB DUP2 SLOAD AND PUSH1 0x1 DUP1 PUSH1 0xA0 SHL SUB NOT DUP5 SLOAD AND OR DUP4 SSTORE SLOAD PUSH1 0xA0 SHR AND SWAP1 PUSH2 0x4B75 JUMP JUMPDEST PUSH2 0x36C9 PUSH1 0x6 DUP3 ADD PUSH1 0x6 DUP7 ADD PUSH2 0x4B92 JUMP JUMPDEST PUSH1 0x7 DUP2 ADD SLOAD PUSH1 0x7 DUP6 ADD SSTORE PUSH1 0x8 DUP2 ADD SLOAD PUSH1 0x8 DUP6 ADD SSTORE ADD SLOAD SWAP2 ADD SSTORE DUP3 DUP1 PUSH2 0x35C1 JUMP JUMPDEST ADD MLOAD SWAP1 POP DUP9 DUP1 PUSH2 0x355F JUMP JUMPDEST PUSH1 0x6 DUP5 ADD PUSH1 0x0 MSTORE PUSH1 0x20 PUSH1 0x0 KECCAK256 SWAP6 PUSH1 0x0 JUMPDEST PUSH1 0x1F NOT DUP5 AND DUP2 LT PUSH2 0x3754 JUMPI POP DUP3 PUSH2 0x7C5 SWAP8 PUSH1 0x9 SWAP6 SWAP4 PUSH1 0x1 SWAP4 PUSH2 0x140 SWAP7 PUSH1 0x1F NOT DUP2 AND LT PUSH2 0x373B JUMPI JUMPDEST POP POP POP DUP2 SHL ADD PUSH1 0x6 DUP6 ADD SSTORE PUSH2 0x3577 JUMP JUMPDEST ADD MLOAD PUSH1 0x0 NOT PUSH1 0xF8 DUP5 PUSH1 0x3 SHL AND SHR NOT AND SWAP1 SSTORE DUP9 DUP1 DUP1 PUSH2 0x372B JUMP JUMPDEST DUP3 DUP3 ADD MLOAD DUP9 SSTORE PUSH1 0x1 SWAP1 SWAP8 ADD SWAP7 PUSH1 0x20 SWAP3 DUP4 ADD SWAP3 ADD PUSH2 0x3704 JUMP JUMPDEST ADD MLOAD SWAP1 POP DUP6 DUP1 PUSH2 0x34BA JUMP JUMPDEST PUSH1 0x4 DUP4 ADD PUSH1 0x0 MSTORE PUSH1 0x20 PUSH1 0x0 KECCAK256 SWAP1 PUSH1 0x0 JUMPDEST PUSH1 0x1F NOT DUP5 AND DUP2 LT PUSH2 0x37CE JUMPI POP PUSH1 0x1 SWAP4 SWAP5 SWAP6 SWAP7 DUP4 PUSH1 0x1F NOT DUP2 AND LT PUSH2 0x37B5 JUMPI JUMPDEST POP POP POP DUP2 SHL ADD PUSH1 0x4 DUP3 ADD SSTORE PUSH2 0x34D2 JUMP JUMPDEST ADD MLOAD PUSH1 0x0 NOT PUSH1 0xF8 DUP5 PUSH1 0x3 SHL AND SHR NOT AND SWAP1 SSTORE DUP6 DUP1 DUP1 PUSH2 0x37A5 JUMP JUMPDEST SWAP1 SWAP2 PUSH1 0x20 PUSH1 0x1 DUP2 SWAP3 DUP6 DUP12 ADD MLOAD DUP2 SSTORE ADD SWAP4 ADD SWAP2 ADD PUSH2 0x3787 JUMP JUMPDEST ADD MLOAD SWAP1 POP DUP6 DUP1 PUSH2 0x3456 JUMP JUMPDEST PUSH1 0x3 DUP6 ADD PUSH1 0x0 MSTORE PUSH1 0x20 PUSH1 0x0 KECCAK256 SWAP1 PUSH1 0x0 JUMPDEST PUSH1 0x1F NOT DUP5 AND DUP2 LT PUSH2 0x3848 JUMPI POP PUSH1 0x1 SWAP4 SWAP5 SWAP6 SWAP7 DUP4 PUSH1 0x1F NOT DUP2 AND LT PUSH2 0x382F JUMPI JUMPDEST POP POP POP DUP2 SHL ADD PUSH1 0x3 DUP5 ADD SSTORE PUSH2 0x346E JUMP JUMPDEST ADD MLOAD PUSH1 0x0 NOT PUSH1 0xF8 DUP5 PUSH1 0x3 SHL AND SHR NOT AND SWAP1 SSTORE DUP6 DUP1 DUP1 PUSH2 0x381F JUMP JUMPDEST SWAP1 SWAP2 PUSH1 0x20 PUSH1 0x1 DUP2 SWAP3 DUP6 DUP12 ADD MLOAD DUP2 SSTORE ADD SWAP4 ADD SWAP2 ADD PUSH2 0x3801 JUMP JUMPDEST ADD MLOAD SWAP1 POP DUP6 DUP1 PUSH2 0x33F1 JUMP JUMPDEST PUSH1 0x1 DUP5 ADD PUSH1 0x0 MSTORE PUSH1 0x20 PUSH1 0x0 KECCAK256 SWAP1 PUSH1 0x0 JUMPDEST PUSH1 0x1F NOT DUP5 AND DUP2 LT PUSH2 0x38C2 JUMPI POP PUSH1 0x1 SWAP4 SWAP5 SWAP6 SWAP7 DUP4 PUSH1 0x1F NOT DUP2 AND LT PUSH2 0x38A9 JUMPI JUMPDEST POP POP POP DUP2 SHL ADD PUSH1 0x1 DUP4 ADD SSTORE PUSH2 0x3409 JUMP JUMPDEST ADD MLOAD PUSH1 0x0 NOT PUSH1 0xF8 DUP5 PUSH1 0x3 SHL AND SHR NOT AND SWAP1 SSTORE DUP6 DUP1 DUP1 PUSH2 0x3899 JUMP JUMPDEST SWAP1 SWAP2 PUSH1 0x20 PUSH1 0x1 DUP2 SWAP3 DUP6 DUP12 ADD MLOAD DUP2 SSTORE ADD SWAP4 ADD SWAP2 ADD PUSH2 0x387B JUMP JUMPDEST CALLVALUE PUSH2 0x321 JUMPI PUSH1 0x20 DUP1 PUSH1 0x3 NOT CALLDATASIZE ADD SLT PUSH2 0x321 JUMPI PUSH1 0x1 PUSH1 0x1 PUSH1 0xA0 SHL SUB PUSH2 0x38FC PUSH2 0x4527 JUMP JUMPDEST AND PUSH1 0x0 MSTORE PUSH1 0x18 DUP2 MSTORE PUSH1 0x40 PUSH1 0x0 KECCAK256 SWAP1 PUSH1 0x40 MLOAD SWAP1 DUP2 DUP2 DUP5 SLOAD SWAP2 DUP3 DUP2 MSTORE ADD SWAP4 PUSH1 0x0 MSTORE DUP2 PUSH1 0x0 KECCAK256 SWAP2 PUSH1 0x0 SWAP1 JUMPDEST DUP3 DUP3 LT PUSH2 0x393B JUMPI PUSH2 0x3F6 DUP6 PUSH2 0x12A3 DUP2 DUP10 SUB DUP3 PUSH2 0x4617 JUMP JUMPDEST DUP4 SLOAD DUP7 MSTORE SWAP5 DUP6 ADD SWAP5 PUSH1 0x1 SWAP4 DUP5 ADD SWAP4 SWAP1 SWAP2 ADD SWAP1 PUSH2 0x3924 JUMP JUMPDEST CALLVALUE PUSH2 0x321 JUMPI PUSH1 0x0 CALLDATASIZE PUSH1 0x3 NOT ADD SLT PUSH2 0x321 JUMPI CALLER PUSH1 0x0 MSTORE PUSH1 0x20 PUSH1 0x8 DUP2 MSTORE PUSH1 0xFF PUSH1 0x40 PUSH1 0x0 KECCAK256 SLOAD AND PUSH1 0x4 DUP2 LT ISZERO PUSH2 0x7D6 JUMPI PUSH1 0x2 EQ DUP1 PUSH2 0x3A14 JUMPI JUMPDEST DUP1 PUSH2 0x39F6 JUMPI JUMPDEST PUSH2 0x3997 SWAP1 PUSH2 0x4DE3 JUMP JUMPDEST CALLER PUSH1 0x0 MSTORE PUSH1 0x16 DUP2 MSTORE PUSH1 0x40 PUSH1 0x0 KECCAK256 SWAP1 PUSH1 0x40 MLOAD SWAP1 DUP2 DUP2 DUP5 SLOAD SWAP2 DUP3 DUP2 MSTORE ADD SWAP4 PUSH1 0x0 MSTORE DUP2 PUSH1 0x0 KECCAK256 SWAP2 PUSH1 0x0 SWAP1 JUMPDEST DUP3 DUP3 LT PUSH2 0x39D6 JUMPI PUSH2 0x3F6 DUP6 PUSH2 0xD78 DUP2 DUP10 SUB DUP3 PUSH2 0x4617 JUMP JUMPDEST DUP4 SLOAD PUSH1 0x1 PUSH1 0x1 PUSH1 0xA0 SHL SUB AND DUP7 MSTORE SWAP5 DUP6 ADD SWAP5 PUSH1 0x1 SWAP4 DUP5 ADD SWAP4 SWAP1 SWAP2 ADD SWAP1 PUSH2 0x39BF JUMP JUMPDEST POP CALLER PUSH1 0x0 SWAP1 DUP2 MSTORE PUSH1 0x9 DUP3 MSTORE PUSH1 0x40 SWAP1 KECCAK256 PUSH1 0x4 ADD SLOAD PUSH1 0xA8 SHR PUSH1 0xFF AND PUSH2 0x398E JUMP JUMPDEST POP CALLER PUSH1 0x0 MSTORE PUSH1 0x9 DUP2 MSTORE PUSH1 0xFF PUSH1 0x4 PUSH1 0x40 PUSH1 0x0 KECCAK256 ADD SLOAD PUSH1 0xA0 SHR AND PUSH2 0x3988 JUMP JUMPDEST CALLVALUE PUSH2 0x321 JUMPI PUSH1 0x20 DUP1 PUSH1 0x3 NOT CALLDATASIZE ADD SLT PUSH2 0x321 JUMPI PUSH2 0x3A4B PUSH2 0x4527 JUMP JUMPDEST PUSH1 0x0 SLOAD PUSH1 0x1 PUSH1 0x1 PUSH1 0xA0 SHL SUB SWAP2 SWAP1 DUP3 AND CALLER EQ DUP1 ISZERO PUSH2 0x3AC2 JUMPI JUMPDEST PUSH2 0x3A6C SWAP1 PUSH2 0x4E25 JUMP JUMPDEST AND PUSH1 0x0 MSTORE PUSH1 0x12 DUP2 MSTORE PUSH1 0x40 PUSH1 0x0 KECCAK256 SWAP1 PUSH1 0x40 MLOAD SWAP1 DUP2 DUP2 DUP5 SLOAD SWAP2 DUP3 DUP2 MSTORE ADD SWAP4 PUSH1 0x0 MSTORE DUP2 PUSH1 0x0 KECCAK256 SWAP2 PUSH1 0x0 SWAP1 JUMPDEST DUP3 DUP3 LT PUSH2 0x3AAB JUMPI PUSH2 0x3F6 DUP6 PUSH2 0x12A3 DUP2 DUP10 SUB DUP3 PUSH2 0x4617 JUMP JUMPDEST DUP4 SLOAD DUP7 MSTORE SWAP5 DUP6 ADD SWAP5 PUSH1 0x1 SWAP4 DUP5 ADD SWAP4 SWAP1 SWAP2 ADD SWAP1 PUSH2 0x3A94 JUMP JUMPDEST POP DUP1 DUP3 AND PUSH1 0x0 SWAP1 DUP2 MSTORE PUSH1 0x14 DUP5 MSTORE PUSH1 0x40 DUP1 DUP3 KECCAK256 CALLER DUP4 MSTORE DUP6 MSTORE SWAP1 KECCAK256 SLOAD PUSH1 0xFF AND PUSH2 0x3A63 JUMP JUMPDEST CALLVALUE PUSH2 0x321 JUMPI PUSH1 0x0 CALLDATASIZE PUSH1 0x3 NOT ADD SLT PUSH2 0x321 JUMPI CALLER PUSH1 0x0 MSTORE PUSH1 0x20 PUSH1 0x1A DUP2 MSTORE PUSH1 0x40 PUSH1 0x0 KECCAK256 SWAP1 PUSH1 0x40 MLOAD SWAP1 DUP2 DUP2 DUP5 SLOAD SWAP2 DUP3 DUP2 MSTORE ADD SWAP4 PUSH1 0x0 MSTORE DUP2 PUSH1 0x0 KECCAK256 SWAP2 PUSH1 0x0 SWAP1 JUMPDEST DUP3 DUP3 LT PUSH2 0x3B36 JUMPI PUSH2 0x3F6 DUP6 PUSH2 0x12A3 DUP2 DUP10 SUB DUP3 PUSH2 0x4617 JUMP JUMPDEST DUP4 SLOAD DUP7 MSTORE SWAP5 DUP6 ADD SWAP5 PUSH1 0x1 SWAP4 DUP5 ADD SWAP4 SWAP1 SWAP2 ADD SWAP1 PUSH2 0x3B1F JUMP JUMPDEST CALLVALUE PUSH2 0x321 JUMPI PUSH1 0xC0 CALLDATASIZE PUSH1 0x3 NOT ADD SLT PUSH2 0x321 JUMPI PUSH2 0x3B66 PUSH2 0x4527 JUMP JUMPDEST PUSH2 0x3B6E PUSH2 0x453D JUMP JUMPDEST PUSH1 0x44 CALLDATALOAD PUSH1 0x1 PUSH1 0x1 PUSH1 0x40 SHL SUB DUP2 GT PUSH2 0x321 JUMPI PUSH2 0x3B8D SWAP1 CALLDATASIZE SWAP1 PUSH1 0x4 ADD PUSH2 0x48BC JUMP JUMPDEST PUSH1 0x64 CALLDATALOAD PUSH1 0x1 PUSH1 0x1 PUSH1 0x40 SHL SUB DUP2 GT PUSH2 0x321 JUMPI PUSH2 0x3BAC SWAP1 CALLDATASIZE SWAP1 PUSH1 0x4 ADD PUSH2 0x48BC JUMP JUMPDEST PUSH1 0x84 CALLDATALOAD PUSH1 0x1 PUSH1 0x1 PUSH1 0x40 SHL SUB DUP2 GT PUSH2 0x321 JUMPI PUSH2 0x3BCB SWAP1 CALLDATASIZE SWAP1 PUSH1 0x4 ADD PUSH2 0x48BC JUMP JUMPDEST PUSH1 0xA4 CALLDATALOAD PUSH1 0x1 PUSH1 0x1 PUSH1 0x40 SHL SUB DUP2 GT PUSH2 0x321 JUMPI PUSH2 0x3BEA SWAP1 CALLDATASIZE SWAP1 PUSH1 0x4 ADD PUSH2 0x48BC JUMP JUMPDEST SWAP2 PUSH2 0x3C00 PUSH1 0x1 DUP1 PUSH1 0xA0 SHL SUB PUSH1 0x0 SLOAD AND CALLER EQ PUSH2 0x4A82 JUMP JUMPDEST PUSH1 0x1 PUSH1 0x1 PUSH1 0xA0 SHL SUB DUP6 DUP2 AND PUSH1 0x0 SWAP1 DUP2 MSTORE PUSH1 0x14 PUSH1 0x20 SWAP1 DUP2 MSTORE PUSH1 0x40 DUP1 DUP4 KECCAK256 SWAP4 DUP11 AND DUP4 MSTORE SWAP3 SWAP1 MSTORE KECCAK256 SLOAD PUSH2 0x3C32 SWAP1 PUSH1 0xFF AND PUSH2 0x4D46 JUMP JUMPDEST PUSH2 0x3C3D PUSH1 0x6 SLOAD PUSH2 0x4AFC JUMP JUMPDEST SWAP4 DUP5 PUSH1 0x6 SSTORE PUSH1 0x40 MLOAD SWAP7 PUSH2 0x3C4F DUP9 PUSH2 0x458D JUMP JUMPDEST DUP6 DUP9 MSTORE PUSH1 0x1 DUP1 PUSH1 0xA0 SHL SUB DUP8 AND PUSH1 0x20 DUP10 ADD MSTORE PUSH1 0x1 DUP1 PUSH1 0xA0 SHL SUB AND PUSH1 0x40 DUP9 ADD MSTORE PUSH1 0x60 DUP8 ADD MSTORE PUSH1 0x80 DUP7 ADD MSTORE PUSH1 0xA0 DUP6 ADD MSTORE PUSH1 0xC0 DUP5 ADD MSTORE PUSH1 0x1 PUSH1 0xE0 DUP5 ADD MSTORE TIMESTAMP PUSH2 0x100 DUP5 ADD MSTORE PUSH1 0x0 MSTORE PUSH1 0xF PUSH1 0x20 MSTORE PUSH1 0x40 PUSH1 0x0 KECCAK256 DUP3 MLOAD DUP2 SSTORE PUSH1 0x1 DUP2 ADD PUSH1 0x1 DUP1 PUSH1 0xA0 SHL SUB PUSH1 0x20 DUP6 ADD MLOAD AND SWAP1 PUSH1 0x1 DUP1 PUSH1 0xA0 SHL SUB NOT SWAP2 DUP3 DUP3 SLOAD AND OR SWAP1 SSTORE PUSH1 0x2 DUP3 ADD SWAP1 PUSH1 0x1 DUP1 PUSH1 0xA0 SHL SUB PUSH1 0x40 DUP7 ADD MLOAD AND SWAP1 DUP3 SLOAD AND OR SWAP1 SSTORE PUSH1 0x60 DUP4 ADD MLOAD SWAP3 DUP4 MLOAD PUSH1 0x1 DUP1 PUSH1 0x40 SHL SUB DUP2 GT PUSH2 0x869 JUMPI PUSH2 0x3D01 DUP2 PUSH2 0x20C6 PUSH1 0x3 DUP7 ADD SLOAD PUSH2 0x4553 JUMP JUMPDEST PUSH1 0x20 PUSH1 0x1F DUP3 GT PUSH1 0x1 EQ PUSH2 0x4080 JUMPI DUP2 SWAP3 SWAP4 SWAP5 SWAP6 PUSH1 0x0 SWAP3 PUSH2 0x4075 JUMPI JUMPDEST POP POP DUP2 PUSH1 0x1 SHL SWAP2 PUSH1 0x0 NOT SWAP1 PUSH1 0x3 SHL SHR NOT AND OR PUSH1 0x3 DUP4 ADD SSTORE JUMPDEST PUSH1 0x80 DUP2 ADD MLOAD DUP1 MLOAD SWAP1 SWAP4 SWAP1 PUSH1 0x1 PUSH1 0x1 PUSH1 0x40 SHL SUB DUP2 GT PUSH2 0x869 JUMPI PUSH2 0x3D5C DUP2 PUSH2 0x614 PUSH1 0x4 DUP8 ADD SLOAD PUSH2 0x4553 JUMP JUMPDEST PUSH1 0x20 PUSH1 0x1F DUP3 GT PUSH1 0x1 EQ PUSH2 0x4006 JUMPI DUP2 SWAP3 SWAP4 SWAP5 SWAP6 PUSH1 0x0 SWAP3 PUSH2 0x3FFB JUMPI JUMPDEST POP POP DUP2 PUSH1 0x1 SHL SWAP2 PUSH1 0x0 NOT SWAP1 PUSH1 0x3 SHL SHR NOT AND OR PUSH1 0x4 DUP5 ADD SSTORE JUMPDEST PUSH1 0xA0 DUP3 ADD MLOAD DUP1 MLOAD SWAP1 SWAP4 SWAP1 PUSH1 0x1 PUSH1 0x1 PUSH1 0x40 SHL SUB DUP2 GT PUSH2 0x869 JUMPI PUSH2 0x3DC0 DUP2 PUSH2 0x3DB7 PUSH1 0x5 DUP6 ADD SLOAD PUSH2 0x4553 JUMP JUMPDEST PUSH1 0x5 DUP6 ADD PUSH2 0x4B21 JUMP JUMPDEST PUSH1 0x20 PUSH1 0x1F DUP3 GT PUSH1 0x1 EQ PUSH2 0x3F8C JUMPI DUP2 SWAP3 SWAP4 SWAP5 SWAP6 PUSH1 0x0 SWAP3 PUSH2 0x3F81 JUMPI JUMPDEST POP POP DUP2 PUSH1 0x1 SHL SWAP2 PUSH1 0x0 NOT SWAP1 PUSH1 0x3 SHL SHR NOT AND OR PUSH1 0x5 DUP3 ADD SSTORE JUMPDEST PUSH1 0xC0 DUP4 ADD MLOAD DUP1 MLOAD SWAP1 SWAP4 SWAP1 PUSH1 0x1 PUSH1 0x1 PUSH1 0x40 SHL SUB DUP2 GT PUSH2 0x869 JUMPI PUSH2 0x3E1B DUP2 PUSH2 0x3534 PUSH1 0x6 DUP7 ADD SLOAD PUSH2 0x4553 JUMP JUMPDEST PUSH1 0x20 PUSH1 0x1F DUP3 GT PUSH1 0x1 EQ PUSH2 0x3F09 JUMPI SWAP2 DUP2 PUSH2 0x100 SWAP3 PUSH1 0x8 SWAP5 PUSH2 0x7C5 SWAP9 PUSH1 0x0 SWAP3 PUSH2 0x3EFE JUMPI JUMPDEST POP POP DUP2 PUSH1 0x1 SHL SWAP2 PUSH1 0x0 NOT SWAP1 PUSH1 0x3 SHL SHR NOT AND OR PUSH1 0x6 DUP6 ADD SSTORE JUMPDEST PUSH1 0x7 DUP5 ADD PUSH1 0xE0 DUP3 ADD MLOAD ISZERO ISZERO PUSH1 0xFF DUP1 NOT DUP4 SLOAD AND SWAP2 AND OR SWAP1 SSTORE ADD MLOAD SWAP2 ADD SSTORE PUSH1 0x1 DUP1 PUSH1 0xA0 SHL SUB DUP2 AND PUSH1 0x0 MSTORE PUSH1 0x10 PUSH1 0x20 MSTORE PUSH2 0x3E93 PUSH1 0x40 PUSH1 0x0 KECCAK256 PUSH1 0x6 SLOAD SWAP1 PUSH2 0x4CDB JUMP JUMPDEST PUSH1 0x6 SLOAD PUSH1 0x1 PUSH1 0x1 PUSH1 0xA0 SHL SUB DUP3 AND SWAP1 PUSH32 0x6883E960EF9DD9D3579C0269044A3B64BD7F2BD4C80EBDEE27289D8610AC0CC9 PUSH1 0x0 DUP1 LOG3 PUSH1 0x40 MLOAD SWAP1 PUSH2 0x3ED3 DUP3 PUSH2 0x45FC JUMP JUMPDEST PUSH1 0x19 DUP3 MSTORE PUSH25 0x13995DC81B59591A58D85D1A5BDB881C1C995CD8DC9A589959 PUSH1 0x3A SHL PUSH1 0x20 DUP4 ADD MSTORE PUSH2 0x5293 JUMP JUMPDEST ADD MLOAD SWAP1 POP DUP9 DUP1 PUSH2 0x3E3D JUMP JUMPDEST PUSH1 0x6 DUP5 ADD PUSH1 0x0 MSTORE PUSH1 0x20 PUSH1 0x0 KECCAK256 SWAP6 PUSH1 0x0 JUMPDEST PUSH1 0x1F NOT DUP5 AND DUP2 LT PUSH2 0x3F69 JUMPI POP DUP3 PUSH2 0x7C5 SWAP8 PUSH1 0x8 SWAP6 SWAP4 PUSH1 0x1 SWAP4 PUSH2 0x100 SWAP7 PUSH1 0x1F NOT DUP2 AND LT PUSH2 0x3F50 JUMPI JUMPDEST POP POP POP DUP2 SHL ADD PUSH1 0x6 DUP6 ADD SSTORE PUSH2 0x3E55 JUMP JUMPDEST ADD MLOAD PUSH1 0x0 NOT PUSH1 0xF8 DUP5 PUSH1 0x3 SHL AND SHR NOT AND SWAP1 SSTORE DUP9 DUP1 DUP1 PUSH2 0x3F40 JUMP JUMPDEST DUP3 DUP3 ADD MLOAD DUP9 SSTORE PUSH1 0x1 SWAP1 SWAP8 ADD SWAP7 PUSH1 0x20 SWAP3 DUP4 ADD SWAP3 ADD PUSH2 0x3F19 JUMP JUMPDEST ADD MLOAD SWAP1 POP DUP6 DUP1 PUSH2 0x3DDA JUMP JUMPDEST PUSH1 0x5 DUP4 ADD PUSH1 0x0 MSTORE PUSH1 0x20 PUSH1 0x0 KECCAK256 SWAP1 PUSH1 0x0 JUMPDEST PUSH1 0x1F NOT DUP5 AND DUP2 LT PUSH2 0x3FE3 JUMPI POP PUSH1 0x1 SWAP4 SWAP5 SWAP6 SWAP7 DUP4 PUSH1 0x1F NOT DUP2 AND LT PUSH2 0x3FCA JUMPI JUMPDEST POP POP POP DUP2 SHL ADD PUSH1 0x5 DUP3 ADD SSTORE PUSH2 0x3DF2 JUMP JUMPDEST ADD MLOAD PUSH1 0x0 NOT PUSH1 0xF8 DUP5 PUSH1 0x3 SHL AND SHR NOT AND SWAP1 SSTORE DUP6 DUP1 DUP1 PUSH2 0x3FBA JUMP JUMPDEST SWAP1 SWAP2 PUSH1 0x20 PUSH1 0x1 DUP2 SWAP3 DUP6 DUP12 ADD MLOAD DUP2 SSTORE ADD SWAP4 ADD SWAP2 ADD PUSH2 0x3F9C JUMP JUMPDEST ADD MLOAD SWAP1 POP DUP6 DUP1 PUSH2 0x3D76 JUMP JUMPDEST PUSH1 0x4 DUP6 ADD PUSH1 0x0 MSTORE PUSH1 0x20 PUSH1 0x0 KECCAK256 SWAP1 PUSH1 0x0 JUMPDEST PUSH1 0x1F NOT DUP5 AND DUP2 LT PUSH2 0x405D JUMPI POP PUSH1 0x1 SWAP4 SWAP5 SWAP6 SWAP7 DUP4 PUSH1 0x1F NOT DUP2 AND LT PUSH2 0x4044 JUMPI JUMPDEST POP POP POP DUP2 SHL ADD PUSH1 0x4 DUP5 ADD SSTORE PUSH2 0x3D8E JUMP JUMPDEST ADD MLOAD PUSH1 0x0 NOT PUSH1 0xF8 DUP5 PUSH1 0x3 SHL AND SHR NOT AND SWAP1 SSTORE DUP6 DUP1 DUP1 PUSH2 0x4034 JUMP JUMPDEST SWAP1 SWAP2 PUSH1 0x20 PUSH1 0x1 DUP2 SWAP3 DUP6 DUP12 ADD MLOAD DUP2 SSTORE ADD SWAP4 ADD SWAP2 ADD PUSH2 0x4016 JUMP JUMPDEST ADD MLOAD SWAP1 POP DUP6 DUP1 PUSH2 0x3D1B JUMP JUMPDEST PUSH1 0x3 DUP5 ADD PUSH1 0x0 MSTORE PUSH1 0x20 PUSH1 0x0 KECCAK256 SWAP1 PUSH1 0x0 JUMPDEST PUSH1 0x1F NOT DUP5 AND DUP2 LT PUSH2 0x40D7 JUMPI POP PUSH1 0x1 SWAP4 SWAP5 SWAP6 SWAP7 DUP4 PUSH1 0x1F NOT DUP2 AND LT PUSH2 0x40BE JUMPI JUMPDEST POP POP POP DUP2 SHL ADD PUSH1 0x3 DUP4 ADD SSTORE PUSH2 0x3D33 JUMP JUMPDEST ADD MLOAD PUSH1 0x0 NOT PUSH1 0xF8 DUP5 PUSH1 0x3 SHL AND SHR NOT AND SWAP1 SSTORE DUP6 DUP1 DUP1 PUSH2 0x40AE JUMP JUMPDEST SWAP1 SWAP2 PUSH1 0x20 PUSH1 0x1 DUP2 SWAP3 DUP6 DUP12 ADD MLOAD DUP2 SSTORE ADD SWAP4 ADD SWAP2 ADD PUSH2 0x4090 JUMP JUMPDEST CALLVALUE PUSH2 0x321 JUMPI PUSH1 0x0 CALLDATASIZE PUSH1 0x3 NOT ADD SLT PUSH2 0x321 JUMPI PUSH1 0x0 PUSH1 0x1 SWAP1 DUP2 SLOAD SWAP2 JUMPDEST DUP3 DUP2 GT ISZERO PUSH2 0x419C JUMPI POP PUSH2 0x411B SWAP1 PUSH2 0x4EFC JUMP JUMPDEST SWAP1 PUSH1 0x1 PUSH1 0x0 JUMPDEST DUP3 DUP3 GT ISZERO PUSH2 0x4137 JUMPI PUSH1 0x40 MLOAD DUP1 PUSH2 0x3F6 DUP7 DUP3 PUSH2 0x4799 JUMP JUMPDEST DUP2 PUSH1 0x0 MSTORE PUSH1 0xB PUSH1 0x20 MSTORE PUSH1 0x40 PUSH1 0x0 KECCAK256 SWAP2 PUSH1 0x4 DUP4 ADD SLOAD PUSH1 0xFF DUP1 DUP3 PUSH1 0xA0 SHR AND SWAP2 DUP3 PUSH2 0x418F JUMPI JUMPDEST POP POP PUSH2 0x4172 JUMPI JUMPDEST PUSH2 0x416C SWAP2 SWAP3 POP PUSH2 0x4AFC JUMP JUMPDEST SWAP1 PUSH2 0x4121 JUMP JUMPDEST PUSH2 0x4186 DUP3 PUSH2 0x1B93 PUSH2 0x1091 PUSH2 0x416C SWAP6 SWAP3 PUSH2 0x4AFC JUMP JUMPDEST POP DUP3 SWAP2 POP PUSH2 0x4161 JUMP JUMPDEST PUSH1 0xA8 SHR AND SWAP1 POP DUP7 DUP1 PUSH2 0x415A JUMP JUMPDEST DUP1 PUSH1 0x0 MSTORE PUSH1 0xB PUSH1 0x20 MSTORE PUSH1 0x4 PUSH1 0x40 PUSH1 0x0 KECCAK256 ADD SLOAD PUSH1 0xFF DUP1 DUP3 PUSH1 0xA0 SHR AND SWAP2 DUP3 PUSH2 0x41E7 JUMPI JUMPDEST POP POP PUSH2 0x41D2 JUMPI JUMPDEST PUSH2 0x41CD SWAP1 PUSH2 0x4AFC JUMP JUMPDEST PUSH2 0x4109 JUMP JUMPDEST SWAP1 PUSH2 0x41DF PUSH2 0x41CD SWAP2 PUSH2 0x4AFC JUMP JUMPDEST SWAP2 SWAP1 POP PUSH2 0x41C4 JUMP JUMPDEST PUSH1 0xA8 SHR AND SWAP1 POP DUP5 DUP1 PUSH2 0x41BD JUMP JUMPDEST CALLVALUE PUSH2 0x321 JUMPI PUSH1 0x20 CALLDATASIZE PUSH1 0x3 NOT ADD SLT PUSH2 0x321 JUMPI PUSH1 0x4 CALLDATALOAD PUSH1 0x0 MSTORE PUSH1 0x11 PUSH1 0x20 MSTORE PUSH1 0x40 PUSH1 0x0 KECCAK256 DUP1 SLOAD SWAP1 PUSH1 0x1 DUP1 PUSH1 0xA0 SHL SUB SWAP1 DUP2 PUSH1 0x1 DUP3 ADD SLOAD AND SWAP2 PUSH1 0x2 DUP3 ADD SLOAD AND SWAP2 PUSH2 0x42AE PUSH2 0x423E PUSH1 0x3 DUP5 ADD PUSH2 0x463A JUMP JUMPDEST PUSH2 0x42A0 PUSH2 0x424D PUSH1 0x4 DUP7 ADD PUSH2 0x463A JUMP JUMPDEST PUSH2 0x4292 PUSH2 0x425C PUSH1 0x5 DUP9 ADD PUSH2 0x463A JUMP JUMPDEST SWAP4 PUSH1 0xFF PUSH1 0x6 DUP10 ADD SLOAD AND SWAP9 PUSH1 0x8 PUSH1 0x7 DUP11 ADD SLOAD SWAP10 ADD SLOAD SWAP8 PUSH1 0x40 MLOAD SWAP12 DUP13 MSTORE PUSH1 0x20 DUP13 ADD MSTORE PUSH1 0x40 DUP12 ADD MSTORE PUSH2 0x120 DUP1 PUSH1 0x60 DUP13 ADD MSTORE DUP11 ADD SWAP1 PUSH2 0x46E0 JUMP JUMPDEST SWAP1 DUP9 DUP3 SUB PUSH1 0x80 DUP11 ADD MSTORE PUSH2 0x46E0 JUMP JUMPDEST SWAP1 DUP7 DUP3 SUB PUSH1 0xA0 DUP9 ADD MSTORE PUSH2 0x46E0 JUMP JUMPDEST SWAP2 PUSH1 0x5 DUP5 LT ISZERO PUSH2 0x7D6 JUMPI DUP5 SWAP4 PUSH1 0xC0 DUP6 ADD MSTORE PUSH1 0xE0 DUP5 ADD MSTORE PUSH2 0x100 DUP4 ADD MSTORE SUB SWAP1 RETURN JUMPDEST CALLVALUE PUSH2 0x321 JUMPI PUSH1 0x20 CALLDATASIZE PUSH1 0x3 NOT ADD SLT PUSH2 0x321 JUMPI PUSH1 0x1 PUSH1 0x1 PUSH1 0xA0 SHL SUB DUP1 PUSH2 0x42F0 PUSH2 0x4527 JUMP JUMPDEST AND PUSH1 0x0 MSTORE PUSH1 0xA PUSH1 0x20 MSTORE PUSH1 0x40 PUSH1 0x0 KECCAK256 SWAP1 PUSH2 0x3F6 DUP3 SLOAD PUSH2 0x4310 PUSH1 0x1 DUP6 ADD PUSH2 0x463A JUMP JUMPDEST SWAP4 PUSH1 0x2 DUP2 ADD SLOAD SWAP2 PUSH2 0x4323 PUSH1 0x3 DUP4 ADD PUSH2 0x463A JUMP JUMPDEST SWAP1 PUSH2 0x4330 PUSH1 0x4 DUP5 ADD PUSH2 0x463A JUMP JUMPDEST SWAP1 PUSH1 0x5 DUP5 ADD SLOAD SWAP1 PUSH2 0x4343 PUSH1 0x6 DUP7 ADD PUSH2 0x463A JUMP JUMPDEST SWAP3 PUSH1 0x7 DUP7 ADD SLOAD SWAP5 PUSH1 0x9 PUSH1 0x8 DUP9 ADD SLOAD SWAP8 ADD SLOAD SWAP8 PUSH1 0x40 MLOAD SWAP12 DUP13 SWAP12 PUSH1 0xFF DUP8 PUSH1 0xA0 SHR AND SWAP7 AND SWAP5 DUP13 PUSH2 0x4720 JUMP JUMPDEST CALLVALUE PUSH2 0x321 JUMPI PUSH1 0x20 DUP1 PUSH1 0x3 NOT CALLDATASIZE ADD SLT PUSH2 0x321 JUMPI PUSH1 0x4 CALLDATALOAD SWAP1 CALLER PUSH1 0x0 MSTORE PUSH1 0x8 DUP2 MSTORE PUSH1 0xFF PUSH1 0x40 PUSH1 0x0 KECCAK256 SLOAD AND PUSH1 0x4 DUP2 LT ISZERO PUSH2 0x7D6 JUMPI PUSH1 0x2 EQ DUP1 PUSH2 0x44B9 JUMPI JUMPDEST DUP1 PUSH2 0x449B JUMPI JUMPDEST PUSH2 0x43B3 SWAP1 PUSH2 0x4DE3 JUMP JUMPDEST PUSH1 0x0 DUP3 DUP2 MSTORE PUSH1 0x11 DUP3 MSTORE PUSH1 0x40 SWAP1 KECCAK256 PUSH1 0x2 DUP2 ADD SLOAD PUSH1 0x1 PUSH1 0x1 PUSH1 0xA0 SHL SUB SWAP2 SWAP1 DUP3 AND CALLER EQ DUP1 PUSH2 0x4481 JUMPI JUMPDEST SWAP1 PUSH2 0x7C5 SWAP5 PUSH2 0x43E9 PUSH1 0x1 SWAP4 PUSH2 0x4D10 JUMP JUMPDEST PUSH1 0x6 DUP3 ADD DUP4 PUSH1 0xFF NOT DUP3 SLOAD AND OR SWAP1 SSTORE CALLER PUSH1 0x0 MSTORE PUSH1 0x9 DUP6 MSTORE PUSH1 0x7 PUSH1 0x40 PUSH1 0x0 KECCAK256 ADD PUSH2 0x4411 DUP2 SLOAD PUSH2 0x4AFC JUMP JUMPDEST SWAP1 SSTORE PUSH32 0x720FAB024FD4D440E7DCF3447E0F1B7ED6524BCA68CE9CE9EB93250C9CB84BBF PUSH1 0x0 DUP1 LOG2 ADD SLOAD AND PUSH32 0x596F7572206170706F696E746D656E7420686173206265656E20617070726F76 PUSH1 0x40 MLOAD SWAP3 PUSH2 0x4469 DUP5 PUSH2 0x45E1 JUMP JUMPDEST PUSH1 0x23 DUP5 MSTORE DUP4 ADD MSTORE PUSH3 0x656421 PUSH1 0xE8 SHL PUSH1 0x40 DUP4 ADD MSTORE PUSH2 0x5293 JUMP JUMPDEST POP PUSH1 0xFF PUSH1 0x6 DUP3 ADD SLOAD AND SWAP1 PUSH1 0x5 DUP3 LT ISZERO PUSH2 0x7D6 JUMPI SWAP1 ISZERO PUSH2 0x43D9 JUMP JUMPDEST POP CALLER PUSH1 0x0 SWAP1 DUP2 MSTORE PUSH1 0x9 DUP3 MSTORE PUSH1 0x40 SWAP1 KECCAK256 PUSH1 0x4 ADD SLOAD PUSH1 0xA8 SHR PUSH1 0xFF AND PUSH2 0x43AA JUMP JUMPDEST POP CALLER PUSH1 0x0 MSTORE PUSH1 0x9 DUP2 MSTORE PUSH1 0xFF PUSH1 0x4 PUSH1 0x40 PUSH1 0x0 KECCAK256 ADD SLOAD PUSH1 0xA0 SHR AND PUSH2 0x43A4 JUMP JUMPDEST CALLVALUE PUSH2 0x321 JUMPI PUSH1 0x40 CALLDATASIZE PUSH1 0x3 NOT ADD SLT PUSH2 0x321 JUMPI PUSH1 0x20 SWAP1 PUSH2 0x44F2 PUSH2 0x4527 JUMP JUMPDEST PUSH2 0x44FA PUSH2 0x453D JUMP JUMPDEST SWAP1 PUSH1 0x1 DUP1 PUSH1 0xA0 SHL SUB DUP1 SWAP2 AND PUSH1 0x0 MSTORE PUSH1 0x14 DUP5 MSTORE PUSH1 0x40 PUSH1 0x0 KECCAK256 SWAP2 AND PUSH1 0x0 MSTORE DUP3 MSTORE PUSH1 0xFF PUSH1 0x40 PUSH1 0x0 KECCAK256 SLOAD AND ISZERO ISZERO DUP2 MSTORE RETURN JUMPDEST PUSH1 0x4 CALLDATALOAD SWAP1 PUSH1 0x1 PUSH1 0x1 PUSH1 0xA0 SHL SUB DUP3 AND DUP3 SUB PUSH2 0x321 JUMPI JUMP JUMPDEST PUSH1 0x24 CALLDATALOAD SWAP1 PUSH1 0x1 PUSH1 0x1 PUSH1 0xA0 SHL SUB DUP3 AND DUP3 SUB PUSH2 0x321 JUMPI JUMP JUMPDEST SWAP1 PUSH1 0x1 DUP3 DUP2 SHR SWAP3 AND DUP1 ISZERO PUSH2 0x4583 JUMPI JUMPDEST PUSH1 0x20 DUP4 LT EQ PUSH2 0x456D JUMPI JUMP JUMPDEST PUSH4 0x4E487B71 PUSH1 0xE0 SHL PUSH1 0x0 MSTORE PUSH1 0x22 PUSH1 0x4 MSTORE PUSH1 0x24 PUSH1 0x0 REVERT JUMPDEST SWAP2 PUSH1 0x7F AND SWAP2 PUSH2 0x4562 JUMP JUMPDEST PUSH2 0x120 DUP2 ADD SWAP1 DUP2 LT PUSH1 0x1 PUSH1 0x1 PUSH1 0x40 SHL SUB DUP3 GT OR PUSH2 0x869 JUMPI PUSH1 0x40 MSTORE JUMP JUMPDEST PUSH2 0x160 DUP2 ADD SWAP1 DUP2 LT PUSH1 0x1 PUSH1 0x1 PUSH1 0x40 SHL SUB DUP3 GT OR PUSH2 0x869 JUMPI PUSH1 0x40 MSTORE JUMP JUMPDEST PUSH2 0x1C0 DUP2 ADD SWAP1 DUP2 LT PUSH1 0x1 PUSH1 0x1 PUSH1 0x40 SHL SUB DUP3 GT OR PUSH2 0x869 JUMPI PUSH1 0x40 MSTORE JUMP JUMPDEST PUSH1 0x60 DUP2 ADD SWAP1 DUP2 LT PUSH1 0x1 PUSH1 0x1 PUSH1 0x40 SHL SUB DUP3 GT OR PUSH2 0x869 JUMPI PUSH1 0x40 MSTORE JUMP JUMPDEST PUSH1 0x40 DUP2 ADD SWAP1 DUP2 LT PUSH1 0x1 PUSH1 0x1 PUSH1 0x40 SHL SUB DUP3 GT OR PUSH2 0x869 JUMPI PUSH1 0x40 MSTORE JUMP JUMPDEST PUSH1 0x1F SWAP1 SWAP2 ADD PUSH1 0x1F NOT AND DUP2 ADD SWAP1 PUSH1 0x1 PUSH1 0x1 PUSH1 0x40 SHL SUB DUP3 GT SWAP1 DUP3 LT OR PUSH2 0x869 JUMPI PUSH1 0x40 MSTORE JUMP JUMPDEST SWAP1 PUSH1 0x40 MLOAD SWAP2 DUP3 PUSH1 0x0 DUP3 SLOAD SWAP3 PUSH2 0x464E DUP5 PUSH2 0x4553 JUMP JUMPDEST SWAP1 DUP2 DUP5 MSTORE PUSH1 0x1 SWAP5 DUP6 DUP2 AND SWAP1 DUP2 PUSH1 0x0 EQ PUSH2 0x46BD JUMPI POP PUSH1 0x1 EQ PUSH2 0x467A JUMPI JUMPDEST POP POP PUSH2 0x4678 SWAP3 POP SUB DUP4 PUSH2 0x4617 JUMP JUMPDEST JUMP JUMPDEST SWAP1 SWAP4 SWAP2 POP PUSH1 0x0 MSTORE PUSH1 0x20 SWAP1 DUP2 PUSH1 0x0 KECCAK256 SWAP4 PUSH1 0x0 SWAP2 JUMPDEST DUP2 DUP4 LT PUSH2 0x46A5 JUMPI POP POP PUSH2 0x4678 SWAP4 POP DUP3 ADD ADD CODESIZE DUP1 PUSH2 0x466A JUMP JUMPDEST DUP6 SLOAD DUP9 DUP5 ADD DUP6 ADD MSTORE SWAP5 DUP6 ADD SWAP5 DUP8 SWAP5 POP SWAP2 DUP4 ADD SWAP2 PUSH2 0x468D JUMP JUMPDEST SWAP2 POP POP PUSH2 0x4678 SWAP5 POP PUSH1 0x20 SWAP3 POP PUSH1 0xFF NOT AND DUP3 DUP5 ADD MSTORE ISZERO ISZERO PUSH1 0x5 SHL DUP3 ADD ADD CODESIZE DUP1 PUSH2 0x466A JUMP JUMPDEST SWAP2 SWAP1 DUP3 MLOAD SWAP3 DUP4 DUP3 MSTORE PUSH1 0x0 JUMPDEST DUP5 DUP2 LT PUSH2 0x470C JUMPI POP POP DUP3 PUSH1 0x0 PUSH1 0x20 DUP1 SWAP5 SWAP6 DUP5 ADD ADD MSTORE PUSH1 0x1F DUP1 NOT SWAP2 ADD AND ADD ADD SWAP1 JUMP JUMPDEST PUSH1 0x20 DUP2 DUP4 ADD DUP2 ADD MLOAD DUP5 DUP4 ADD DUP3 ADD MSTORE ADD PUSH2 0x46EB JUMP JUMPDEST SWAP8 SWAP4 PUSH2 0x140 SWAP10 SWAP13 SWAP12 SWAP11 SWAP8 SWAP4 PUSH2 0x4292 SWAP2 PUSH2 0x4751 PUSH2 0x4764 SWAP6 PUSH2 0x4788 SWAP11 SWAP10 SWAP6 DUP14 MSTORE PUSH1 0x20 DUP14 PUSH2 0x160 SWAP2 DUP3 SWAP2 ADD MSTORE DUP14 ADD SWAP1 PUSH2 0x46E0 JUMP JUMPDEST SWAP2 PUSH1 0x40 DUP13 ADD MSTORE DUP11 DUP3 SUB PUSH1 0x60 DUP13 ADD MSTORE PUSH2 0x46E0 JUMP JUMPDEST PUSH1 0x1 PUSH1 0x1 PUSH1 0xA0 SHL SUB SWAP1 SWAP4 AND PUSH1 0xA0 DUP8 ADD MSTORE ISZERO ISZERO PUSH1 0xC0 DUP7 ADD MSTORE DUP5 DUP3 SUB PUSH1 0xE0 DUP7 ADD MSTORE PUSH2 0x46E0 JUMP JUMPDEST SWAP6 PUSH2 0x100 DUP4 ADD MSTORE PUSH2 0x120 DUP3 ADD MSTORE ADD MSTORE JUMP JUMPDEST PUSH1 0x20 DUP1 DUP3 ADD SWAP1 DUP1 DUP4 MSTORE DUP4 MLOAD DUP1 SWAP3 MSTORE PUSH1 0x40 SWAP3 DUP4 DUP2 ADD DUP3 DUP6 DUP6 PUSH1 0x5 SHL DUP5 ADD ADD SWAP7 ADD SWAP5 PUSH1 0x0 SWAP3 JUMPDEST DUP6 DUP5 LT PUSH2 0x47CE JUMPI POP POP POP POP POP POP POP SWAP1 JUMP JUMPDEST SWAP1 SWAP2 SWAP3 SWAP4 SWAP5 SWAP6 SWAP7 DUP6 DUP1 PUSH1 0x1 SWAP3 PUSH1 0x3F NOT DUP6 DUP3 SUB ADD DUP8 MSTORE DUP11 MLOAD SWAP1 DUP2 MLOAD DUP2 MSTORE PUSH2 0x4869 PUSH2 0x482D PUSH2 0x481A PUSH2 0x480A DUP7 DUP7 ADD MLOAD PUSH2 0x1C0 DUP1 DUP10 DUP9 ADD MSTORE DUP7 ADD SWAP1 PUSH2 0x46E0 JUMP JUMPDEST DUP11 DUP7 ADD MLOAD DUP6 DUP3 SUB DUP13 DUP8 ADD MSTORE PUSH2 0x46E0 JUMP JUMPDEST PUSH1 0x60 DUP1 DUP7 ADD MLOAD SWAP1 DUP6 DUP4 SUB SWAP1 DUP7 ADD MSTORE PUSH2 0x46E0 JUMP JUMPDEST PUSH1 0x80 DUP8 DUP1 PUSH1 0xA0 SHL SUB DUP2 DUP7 ADD MLOAD AND SWAP1 DUP5 ADD MSTORE PUSH1 0xA0 DUP1 DUP6 ADD MLOAD ISZERO ISZERO SWAP1 DUP5 ADD MSTORE PUSH1 0xC0 DUP1 DUP6 ADD MLOAD ISZERO ISZERO SWAP1 DUP5 ADD MSTORE PUSH1 0xE0 DUP1 DUP6 ADD MLOAD SWAP1 DUP5 DUP4 SUB SWAP1 DUP6 ADD MSTORE PUSH2 0x46E0 JUMP JUMPDEST SWAP2 PUSH2 0x100 DUP1 DUP3 ADD MLOAD SWAP1 DUP4 ADD MSTORE PUSH2 0x120 DUP1 DUP3 ADD MLOAD SWAP1 DUP4 ADD MSTORE PUSH2 0x140 DUP1 DUP3 ADD MLOAD SWAP1 DUP4 ADD MSTORE PUSH2 0x160 DUP1 DUP3 ADD MLOAD SWAP1 DUP4 ADD MSTORE PUSH2 0x180 DUP1 DUP3 ADD MLOAD SWAP1 DUP4 ADD MSTORE PUSH2 0x1A0 DUP1 SWAP2 ADD MLOAD SWAP2 ADD MSTORE SWAP10 ADD SWAP5 ADD SWAP5 ADD SWAP3 SWAP6 SWAP5 SWAP4 SWAP2 SWAP1 PUSH2 0x47BD JUMP JUMPDEST DUP2 PUSH1 0x1F DUP3 ADD SLT ISZERO PUSH2 0x321 JUMPI DUP1 CALLDATALOAD SWAP1 PUSH1 0x1 PUSH1 0x1 PUSH1 0x40 SHL SUB DUP3 GT PUSH2 0x869 JUMPI PUSH1 0x40 MLOAD SWAP3 PUSH2 0x48F0 PUSH1 0x1F DUP5 ADD PUSH1 0x1F NOT AND PUSH1 0x20 ADD DUP6 PUSH2 0x4617 JUMP JUMPDEST DUP3 DUP5 MSTORE PUSH1 0x20 DUP4 DUP4 ADD ADD GT PUSH2 0x321 JUMPI DUP2 PUSH1 0x0 SWAP3 PUSH1 0x20 DUP1 SWAP4 ADD DUP4 DUP7 ADD CALLDATACOPY DUP4 ADD ADD MSTORE SWAP1 JUMP JUMPDEST PUSH1 0x20 SWAP1 DUP2 PUSH1 0x40 DUP2 DUP4 ADD SWAP3 DUP3 DUP2 MSTORE DUP6 MLOAD DUP1 SWAP5 MSTORE ADD SWAP4 ADD SWAP2 PUSH1 0x0 JUMPDEST DUP3 DUP2 LT PUSH2 0x4939 JUMPI POP POP POP POP SWAP1 JUMP JUMPDEST DUP4 MLOAD DUP6 MSTORE SWAP4 DUP2 ADD SWAP4 SWAP3 DUP2 ADD SWAP3 PUSH1 0x1 ADD PUSH2 0x492B JUMP JUMPDEST PUSH1 0x20 SWAP1 DUP2 PUSH1 0x40 DUP2 DUP4 ADD SWAP3 DUP3 DUP2 MSTORE DUP6 MLOAD DUP1 SWAP5 MSTORE ADD SWAP4 ADD SWAP2 PUSH1 0x0 JUMPDEST DUP3 DUP2 LT PUSH2 0x4974 JUMPI POP POP POP POP SWAP1 JUMP JUMPDEST DUP4 MLOAD PUSH1 0x1 PUSH1 0x1 PUSH1 0xA0 SHL SUB AND DUP6 MSTORE SWAP4 DUP2 ADD SWAP4 SWAP3 DUP2 ADD SWAP3 PUSH1 0x1 ADD PUSH2 0x4966 JUMP JUMPDEST SWAP1 PUSH1 0x40 PUSH1 0x3 NOT DUP4 ADD SLT PUSH2 0x321 JUMPI PUSH1 0x4 CALLDATALOAD PUSH1 0x1 PUSH1 0x1 PUSH1 0xA0 SHL SUB DUP2 AND DUP2 SUB PUSH2 0x321 JUMPI SWAP2 PUSH1 0x24 CALLDATALOAD SWAP1 PUSH1 0x1 PUSH1 0x1 PUSH1 0x40 SHL SUB DUP3 GT PUSH2 0x321 JUMPI PUSH2 0x49D0 SWAP2 PUSH1 0x4 ADD PUSH2 0x48BC JUMP JUMPDEST SWAP1 JUMP JUMPDEST SWAP2 SWAP1 PUSH1 0x20 DUP4 ADD SWAP3 PUSH1 0x4 DUP3 LT ISZERO PUSH2 0x7D6 JUMPI MSTORE JUMP JUMPDEST SWAP11 SWAP8 SWAP4 PUSH2 0x1A0 SWAP13 SWAP10 SWAP16 SWAP15 SWAP14 SWAP11 SWAP8 SWAP4 DUP13 PUSH2 0x4A26 SWAP2 PUSH2 0x4A18 PUSH2 0x4A5F SWAP11 SWAP7 PUSH2 0x4A34 SWAP7 DUP5 MSTORE PUSH2 0x1C0 DUP1 PUSH1 0x20 DUP7 ADD MSTORE DUP5 ADD SWAP1 PUSH2 0x46E0 JUMP JUMPDEST SWAP2 PUSH1 0x40 DUP2 DUP5 SUB SWAP2 ADD MSTORE PUSH2 0x46E0 JUMP JUMPDEST DUP13 DUP2 SUB PUSH1 0x60 DUP15 ADD MSTORE SWAP1 PUSH2 0x46E0 JUMP JUMPDEST PUSH1 0x1 PUSH1 0x1 PUSH1 0xA0 SHL SUB SWAP1 SWAP5 AND PUSH1 0x80 DUP12 ADD MSTORE ISZERO ISZERO PUSH1 0xA0 DUP11 ADD MSTORE ISZERO ISZERO PUSH1 0xC0 DUP10 ADD MSTORE DUP8 DUP3 SUB PUSH1 0xE0 DUP10 ADD MSTORE PUSH2 0x46E0 JUMP JUMPDEST SWAP9 PUSH2 0x100 DUP7 ADD MSTORE PUSH2 0x120 DUP6 ADD MSTORE PUSH2 0x140 DUP5 ADD MSTORE PUSH2 0x160 DUP4 ADD MSTORE PUSH2 0x180 DUP3 ADD MSTORE ADD MSTORE JUMP JUMPDEST ISZERO PUSH2 0x4A89 JUMPI JUMP JUMPDEST PUSH1 0x40 MLOAD PUSH3 0x461BCD PUSH1 0xE5 SHL DUP2 MSTORE PUSH1 0x20 PUSH1 0x4 DUP3 ADD MSTORE PUSH1 0xA PUSH1 0x24 DUP3 ADD MSTORE PUSH10 0x27B7363C9030B236B4B7 PUSH1 0xB1 SHL PUSH1 0x44 DUP3 ADD MSTORE PUSH1 0x64 SWAP1 REVERT JUMPDEST ISZERO PUSH2 0x4AC2 JUMPI JUMP JUMPDEST PUSH1 0x40 MLOAD PUSH3 0x461BCD PUSH1 0xE5 SHL DUP2 MSTORE PUSH1 0x20 PUSH1 0x4 DUP3 ADD MSTORE PUSH1 0x12 PUSH1 0x24 DUP3 ADD MSTORE PUSH18 0x105B1C9958591E481C9959DA5CDD195C9959 PUSH1 0x72 SHL PUSH1 0x44 DUP3 ADD MSTORE PUSH1 0x64 SWAP1 REVERT JUMPDEST PUSH1 0x0 NOT DUP2 EQ PUSH2 0x4B0B JUMPI PUSH1 0x1 ADD SWAP1 JUMP JUMPDEST PUSH4 0x4E487B71 PUSH1 0xE0 SHL PUSH1 0x0 MSTORE PUSH1 0x11 PUSH1 0x4 MSTORE PUSH1 0x24 PUSH1 0x0 REVERT JUMPDEST SWAP1 PUSH1 0x1F DUP2 GT PUSH2 0x4B2F JUMPI POP POP POP JUMP JUMPDEST PUSH1 0x0 SWAP2 DUP3 MSTORE PUSH1 0x20 DUP3 KECCAK256 SWAP1 PUSH1 0x20 PUSH1 0x1F DUP6 ADD PUSH1 0x5 SHR DUP4 ADD SWAP5 LT PUSH2 0x4B6B JUMPI JUMPDEST PUSH1 0x1F ADD PUSH1 0x5 SHR ADD SWAP2 JUMPDEST DUP3 DUP2 LT PUSH2 0x4B60 JUMPI POP POP POP JUMP JUMPDEST DUP2 DUP2 SSTORE PUSH1 0x1 ADD PUSH2 0x4B54 JUMP JUMPDEST SWAP1 SWAP3 POP DUP3 SWAP1 PUSH2 0x4B4B JUMP JUMPDEST DUP1 SLOAD PUSH1 0xFF PUSH1 0xA0 SHL NOT AND SWAP2 ISZERO ISZERO PUSH1 0xA0 SHL PUSH1 0xFF PUSH1 0xA0 SHL AND SWAP2 SWAP1 SWAP2 OR SWAP1 SSTORE JUMP JUMPDEST SWAP1 DUP1 DUP3 EQ PUSH2 0x4C6C JUMPI PUSH2 0x4BA4 DUP2 SLOAD PUSH2 0x4553 JUMP JUMPDEST SWAP1 PUSH1 0x1 PUSH1 0x1 PUSH1 0x40 SHL SUB DUP3 GT PUSH2 0x869 JUMPI DUP2 SWAP1 PUSH2 0x4BC9 DUP3 PUSH2 0x4BC3 DUP7 SLOAD PUSH2 0x4553 JUMP JUMPDEST DUP7 PUSH2 0x4B21 JUMP JUMPDEST PUSH1 0x0 SWAP1 PUSH1 0x1F DUP4 GT PUSH1 0x1 EQ PUSH2 0x4C00 JUMPI PUSH1 0x0 SWAP3 PUSH2 0x4BF5 JUMPI JUMPDEST POP POP DUP2 PUSH1 0x1 SHL SWAP2 PUSH1 0x0 NOT SWAP1 PUSH1 0x3 SHL SHR NOT AND OR SWAP1 SSTORE JUMP JUMPDEST ADD SLOAD SWAP1 POP CODESIZE DUP1 PUSH2 0x4BDF JUMP JUMPDEST DUP2 MSTORE PUSH1 0x20 DUP1 DUP3 KECCAK256 DUP6 DUP4 MSTORE DUP2 DUP4 KECCAK256 SWAP4 POP SWAP1 PUSH1 0x1F NOT DUP6 AND SWAP1 DUP4 SWAP1 JUMPDEST DUP3 DUP3 LT PUSH2 0x4C53 JUMPI POP POP SWAP1 DUP5 PUSH1 0x1 SWAP6 SWAP5 SWAP4 SWAP3 LT PUSH2 0x4C3A JUMPI JUMPDEST POP POP POP DUP2 SHL ADD SWAP1 SSTORE JUMP JUMPDEST ADD SLOAD PUSH1 0x0 NOT PUSH1 0xF8 DUP5 PUSH1 0x3 SHL AND SHR NOT AND SWAP1 SSTORE CODESIZE DUP1 DUP1 PUSH2 0x4C30 JUMP JUMPDEST DUP5 SWAP6 DUP2 SWAP3 SWAP6 DUP6 ADD SLOAD DUP2 SSTORE PUSH1 0x1 DUP1 SWAP2 ADD SWAP7 ADD SWAP5 ADD SWAP1 PUSH2 0x4C19 JUMP JUMPDEST POP POP JUMP JUMPDEST ISZERO PUSH2 0x4C77 JUMPI JUMP JUMPDEST PUSH1 0x40 MLOAD PUSH3 0x461BCD PUSH1 0xE5 SHL DUP2 MSTORE PUSH1 0x20 PUSH1 0x4 DUP3 ADD MSTORE PUSH1 0xE PUSH1 0x24 DUP3 ADD MSTORE PUSH14 0x139BDD081C9959DA5CDD195C9959 PUSH1 0x92 SHL PUSH1 0x44 DUP3 ADD MSTORE PUSH1 0x64 SWAP1 REVERT JUMPDEST DUP1 SLOAD DUP3 LT ISZERO PUSH2 0x4CC5 JUMPI PUSH1 0x0 MSTORE PUSH1 0x20 PUSH1 0x0 KECCAK256 ADD SWAP1 PUSH1 0x0 SWAP1 JUMP JUMPDEST PUSH4 0x4E487B71 PUSH1 0xE0 SHL PUSH1 0x0 MSTORE PUSH1 0x32 PUSH1 0x4 MSTORE PUSH1 0x24 PUSH1 0x0 REVERT JUMPDEST DUP1 SLOAD PUSH1 0x1 PUSH1 0x40 SHL DUP2 LT ISZERO PUSH2 0x869 JUMPI PUSH2 0x4CF8 SWAP2 PUSH1 0x1 DUP3 ADD DUP2 SSTORE PUSH2 0x4CAD JUMP JUMPDEST DUP2 SWAP3 SWAP2 SLOAD SWAP1 PUSH1 0x3 SHL SWAP2 DUP3 SHL SWAP2 PUSH1 0x0 NOT SWAP1 SHL NOT AND OR SWAP1 SSTORE JUMP JUMPDEST ISZERO PUSH2 0x4D17 JUMPI JUMP JUMPDEST PUSH1 0x40 MLOAD PUSH3 0x461BCD PUSH1 0xE5 SHL DUP2 MSTORE PUSH1 0x20 PUSH1 0x4 DUP3 ADD MSTORE PUSH1 0x7 PUSH1 0x24 DUP3 ADD MSTORE PUSH7 0x125B9D985B1A59 PUSH1 0xCA SHL PUSH1 0x44 DUP3 ADD MSTORE PUSH1 0x64 SWAP1 REVERT JUMPDEST ISZERO PUSH2 0x4D4D JUMPI JUMP JUMPDEST PUSH1 0x40 MLOAD PUSH3 0x461BCD PUSH1 0xE5 SHL DUP2 MSTORE PUSH1 0x20 PUSH1 0x4 DUP3 ADD MSTORE PUSH1 0x9 PUSH1 0x24 DUP3 ADD MSTORE PUSH9 0x4E6F20616363657373 PUSH1 0xB8 SHL PUSH1 0x44 DUP3 ADD MSTORE PUSH1 0x64 SWAP1 REVERT JUMPDEST SWAP2 SWAP1 DUP3 ADD DUP1 SWAP3 GT PUSH2 0x4B0B JUMPI JUMP JUMPDEST DUP1 SLOAD PUSH1 0xFF PUSH1 0xA8 SHL NOT AND SWAP2 ISZERO ISZERO PUSH1 0xA8 SHL PUSH1 0xFF PUSH1 0xA8 SHL AND SWAP2 SWAP1 SWAP2 OR SWAP1 SSTORE JUMP JUMPDEST ISZERO PUSH2 0x4DAF JUMPI JUMP JUMPDEST PUSH1 0x40 MLOAD PUSH3 0x461BCD PUSH1 0xE5 SHL DUP2 MSTORE PUSH1 0x20 PUSH1 0x4 DUP3 ADD MSTORE PUSH1 0xC PUSH1 0x24 DUP3 ADD MSTORE PUSH12 0x2737BA1030903237B1BA37B9 PUSH1 0xA1 SHL PUSH1 0x44 DUP3 ADD MSTORE PUSH1 0x64 SWAP1 REVERT JUMPDEST ISZERO PUSH2 0x4DEA JUMPI JUMP JUMPDEST PUSH1 0x40 MLOAD PUSH3 0x461BCD PUSH1 0xE5 SHL DUP2 MSTORE PUSH1 0x20 PUSH1 0x4 DUP3 ADD MSTORE PUSH1 0x13 PUSH1 0x24 DUP3 ADD MSTORE PUSH19 0x2737BA1030B8383937BB32B2103237B1BA37B9 PUSH1 0x69 SHL PUSH1 0x44 DUP3 ADD MSTORE PUSH1 0x64 SWAP1 REVERT JUMPDEST ISZERO PUSH2 0x4E2C JUMPI JUMP JUMPDEST PUSH1 0x40 MLOAD PUSH3 0x461BCD PUSH1 0xE5 SHL DUP2 MSTORE PUSH1 0x20 PUSH1 0x4 DUP3 ADD MSTORE PUSH1 0xD PUSH1 0x24 DUP3 ADD MSTORE PUSH13 0x2737903832B936B4B9B9B4B7B7 PUSH1 0x99 SHL PUSH1 0x44 DUP3 ADD MSTORE PUSH1 0x64 SWAP1 REVERT JUMPDEST PUSH1 0x1 PUSH1 0x1 PUSH1 0xA0 SHL SUB AND PUSH1 0x0 DUP2 DUP2 MSTORE PUSH1 0x9 PUSH1 0x20 MSTORE PUSH1 0x40 DUP2 KECCAK256 PUSH1 0xA DUP2 ADD SLOAD SWAP2 SWAP3 SWAP2 ISZERO PUSH2 0x4EE0 JUMPI PUSH1 0x9 ADD SLOAD SWAP1 PUSH1 0x64 DUP3 MUL SWAP2 DUP1 DUP4 DIV PUSH1 0x64 EQ SWAP1 ISZERO OR ISZERO PUSH2 0x4ECC JUMPI DUP3 MSTORE PUSH1 0x9 PUSH1 0x20 MSTORE PUSH1 0xA PUSH1 0x40 DUP4 KECCAK256 ADD SLOAD SWAP2 DUP3 ISZERO PUSH2 0x4EB8 JUMPI POP DIV SWAP1 JUMP JUMPDEST PUSH4 0x4E487B71 PUSH1 0xE0 SHL DUP2 MSTORE PUSH1 0x12 PUSH1 0x4 MSTORE PUSH1 0x24 SWAP1 REVERT JUMPDEST PUSH4 0x4E487B71 PUSH1 0xE0 SHL DUP4 MSTORE PUSH1 0x11 PUSH1 0x4 MSTORE PUSH1 0x24 DUP4 REVERT JUMPDEST POP POP SWAP1 JUMP JUMPDEST PUSH1 0x1 PUSH1 0x1 PUSH1 0x40 SHL SUB DUP2 GT PUSH2 0x869 JUMPI PUSH1 0x5 SHL PUSH1 0x20 ADD SWAP1 JUMP JUMPDEST SWAP1 PUSH2 0x4F06 DUP3 PUSH2 0x4EE5 JUMP JUMPDEST PUSH1 0x40 SWAP1 PUSH2 0x4F15 DUP3 MLOAD SWAP2 DUP3 PUSH2 0x4617 JUMP JUMPDEST DUP4 DUP2 MSTORE DUP1 SWAP4 PUSH2 0x4F26 PUSH1 0x1F NOT SWAP2 PUSH2 0x4EE5 JUMP JUMPDEST ADD SWAP2 PUSH1 0x0 JUMPDEST DUP4 DUP2 LT PUSH2 0x4F38 JUMPI POP POP POP POP JUMP JUMPDEST PUSH1 0x20 SWAP1 DUP3 MLOAD PUSH2 0x4F46 DUP2 PUSH2 0x45C5 JUMP JUMPDEST PUSH1 0x0 DUP2 MSTORE PUSH1 0x60 DUP4 SWAP1 DUP1 DUP3 DUP5 ADD MSTORE DUP1 DUP7 DUP5 ADD MSTORE DUP1 DUP1 DUP5 ADD MSTORE PUSH1 0x0 PUSH1 0x80 DUP5 ADD MSTORE PUSH1 0x0 PUSH1 0xA0 DUP5 ADD MSTORE PUSH1 0x0 PUSH1 0xC0 DUP5 ADD MSTORE PUSH1 0xE0 DUP4 ADD MSTORE PUSH1 0x0 PUSH2 0x100 DUP4 ADD MSTORE PUSH1 0x0 PUSH2 0x120 DUP4 ADD MSTORE PUSH1 0x0 PUSH2 0x140 DUP4 ADD MSTORE PUSH1 0x0 PUSH2 0x160 DUP4 ADD MSTORE PUSH1 0x0 PUSH2 0x180 DUP4 ADD MSTORE PUSH1 0x0 PUSH2 0x1A0 DUP4 ADD MSTORE DUP3 DUP7 ADD ADD MSTORE ADD PUSH2 0x4F2B JUMP JUMPDEST DUP1 MLOAD DUP3 LT ISZERO PUSH2 0x4CC5 JUMPI PUSH1 0x20 SWAP2 PUSH1 0x5 SHL ADD ADD SWAP1 JUMP JUMPDEST SWAP1 PUSH1 0x40 MLOAD PUSH2 0x4FD3 DUP2 PUSH2 0x45C5 JUMP JUMPDEST PUSH2 0x1A0 PUSH1 0xB DUP3 SWAP5 DUP1 SLOAD DUP5 MSTORE PUSH2 0x4FEA PUSH1 0x1 DUP3 ADD PUSH2 0x463A JUMP JUMPDEST PUSH1 0x20 DUP6 ADD MSTORE PUSH2 0x4FFB PUSH1 0x2 DUP3 ADD PUSH2 0x463A JUMP JUMPDEST PUSH1 0x40 DUP6 ADD MSTORE PUSH2 0x500C PUSH1 0x3 DUP3 ADD PUSH2 0x463A JUMP JUMPDEST PUSH1 0x60 DUP6 ADD MSTORE PUSH1 0xFF PUSH1 0x4 DUP3 ADD SLOAD PUSH1 0x1 DUP1 PUSH1 0xA0 SHL SUB DUP2 AND PUSH1 0x80 DUP8 ADD MSTORE DUP2 DUP2 PUSH1 0xA0 SHR AND ISZERO ISZERO PUSH1 0xA0 DUP8 ADD MSTORE PUSH1 0xA8 SHR AND ISZERO ISZERO PUSH1 0xC0 DUP6 ADD MSTORE PUSH2 0x504A PUSH1 0x5 DUP3 ADD PUSH2 0x463A JUMP JUMPDEST PUSH1 0xE0 DUP6 ADD MSTORE PUSH1 0x6 DUP2 ADD SLOAD PUSH2 0x100 DUP6 ADD MSTORE PUSH1 0x7 DUP2 ADD SLOAD PUSH2 0x120 DUP6 ADD MSTORE PUSH1 0x8 DUP2 ADD SLOAD PUSH2 0x140 DUP6 ADD MSTORE PUSH1 0x9 DUP2 ADD SLOAD PUSH2 0x160 DUP6 ADD MSTORE PUSH1 0xA DUP2 ADD SLOAD PUSH2 0x180 DUP6 ADD MSTORE ADD SLOAD SWAP2 ADD MSTORE JUMP JUMPDEST PUSH1 0x0 CALLER DUP2 MSTORE PUSH1 0x20 SWAP1 PUSH1 0x8 DUP3 MSTORE PUSH1 0x40 SWAP1 PUSH1 0xFF DUP3 DUP3 KECCAK256 SLOAD AND PUSH1 0x4 DUP2 LT ISZERO PUSH2 0x5156 JUMPI PUSH1 0x3 EQ PUSH2 0x516A JUMPI CALLER DUP2 MSTORE PUSH1 0x8 DUP4 MSTORE PUSH1 0xFF DUP3 DUP3 KECCAK256 SLOAD AND PUSH1 0x4 DUP2 LT ISZERO PUSH2 0x5156 JUMPI PUSH1 0x2 EQ PUSH2 0x5104 JUMPI DUP2 MLOAD PUSH3 0x461BCD PUSH1 0xE5 SHL DUP2 MSTORE PUSH1 0x4 DUP2 ADD DUP5 SWAP1 MSTORE PUSH1 0xC PUSH1 0x24 DUP3 ADD MSTORE PUSH12 0x496E76616C696420726F6C65 PUSH1 0xA0 SHL PUSH1 0x44 DUP3 ADD MSTORE PUSH1 0x64 SWAP1 REVERT JUMPDEST CALLER DUP2 MSTORE PUSH1 0x13 DUP4 MSTORE DUP2 DUP2 KECCAK256 SWAP2 MLOAD DUP3 SLOAD DUP1 DUP3 MSTORE SWAP3 DUP3 MSTORE DUP4 DUP3 KECCAK256 SWAP1 SWAP4 SWAP1 SWAP3 DUP5 SWAP3 DUP4 DUP4 ADD SWAP3 JUMPDEST DUP3 DUP3 LT PUSH2 0x513C JUMPI POP POP POP PUSH2 0x49D0 SWAP3 POP SUB DUP3 PUSH2 0x4617 JUMP JUMPDEST DUP6 SLOAD DUP5 MSTORE PUSH1 0x1 SWAP6 DUP7 ADD SWAP6 DUP8 SWAP6 POP SWAP4 DUP2 ADD SWAP4 SWAP1 SWAP2 ADD SWAP1 PUSH2 0x5126 JUMP JUMPDEST PUSH4 0x4E487B71 PUSH1 0xE0 SHL DUP3 MSTORE PUSH1 0x21 PUSH1 0x4 MSTORE PUSH1 0x24 DUP3 REVERT JUMPDEST CALLER DUP2 MSTORE PUSH1 0x12 DUP4 MSTORE DUP2 DUP2 KECCAK256 SWAP2 MLOAD DUP3 SLOAD DUP1 DUP3 MSTORE SWAP3 DUP3 MSTORE DUP4 DUP3 KECCAK256 SWAP1 SWAP4 SWAP1 SWAP3 DUP5 SWAP3 DUP4 DUP4 ADD SWAP3 JUMPDEST DUP3 DUP3 LT PUSH2 0x51A2 JUMPI POP POP POP PUSH2 0x49D0 SWAP3 POP SUB DUP3 PUSH2 0x4617 JUMP JUMPDEST DUP6 SLOAD DUP5 MSTORE PUSH1 0x1 SWAP6 DUP7 ADD SWAP6 DUP8 SWAP6 POP SWAP4 DUP2 ADD SWAP4 SWAP1 SWAP2 ADD SWAP1 PUSH2 0x518C JUMP JUMPDEST DUP1 SLOAD PUSH1 0x1 PUSH1 0x40 SHL DUP2 LT ISZERO PUSH2 0x869 JUMPI PUSH2 0x51D9 SWAP2 PUSH1 0x1 DUP3 ADD DUP2 SSTORE PUSH2 0x4CAD JUMP JUMPDEST DUP2 SWAP3 SWAP2 SLOAD SWAP1 PUSH1 0x3 SHL SWAP2 PUSH1 0x1 DUP1 PUSH1 0xA0 SHL SUB DUP1 SWAP2 AND DUP4 SHL SWAP3 SHL NOT AND OR SWAP1 SSTORE JUMP JUMPDEST PUSH32 0x9F520B3BFC56D06F7065D10B4683B3F57AC8895D5026CD176DEE95CE1454CB8D PUSH1 0x1 DUP1 PUSH1 0xA0 SHL SUB SWAP3 PUSH2 0x5274 DUP5 DUP5 AND SWAP4 PUSH2 0x5263 PUSH1 0x0 SWAP4 DUP7 DUP6 MSTORE PUSH1 0x14 PUSH1 0x20 MSTORE PUSH1 0x40 DUP6 KECCAK256 SWAP8 DUP2 AND SWAP8 DUP9 DUP7 MSTORE PUSH1 0x20 MSTORE PUSH1 0x40 DUP6 KECCAK256 PUSH1 0x1 PUSH1 0xFF NOT DUP3 SLOAD AND OR SWAP1 SSTORE DUP7 DUP6 MSTORE PUSH1 0x15 PUSH1 0x20 MSTORE PUSH1 0x40 DUP6 KECCAK256 PUSH2 0x51BC JUMP JUMPDEST DUP6 DUP4 MSTORE PUSH1 0x16 PUSH1 0x20 MSTORE PUSH1 0x40 DUP4 KECCAK256 PUSH2 0x51BC JUMP JUMPDEST DUP4 DUP2 MSTORE PUSH1 0x9 PUSH1 0x20 MSTORE PUSH1 0x6 PUSH1 0x40 DUP3 KECCAK256 ADD PUSH2 0x528D DUP2 SLOAD PUSH2 0x4AFC JUMP JUMPDEST SWAP1 SSTORE DUP1 LOG3 JUMP JUMPDEST SWAP1 PUSH2 0x52C3 PUSH2 0x52A2 PUSH1 0x5 SLOAD PUSH2 0x4AFC JUMP JUMPDEST SWAP3 DUP4 PUSH1 0x5 SSTORE PUSH1 0x1 DUP1 PUSH1 0xA0 SHL SUB AND SWAP3 DUP4 PUSH1 0x0 MSTORE PUSH1 0x1A PUSH1 0x20 MSTORE PUSH1 0x40 PUSH1 0x0 KECCAK256 PUSH2 0x4CDB JUMP JUMPDEST PUSH32 0x1D268A9E5ADC5FDEFD5D31825D22E4F472C2458E8AD5ED87587D9EDCCFC348F4 PUSH2 0x52FF PUSH1 0x5 SLOAD SWAP3 PUSH1 0x40 MLOAD SWAP2 DUP3 SWAP2 PUSH1 0x20 DUP4 MSTORE PUSH1 0x20 DUP4 ADD SWAP1 PUSH2 0x46E0 JUMP JUMPDEST SUB SWAP1 LOG3 JUMP INVALID 0xCD LT 0x5D PUSH13 0x8F27F681AB198BD63B5F4B32C 0xE4 SWAP8 PUSH32 0xACD0909ACB589CF2C82668722013570C343AF8AB14A9778150E381A0FDA34ED6 CALLDATASIZE DUP2 0x27 0xA9 PUSH0 0xD5 0xE7 0x21 0xC 0xBE 0xC5 0xBF LOG2 PUSH5 0x6970667358 0x22 SLT KECCAK256 0xAC SIGNEXTEND SDIV 0xCB 0xC7 0xB3 0x4D PUSH4 0x6A3A8994 0x25 SWAP12 0xEB 0x26 DUP16 0xB0 0xF SMOD 0x2A 0xEA 0xEF 0x4C 0xD8 0xF 0xDE SDIV SWAP8 PUSH1 0xBA 0x4B PUSH5 0x736F6C6343 STOP ADDMOD EQ STOP CALLER "},"methodIdentifiers":{"accessControl(address,address)":"03536d43","addMedicalRecordFor(address,address,string,string,string,string,uint256,string,uint8)":"a346fa51","addMedicationFor(address,address,string,string,string,string)":"3165748c","addReviewFor(address,uint256,uint8,string)":"64be34f6","admin()":"f851a440","appointmentCount()":"eebc3fb2","appointments(uint256)":"12dc9013","approveAppointment(uint256)":"064eac8a","approveDoctor(address)":"6160a5c2","bookAppointmentFor(address,address,string,string,string)":"eefa49be","cancelAppointmentFor(address,uint256)":"80f6a3bc","checkAccess(address,address)":"62e1f745","completeAppointmentFor(address,uint256)":"69eabcd5","doctorById(uint256)":"f393fa7f","doctorCount()":"78522bc4","doctors(address)":"a9583c22","getAllApprovedDoctors()":"24c86af5","getDoctorAverageRating(address)":"ba208d03","getDoctorReviews(address)":"45f5e9df","getDoctorsBySpecialization(string)":"c241cdd7","getMedicalRecord(uint256,address)":"9878b20d","getMyAccessList()":"dc561ab5","getMyAppointmentIds()":"ba27c49d","getMyNotificationIds()":"3d73a691","getMyPatients()":"441131c9","getMyRole()":"6e3b47fc","getPatientAppointmentIds(address)":"4320418d","getPatientMedications(address)":"8654c143","getPatientRecordIds(address)":"6248204e","getPendingDoctors()":"99faaa48","grantAccessFor(address,address)":"e48b4777","medicalRecords(uint256)":"7564a13c","medicationCount()":"8d72d670","medications(uint256)":"fa8547f6","notificationCount()":"71342f0c","patientById(uint256)":"e2b1c32a","patientCount()":"a0303c41","patients(address)":"0869cfbc","recordCount()":"900407bc","registerDoctorFor(address,string,string,string,string)":"95c6db5a","registerPatientFor(address,string,uint256,string,string,string)":"5c37871a","reviewCount()":"eff5924f","reviews(uint256)":"e83ddcea","revokeAccessFor(address,address)":"ebc77782","setDoctorAvailabilityFor(address,bool)":"80b97cb6","stopMedicationFor(address,uint256)":"e7df7cae","updateDoctorMetadataFor(address,string)":"605734bc","updatePatientMetadataFor(address,string)":"cfdd91f9","userRoles(address)":"74d5e100"}}}}}